{
  "_format": "hh-sol-artifact-1",
  "contractName": "Spotter",
  "sourceName": "contracts/dai/oracle-module/spot.sol",
  "abi": [
    {
      "inputs": [
        {
          "internalType": "address",
          "name": "vat_",
          "type": "address"
        }
      ],
      "stateMutability": "nonpayable",
      "type": "constructor"
    },
    {
      "anonymous": false,
      "inputs": [
        {
          "indexed": false,
          "internalType": "bytes32",
          "name": "ilk",
          "type": "bytes32"
        },
        {
          "indexed": false,
          "internalType": "bytes32",
          "name": "val",
          "type": "bytes32"
        },
        {
          "indexed": false,
          "internalType": "uint256",
          "name": "spot",
          "type": "uint256"
        }
      ],
      "name": "Poke",
      "type": "event"
    },
    {
      "inputs": [],
      "name": "cage",
      "outputs": [],
      "stateMutability": "nonpayable",
      "type": "function"
    },
    {
      "inputs": [
        {
          "internalType": "address",
          "name": "guy",
          "type": "address"
        }
      ],
      "name": "deny",
      "outputs": [],
      "stateMutability": "nonpayable",
      "type": "function"
    },
    {
      "inputs": [
        {
          "internalType": "bytes32",
          "name": "ilk",
          "type": "bytes32"
        },
        {
          "internalType": "bytes32",
          "name": "what",
          "type": "bytes32"
        },
        {
          "internalType": "uint256",
          "name": "data",
          "type": "uint256"
        }
      ],
      "name": "file",
      "outputs": [],
      "stateMutability": "nonpayable",
      "type": "function"
    },
    {
      "inputs": [
        {
          "internalType": "bytes32",
          "name": "what",
          "type": "bytes32"
        },
        {
          "internalType": "uint256",
          "name": "data",
          "type": "uint256"
        }
      ],
      "name": "filem",
      "outputs": [],
      "stateMutability": "nonpayable",
      "type": "function"
    },
    {
      "inputs": [
        {
          "internalType": "bytes32",
          "name": "ilk",
          "type": "bytes32"
        },
        {
          "internalType": "bytes32",
          "name": "what",
          "type": "bytes32"
        },
        {
          "internalType": "address",
          "name": "pip_",
          "type": "address"
        }
      ],
      "name": "filez",
      "outputs": [],
      "stateMutability": "nonpayable",
      "type": "function"
    },
    {
      "inputs": [
        {
          "internalType": "bytes32",
          "name": "",
          "type": "bytes32"
        }
      ],
      "name": "ilks",
      "outputs": [
        {
          "internalType": "contract PipLike",
          "name": "pip",
          "type": "address"
        },
        {
          "internalType": "uint256",
          "name": "mat",
          "type": "uint256"
        }
      ],
      "stateMutability": "view",
      "type": "function"
    },
    {
      "inputs": [],
      "name": "live",
      "outputs": [
        {
          "internalType": "uint256",
          "name": "",
          "type": "uint256"
        }
      ],
      "stateMutability": "view",
      "type": "function"
    },
    {
      "inputs": [],
      "name": "par",
      "outputs": [
        {
          "internalType": "uint256",
          "name": "",
          "type": "uint256"
        }
      ],
      "stateMutability": "view",
      "type": "function"
    },
    {
      "inputs": [
        {
          "internalType": "bytes32",
          "name": "ilk",
          "type": "bytes32"
        }
      ],
      "name": "poke",
      "outputs": [],
      "stateMutability": "nonpayable",
      "type": "function"
    },
    {
      "inputs": [
        {
          "internalType": "address",
          "name": "guy",
          "type": "address"
        }
      ],
      "name": "rely",
      "outputs": [],
      "stateMutability": "nonpayable",
      "type": "function"
    },
    {
      "inputs": [
        {
          "internalType": "string",
          "name": "source",
          "type": "string"
        }
      ],
      "name": "stringToBytes32",
      "outputs": [
        {
          "internalType": "bytes32",
          "name": "result",
          "type": "bytes32"
        }
      ],
      "stateMutability": "pure",
      "type": "function"
    },
    {
      "inputs": [],
      "name": "vat",
      "outputs": [
        {
          "internalType": "contract VatLike",
          "name": "",
          "type": "address"
        }
      ],
      "stateMutability": "view",
      "type": "function"
    },
    {
      "inputs": [
        {
          "internalType": "address",
          "name": "",
          "type": "address"
        }
      ],
      "name": "wards",
      "outputs": [
        {
          "internalType": "uint256",
          "name": "",
          "type": "uint256"
        }
      ],
      "stateMutability": "view",
      "type": "function"
    }
  ],
  "bytecode": "0x608060405234801561001057600080fd5b506040516115823803806115828339818101604052602081101561003357600080fd5b810190808051906020019092919050505060016000803373ffffffffffffffffffffffffffffffffffffffff1673ffffffffffffffffffffffffffffffffffffffff1681526020019081526020016000208190555080600260006101000a81548173ffffffffffffffffffffffffffffffffffffffff021916908373ffffffffffffffffffffffffffffffffffffffff1602179055506b033b2e3c9fd0803ce800000060038190555060016004819055505061148e806100f46000396000f3fe608060405234801561001057600080fd5b50600436106100cf5760003560e01c806388d6a5bc1161008c578063bf353dbb11610066578063bf353dbb1461027e578063cfb51928146102d6578063d9638d36146103a5578063ed57f1c314610404576100cf565b806388d6a5bc146101e4578063957aa58c1461021c5780639c52a7f11461023a576100cf565b80631504460f146100d45780631a0b287e1461010257806336569e7714610144578063495d32cb1461017857806365fae35e1461019657806369245009146101da575b600080fd5b610100600480360360208110156100ea57600080fd5b810190808035906020019092919050505061045c565b005b6101426004803603606081101561011857600080fd5b810190808035906020019092919080359060200190929190803590602001909291905050506107ea565b005b61014c6109d1565b604051808273ffffffffffffffffffffffffffffffffffffffff16815260200191505060405180910390f35b6101806109f7565b6040518082815260200191505060405180910390f35b6101d8600480360360208110156101ac57600080fd5b81019080803573ffffffffffffffffffffffffffffffffffffffff1690602001909291905050506109fd565b005b6101e2610af8565b005b61021a600480360360408110156101fa57600080fd5b810190808035906020019092919080359060200190929190505050610bb6565b005b610224610d88565b6040518082815260200191505060405180910390f35b61027c6004803603602081101561025057600080fd5b81019080803573ffffffffffffffffffffffffffffffffffffffff169060200190929190505050610d8e565b005b6102c06004803603602081101561029457600080fd5b81019080803573ffffffffffffffffffffffffffffffffffffffff169060200190929190505050610e89565b6040518082815260200191505060405180910390f35b61038f600480360360208110156102ec57600080fd5b810190808035906020019064010000000081111561030957600080fd5b82018360208201111561031b57600080fd5b8035906020019184600183028401116401000000008311171561033d57600080fd5b91908080601f016020809104026020016040519081016040528093929190818152602001838380828437600081840152601f19601f820116905080830192505050505050509192919290505050610ea1565b6040518082815260200191505060405180910390f35b6103d1600480360360208110156103bb57600080fd5b8101908080359060200190929190505050610ecc565b604051808373ffffffffffffffffffffffffffffffffffffffff1681526020018281526020019250505060405180910390f35b61045a6004803603606081101561041a57600080fd5b810190808035906020019092919080359060200190929190803573ffffffffffffffffffffffffffffffffffffffff169060200190929190505050610f10565b005b6000806001600084815260200190815260200160002060000160009054906101000a900473ffffffffffffffffffffffffffffffffffffffff1673ffffffffffffffffffffffffffffffffffffffff166359e02dd76040518163ffffffff1660e01b81526004016040805180830381600087803b1580156104dc57600080fd5b505af11580156104f0573d6000803e3d6000fd5b505050506040513d604081101561050657600080fd5b810190808051906020019092919080519060200190929190505050915091506105646040518060400160405280600381526020017f686173000000000000000000000000000000000000000000000000000000000081525082611131565b6105a66040518060400160405280600381526020017f76616c00000000000000000000000000000000000000000000000000000000008152508360001c61123a565b6105e76040518060400160405280600381526020017f706172000000000000000000000000000000000000000000000000000000000081525060035461123a565b61063c6040518060400160405280600381526020017f6d61740000000000000000000000000000000000000000000000000000000000815250600160008681526020019081526020016000206001015461123a565b6106556106508360001c633b9aca00611341565b61136d565b60008161066357600061069f565b61069e61068261067a8560001c633b9aca00611341565b600354611406565b6001600087815260200190815260200160002060010154611406565b5b90506106e06040518060400160405280600481526020017f73706f74000000000000000000000000000000000000000000000000000000008152508261123a565b600260009054906101000a900473ffffffffffffffffffffffffffffffffffffffff1673ffffffffffffffffffffffffffffffffffffffff16631a0b287e85836040518363ffffffff1660e01b815260040180838152602001807f73706f740000000000000000000000000000000000000000000000000000000081525060200182815260200192505050600060405180830381600087803b15801561078557600080fd5b505af1158015610799573d6000803e3d6000fd5b505050507fdfd7467e425a8107cfd368d159957692c25085aacbcf5228ce08f10f2146486e84848360405180848152602001838152602001828152602001935050505060405180910390a150505050565b60016000803373ffffffffffffffffffffffffffffffffffffffff1673ffffffffffffffffffffffffffffffffffffffff168152602001908152602001600020541461089e576040517f08c379a00000000000000000000000000000000000000000000000000000000081526004018080602001828103825260168152602001807f53706f747465722f6e6f742d617574686f72697a65640000000000000000000081525060200191505060405180910390fd5b600160045414610916576040517f08c379a00000000000000000000000000000000000000000000000000000000081526004018080602001828103825260108152602001807f53706f747465722f6e6f742d6c6976650000000000000000000000000000000081525060200191505060405180910390fd5b7f6d6174000000000000000000000000000000000000000000000000000000000082141561095e578060016000858152602001908152602001600020600101819055506109cc565b6040517f08c379a000000000000000000000000000000000000000000000000000000000815260040180806020018281038252601f8152602001807f53706f747465722f66696c652d756e7265636f676e697a65642d706172616d0081525060200191505060405180910390fd5b505050565b600260009054906101000a900473ffffffffffffffffffffffffffffffffffffffff1681565b60035481565b60016000803373ffffffffffffffffffffffffffffffffffffffff1673ffffffffffffffffffffffffffffffffffffffff1681526020019081526020016000205414610ab1576040517f08c379a00000000000000000000000000000000000000000000000000000000081526004018080602001828103825260168152602001807f53706f747465722f6e6f742d617574686f72697a65640000000000000000000081525060200191505060405180910390fd5b60016000808373ffffffffffffffffffffffffffffffffffffffff1673ffffffffffffffffffffffffffffffffffffffff1681526020019081526020016000208190555050565b60016000803373ffffffffffffffffffffffffffffffffffffffff1673ffffffffffffffffffffffffffffffffffffffff1681526020019081526020016000205414610bac576040517f08c379a00000000000000000000000000000000000000000000000000000000081526004018080602001828103825260168152602001807f53706f747465722f6e6f742d617574686f72697a65640000000000000000000081525060200191505060405180910390fd5b6000600481905550565b60016000803373ffffffffffffffffffffffffffffffffffffffff1673ffffffffffffffffffffffffffffffffffffffff1681526020019081526020016000205414610c6a576040517f08c379a00000000000000000000000000000000000000000000000000000000081526004018080602001828103825260168152602001807f53706f747465722f6e6f742d617574686f72697a65640000000000000000000081525060200191505060405180910390fd5b600160045414610ce2576040517f08c379a00000000000000000000000000000000000000000000000000000000081526004018080602001828103825260108152602001807f53706f747465722f6e6f742d6c6976650000000000000000000000000000000081525060200191505060405180910390fd5b7f7061720000000000000000000000000000000000000000000000000000000000821415610d165780600381905550610d84565b6040517f08c379a000000000000000000000000000000000000000000000000000000000815260040180806020018281038252601f8152602001807f53706f747465722f66696c652d756e7265636f676e697a65642d706172616d0081525060200191505060405180910390fd5b5050565b60045481565b60016000803373ffffffffffffffffffffffffffffffffffffffff1673ffffffffffffffffffffffffffffffffffffffff1681526020019081526020016000205414610e42576040517f08c379a00000000000000000000000000000000000000000000000000000000081526004018080602001828103825260168152602001807f53706f747465722f6e6f742d617574686f72697a65640000000000000000000081525060200191505060405180910390fd5b60008060008373ffffffffffffffffffffffffffffffffffffffff1673ffffffffffffffffffffffffffffffffffffffff1681526020019081526020016000208190555050565b60006020528060005260406000206000915090505481565b60006060829050600081511415610ebe576000801b915050610ec7565b60208301519150505b919050565b60016020528060005260406000206000915090508060000160009054906101000a900473ffffffffffffffffffffffffffffffffffffffff16908060010154905082565b60016000803373ffffffffffffffffffffffffffffffffffffffff1673ffffffffffffffffffffffffffffffffffffffff1681526020019081526020016000205414610fc4576040517f08c379a00000000000000000000000000000000000000000000000000000000081526004018080602001828103825260168152602001807f53706f747465722f6e6f742d617574686f72697a65640000000000000000000081525060200191505060405180910390fd5b60016004541461103c576040517f08c379a00000000000000000000000000000000000000000000000000000000081526004018080602001828103825260108152602001807f53706f747465722f6e6f742d6c6976650000000000000000000000000000000081525060200191505060405180910390fd5b7f70697000000000000000000000000000000000000000000000000000000000008214156110be57806001600085815260200190815260200160002060000160006101000a81548173ffffffffffffffffffffffffffffffffffffffff021916908373ffffffffffffffffffffffffffffffffffffffff16021790555061112c565b6040517f08c379a000000000000000000000000000000000000000000000000000000000815260040180806020018281038252601f8152602001807f53706f747465722f66696c652d756e7265636f676e697a65642d706172616d0081525060200191505060405180910390fd5b505050565b611236828260405160240180806020018315158152602001828103825284818151815260200191508051906020019080838360005b83811015611181578082015181840152602081019050611166565b50505050905090810190601f1680156111ae5780820380516001836020036101000a031916815260200191505b5093505050506040516020818303038152906040527fc3b55635000000000000000000000000000000000000000000000000000000007bffffffffffffffffffffffffffffffffffffffffffffffffffffffff19166020820180517bffffffffffffffffffffffffffffffffffffffffffffffffffffffff838183161783525050505061142f565b5050565b61133d82826040516024018080602001838152602001828103825284818151815260200191508051906020019080838360005b8381101561128857808201518184015260208101905061126d565b50505050905090810190601f1680156112b55780820380516001836020036101000a031916815260200191505b5093505050506040516020818303038152906040527fb60e72cc000000000000000000000000000000000000000000000000000000007bffffffffffffffffffffffffffffffffffffffffffffffffffffffff19166020820180517bffffffffffffffffffffffffffffffffffffffffffffffffffffffff838183161783525050505061142f565b5050565b60008082148061135e575082828385029250828161135b57fe5b04145b61136757600080fd5b92915050565b61140381604051602401808281526020019150506040516020818303038152906040527ff82c50f1000000000000000000000000000000000000000000000000000000007bffffffffffffffffffffffffffffffffffffffffffffffffffffffff19166020820180517bffffffffffffffffffffffffffffffffffffffffffffffffffffffff838183161783525050505061142f565b50565b60008161141f846b033b2e3c9fd0803ce8000000611341565b8161142657fe5b04905092915050565b60008151905060006a636f6e736f6c652e6c6f679050602083016000808483855afa505050505056fea2646970667358221220b8b7605bde8d9d0d1e98309bdd5123632999c99452923b5bfdb4185b3787141f64736f6c634300060c0033",
  "linkReferences": {},
  "deployedLinkReferences": {}
}