{
  "_format": "hh-sol-artifact-1",
  "contractName": "OSM",
  "sourceName": "contracts/dai/oracle-module/osm.sol",
  "abi": [
    {
      "inputs": [
        {
          "internalType": "address",
          "name": "src_",
          "type": "address"
        }
      ],
      "stateMutability": "nonpayable",
      "type": "constructor"
    },
    {
      "anonymous": true,
      "inputs": [
        {
          "indexed": true,
          "internalType": "bytes4",
          "name": "sig",
          "type": "bytes4"
        },
        {
          "indexed": true,
          "internalType": "address",
          "name": "usr",
          "type": "address"
        },
        {
          "indexed": true,
          "internalType": "bytes32",
          "name": "arg1",
          "type": "bytes32"
        },
        {
          "indexed": true,
          "internalType": "bytes32",
          "name": "arg2",
          "type": "bytes32"
        },
        {
          "indexed": false,
          "internalType": "bytes",
          "name": "data",
          "type": "bytes"
        }
      ],
      "name": "LogNote",
      "type": "event"
    },
    {
      "anonymous": false,
      "inputs": [
        {
          "indexed": false,
          "internalType": "bytes32",
          "name": "val",
          "type": "bytes32"
        }
      ],
      "name": "LogValue",
      "type": "event"
    },
    {
      "inputs": [
        {
          "internalType": "address",
          "name": "",
          "type": "address"
        }
      ],
      "name": "bud",
      "outputs": [
        {
          "internalType": "uint256",
          "name": "",
          "type": "uint256"
        }
      ],
      "stateMutability": "view",
      "type": "function"
    },
    {
      "inputs": [
        {
          "internalType": "address",
          "name": "src_",
          "type": "address"
        }
      ],
      "name": "change",
      "outputs": [],
      "stateMutability": "nonpayable",
      "type": "function"
    },
    {
      "inputs": [
        {
          "internalType": "address",
          "name": "usr",
          "type": "address"
        }
      ],
      "name": "deny",
      "outputs": [],
      "stateMutability": "nonpayable",
      "type": "function"
    },
    {
      "inputs": [
        {
          "internalType": "address[]",
          "name": "a",
          "type": "address[]"
        }
      ],
      "name": "diss",
      "outputs": [],
      "stateMutability": "nonpayable",
      "type": "function"
    },
    {
      "inputs": [
        {
          "internalType": "address",
          "name": "a",
          "type": "address"
        }
      ],
      "name": "diss",
      "outputs": [],
      "stateMutability": "nonpayable",
      "type": "function"
    },
    {
      "inputs": [],
      "name": "hop",
      "outputs": [
        {
          "internalType": "uint16",
          "name": "",
          "type": "uint16"
        }
      ],
      "stateMutability": "view",
      "type": "function"
    },
    {
      "inputs": [
        {
          "internalType": "address",
          "name": "a",
          "type": "address"
        }
      ],
      "name": "kiss",
      "outputs": [],
      "stateMutability": "nonpayable",
      "type": "function"
    },
    {
      "inputs": [
        {
          "internalType": "address[]",
          "name": "a",
          "type": "address[]"
        }
      ],
      "name": "kisses",
      "outputs": [],
      "stateMutability": "nonpayable",
      "type": "function"
    },
    {
      "inputs": [],
      "name": "pass",
      "outputs": [
        {
          "internalType": "bool",
          "name": "ok",
          "type": "bool"
        }
      ],
      "stateMutability": "view",
      "type": "function"
    },
    {
      "inputs": [],
      "name": "peek",
      "outputs": [
        {
          "internalType": "bytes32",
          "name": "",
          "type": "bytes32"
        },
        {
          "internalType": "bool",
          "name": "",
          "type": "bool"
        }
      ],
      "stateMutability": "view",
      "type": "function"
    },
    {
      "inputs": [],
      "name": "peep",
      "outputs": [
        {
          "internalType": "bytes32",
          "name": "",
          "type": "bytes32"
        },
        {
          "internalType": "bool",
          "name": "",
          "type": "bool"
        }
      ],
      "stateMutability": "view",
      "type": "function"
    },
    {
      "inputs": [],
      "name": "poke",
      "outputs": [],
      "stateMutability": "nonpayable",
      "type": "function"
    },
    {
      "inputs": [],
      "name": "read",
      "outputs": [
        {
          "internalType": "bytes32",
          "name": "",
          "type": "bytes32"
        }
      ],
      "stateMutability": "view",
      "type": "function"
    },
    {
      "inputs": [
        {
          "internalType": "address",
          "name": "usr",
          "type": "address"
        }
      ],
      "name": "rely",
      "outputs": [],
      "stateMutability": "nonpayable",
      "type": "function"
    },
    {
      "inputs": [],
      "name": "src",
      "outputs": [
        {
          "internalType": "address",
          "name": "",
          "type": "address"
        }
      ],
      "stateMutability": "view",
      "type": "function"
    },
    {
      "inputs": [],
      "name": "start",
      "outputs": [],
      "stateMutability": "nonpayable",
      "type": "function"
    },
    {
      "inputs": [
        {
          "internalType": "uint16",
          "name": "ts",
          "type": "uint16"
        }
      ],
      "name": "step",
      "outputs": [],
      "stateMutability": "nonpayable",
      "type": "function"
    },
    {
      "inputs": [],
      "name": "stop",
      "outputs": [],
      "stateMutability": "nonpayable",
      "type": "function"
    },
    {
      "inputs": [],
      "name": "stopped",
      "outputs": [
        {
          "internalType": "uint256",
          "name": "",
          "type": "uint256"
        }
      ],
      "stateMutability": "view",
      "type": "function"
    },
    {
      "inputs": [],
      "name": "void",
      "outputs": [],
      "stateMutability": "nonpayable",
      "type": "function"
    },
    {
      "inputs": [
        {
          "internalType": "address",
          "name": "",
          "type": "address"
        }
      ],
      "name": "wards",
      "outputs": [
        {
          "internalType": "uint256",
          "name": "",
          "type": "uint256"
        }
      ],
      "stateMutability": "view",
      "type": "function"
    },
    {
      "inputs": [],
      "name": "zzz",
      "outputs": [
        {
          "internalType": "uint64",
          "name": "",
          "type": "uint64"
        }
      ],
      "stateMutability": "view",
      "type": "function"
    }
  ],
  "bytecode": "0x60806040526001600260146101000a81548161ffff021916908361ffff1602179055503480156200002f57600080fd5b50604051620027653803806200276583398181016040528101906200005591906200014b565b60016000803373ffffffffffffffffffffffffffffffffffffffff1673ffffffffffffffffffffffffffffffffffffffff1681526020019081526020016000208190555080600260006101000a81548173ffffffffffffffffffffffffffffffffffffffff021916908373ffffffffffffffffffffffffffffffffffffffff160217905550506200017d565b600080fd5b600073ffffffffffffffffffffffffffffffffffffffff82169050919050565b60006200011382620000e6565b9050919050565b620001258162000106565b81146200013157600080fd5b50565b60008151905062000145816200011a565b92915050565b600060208284031215620001645762000163620000e1565b5b6000620001748482850162000134565b91505092915050565b6125d8806200018d6000396000f3fe608060405234801561001057600080fd5b50600436106101425760003560e01c806365fae35e116100b8578063ac4c25b21161007c578063ac4c25b214610307578063b0b8579b14610311578063be9a65551461032f578063bf353dbb14610339578063e38e2cfb14610369578063f29c29c41461038557610142565b806365fae35e1461027557806375f12b21146102915780639c52a7f1146102af578063a4dff0a2146102cb578063a7a1ed72146102e957610142565b80632e7dc6af1161010a5780632e7dc6af146101b257806346d4577d146101d05780634fce7a2a146101ec57806357de26a41461021c57806359e02dd71461023a57806365c4ce7a1461025957610142565b806307da68f5146101475780630e5a6c701461015157806318178358146101705780631af30dca1461017a5780631e77933e14610196575b600080fd5b61014f6103a1565b005b61015961045e565b604051610167929190611c71565b60405180910390f35b610178610559565b005b610194600480360381019061018f9190611d09565b61098a565b005b6101b060048036038101906101ab9190611db4565b610b66565b005b6101ba610c5e565b6040516101c79190611df0565b60405180910390f35b6101ea60048036038101906101e59190611d09565b610c84565b005b61020660048036038101906102019190611db4565b610dca565b6040516102139190611e24565b60405180910390f35b610224610de2565b6040516102319190611e3f565b60405180910390f35b610242610f18565b604051610250929190611c71565b60405180910390f35b610273600480360381019061026e9190611db4565b611085565b005b61028f600480360381019061028a9190611db4565b611181565b005b61029961127c565b6040516102a69190611e24565b60405180910390f35b6102c960048036038101906102c49190611db4565b611282565b005b6102d361137d565b6040516102e09190611e7d565b60405180910390f35b6102f1611397565b6040516102fe9190611e98565b60405180910390f35b61030f6114a1565b005b6103196116d6565b6040516103269190611ed0565b60405180910390f35b6103376116ea565b005b610353600480360381019061034e9190611db4565b6117a8565b6040516103609190611e24565b60405180910390f35b610383600480360381019061037e9190611f17565b6117c0565b005b61039f600480360381019061039a9190611db4565b6118a8565b005b60016000803373ffffffffffffffffffffffffffffffffffffffff1673ffffffffffffffffffffffffffffffffffffffff1681526020019081526020016000205414610422576040517f08c379a000000000000000000000000000000000000000000000000000000000815260040161041990611fa1565b60405180910390fd5b600180819055505961012081016040526020815260e0602082015260e0600060408301376024356004353360003560e01c60e01b61012085a450565b6000806001600560003373ffffffffffffffffffffffffffffffffffffffff1673ffffffffffffffffffffffffffffffffffffffff16815260200190815260200160002054146104e3576040517f08c379a00000000000000000000000000000000000000000000000000000000081526004016104da9061200d565b60405180910390fd5b600460000160009054906101000a90046fffffffffffffffffffffffffffffffff166fffffffffffffffffffffffffffffffff1660001b6001600460000160109054906101000a90046fffffffffffffffffffffffffffffffff166fffffffffffffffffffffffffffffffff1614915091509091565b60006001541461059e576040517f08c379a000000000000000000000000000000000000000000000000000000000815260040161059590612079565b60405180910390fd5b6105a6611397565b6105e5576040517f08c379a00000000000000000000000000000000000000000000000000000000081526004016105dc906120e5565b60405180910390fd5b600080600260009054906101000a900473ffffffffffffffffffffffffffffffffffffffff1673ffffffffffffffffffffffffffffffffffffffff166359e02dd76040518163ffffffff1660e01b81526004016040805180830381865afa158015610654573d6000803e3d6000fd5b505050506040513d601f19601f82011682018060405250810190610678919061215d565b915091506106bb6040518060400160405280600281526020017f6f6b00000000000000000000000000000000000000000000000000000000000081525082611a13565b801561095357600460036000820160009054906101000a90046fffffffffffffffffffffffffffffffff168160000160006101000a8154816fffffffffffffffffffffffffffffffff02191690836fffffffffffffffffffffffffffffffff1602179055506000820160109054906101000a90046fffffffffffffffffffffffffffffffff168160000160106101000a8154816fffffffffffffffffffffffffffffffff02191690836fffffffffffffffffffffffffffffffff1602179055509050506040518060400160405280836fffffffffffffffffffffffffffffffff16815260200160016fffffffffffffffffffffffffffffffff16815250600460008201518160000160006101000a8154816fffffffffffffffffffffffffffffffff02191690836fffffffffffffffffffffffffffffffff16021790555060208201518160000160106101000a8154816fffffffffffffffffffffffffffffffff02191690836fffffffffffffffffffffffffffffffff16021790555090505061084b610846611aaf565b611ab7565b600260166101000a81548167ffffffffffffffff021916908367ffffffffffffffff1602179055506108e56040518060400160405280600781526020017f6375722e76616c00000000000000000000000000000000000000000000000000815250600360000160009054906101000a90046fffffffffffffffffffffffffffffffff166fffffffffffffffffffffffffffffffff16611b41565b7f296ba4ca62c6c21c95e828080cb8aec7481b71390585605300a8a76f9e95b527600360000160009054906101000a90046fffffffffffffffffffffffffffffffff166fffffffffffffffffffffffffffffffff1660001b60405161094a9190611e3f565b60405180910390a15b50505961012081016040526020815260e0602082015260e0600060408301376024356004353360003560e01c60e01b61012085a450565b60016000803373ffffffffffffffffffffffffffffffffffffffff1673ffffffffffffffffffffffffffffffffffffffff1681526020019081526020016000205414610a0b576040517f08c379a0000000000000000000000000000000000000000000000000000000008152600401610a0290611fa1565b60405180910390fd5b60005b82829050811015610b2e57600073ffffffffffffffffffffffffffffffffffffffff16838383818110610a4457610a4361219d565b5b9050602002016020810190610a599190611db4565b73ffffffffffffffffffffffffffffffffffffffff1603610aaf576040517f08c379a0000000000000000000000000000000000000000000000000000000008152600401610aa690612218565b60405180910390fd5b600160056000858585818110610ac857610ac761219d565b5b9050602002016020810190610add9190611db4565b73ffffffffffffffffffffffffffffffffffffffff1673ffffffffffffffffffffffffffffffffffffffff168152602001908152602001600020819055508080610b2690612267565b915050610a0e565b505961012081016040526020815260e0602082015260e0600060408301376024356004353360003560e01c60e01b61012085a4505050565b60016000803373ffffffffffffffffffffffffffffffffffffffff1673ffffffffffffffffffffffffffffffffffffffff1681526020019081526020016000205414610be7576040517f08c379a0000000000000000000000000000000000000000000000000000000008152600401610bde90611fa1565b60405180910390fd5b80600260006101000a81548173ffffffffffffffffffffffffffffffffffffffff021916908373ffffffffffffffffffffffffffffffffffffffff1602179055505961012081016040526020815260e0602082015260e0600060408301376024356004353360003560e01c60e01b61012085a45050565b600260009054906101000a900473ffffffffffffffffffffffffffffffffffffffff1681565b60016000803373ffffffffffffffffffffffffffffffffffffffff1673ffffffffffffffffffffffffffffffffffffffff1681526020019081526020016000205414610d05576040517f08c379a0000000000000000000000000000000000000000000000000000000008152600401610cfc90611fa1565b60405180910390fd5b60005b82829050811015610d9257600060056000858585818110610d2c57610d2b61219d565b5b9050602002016020810190610d419190611db4565b73ffffffffffffffffffffffffffffffffffffffff1673ffffffffffffffffffffffffffffffffffffffff168152602001908152602001600020819055508080610d8a90612267565b915050610d08565b505961012081016040526020815260e0602082015260e0600060408301376024356004353360003560e01c60e01b61012085a4505050565b60056020528060005260406000206000915090505481565b60006001600560003373ffffffffffffffffffffffffffffffffffffffff1673ffffffffffffffffffffffffffffffffffffffff1681526020019081526020016000205414610e66576040517f08c379a0000000000000000000000000000000000000000000000000000000008152600401610e5d9061200d565b60405180910390fd5b6001600360000160109054906101000a90046fffffffffffffffffffffffffffffffff166fffffffffffffffffffffffffffffffff1614610edc576040517f08c379a0000000000000000000000000000000000000000000000000000000008152600401610ed3906122fb565b60405180910390fd5b600360000160009054906101000a90046fffffffffffffffffffffffffffffffff166fffffffffffffffffffffffffffffffff1660001b905090565b6000806001600560003373ffffffffffffffffffffffffffffffffffffffff1673ffffffffffffffffffffffffffffffffffffffff1681526020019081526020016000205414610f9d576040517f08c379a0000000000000000000000000000000000000000000000000000000008152600401610f949061200d565b60405180910390fd5b61100f6040518060400160405280600781526020017f6375722e68617300000000000000000000000000000000000000000000000000815250600360000160109054906101000a90046fffffffffffffffffffffffffffffffff166fffffffffffffffffffffffffffffffff16611b41565b600360000160009054906101000a90046fffffffffffffffffffffffffffffffff166fffffffffffffffffffffffffffffffff1660001b6001600360000160109054906101000a90046fffffffffffffffffffffffffffffffff166fffffffffffffffffffffffffffffffff1614915091509091565b60016000803373ffffffffffffffffffffffffffffffffffffffff1673ffffffffffffffffffffffffffffffffffffffff1681526020019081526020016000205414611106576040517f08c379a00000000000000000000000000000000000000000000000000000000081526004016110fd90611fa1565b60405180910390fd5b6000600560008373ffffffffffffffffffffffffffffffffffffffff1673ffffffffffffffffffffffffffffffffffffffff168152602001908152602001600020819055505961012081016040526020815260e0602082015260e0600060408301376024356004353360003560e01c60e01b61012085a45050565b60016000803373ffffffffffffffffffffffffffffffffffffffff1673ffffffffffffffffffffffffffffffffffffffff1681526020019081526020016000205414611202576040517f08c379a00000000000000000000000000000000000000000000000000000000081526004016111f990611fa1565b60405180910390fd5b60016000808373ffffffffffffffffffffffffffffffffffffffff1673ffffffffffffffffffffffffffffffffffffffff168152602001908152602001600020819055505961012081016040526020815260e0602082015260e0600060408301376024356004353360003560e01c60e01b61012085a45050565b60015481565b60016000803373ffffffffffffffffffffffffffffffffffffffff1673ffffffffffffffffffffffffffffffffffffffff1681526020019081526020016000205414611303576040517f08c379a00000000000000000000000000000000000000000000000000000000081526004016112fa90611fa1565b60405180910390fd5b60008060008373ffffffffffffffffffffffffffffffffffffffff1673ffffffffffffffffffffffffffffffffffffffff168152602001908152602001600020819055505961012081016040526020815260e0602082015260e0600060408301376024356004353360003560e01c60e01b61012085a45050565b600260169054906101000a900467ffffffffffffffff1681565b60006113d86040518060400160405280600f81526020017f626c6f636b2074696d657374616d70000000000000000000000000000000000081525042611b41565b6114546040518060400160405280600781526020017f7a7a7a2b686f7000000000000000000000000000000000000000000000000000815250611445600260169054906101000a900467ffffffffffffffff16600260149054906101000a900461ffff1661ffff16611bdd565b67ffffffffffffffff16611b41565b611488600260169054906101000a900467ffffffffffffffff16600260149054906101000a900461ffff1661ffff16611bdd565b67ffffffffffffffff1661149a611aaf565b1015905090565b60016000803373ffffffffffffffffffffffffffffffffffffffff1673ffffffffffffffffffffffffffffffffffffffff1681526020019081526020016000205414611522576040517f08c379a000000000000000000000000000000000000000000000000000000000815260040161151990611fa1565b60405180910390fd5b604051806040016040528060006fffffffffffffffffffffffffffffffff16815260200160006fffffffffffffffffffffffffffffffff16815250600460008201518160000160006101000a8154816fffffffffffffffffffffffffffffffff02191690836fffffffffffffffffffffffffffffffff16021790555060208201518160000160106101000a8154816fffffffffffffffffffffffffffffffff02191690836fffffffffffffffffffffffffffffffff160217905550905060036000820160009054906101000a90046fffffffffffffffffffffffffffffffff168160000160006101000a8154816fffffffffffffffffffffffffffffffff02191690836fffffffffffffffffffffffffffffffff1602179055506000820160109054906101000a90046fffffffffffffffffffffffffffffffff168160000160106101000a8154816fffffffffffffffffffffffffffffffff02191690836fffffffffffffffffffffffffffffffff160217905550905050600180819055505961012081016040526020815260e0602082015260e0600060408301376024356004353360003560e01c60e01b61012085a450565b600260149054906101000a900461ffff1681565b60016000803373ffffffffffffffffffffffffffffffffffffffff1673ffffffffffffffffffffffffffffffffffffffff168152602001908152602001600020541461176b576040517f08c379a000000000000000000000000000000000000000000000000000000000815260040161176290611fa1565b60405180910390fd5b60006001819055505961012081016040526020815260e0602082015260e0600060408301376024356004353360003560e01c60e01b61012085a450565b60006020528060005260406000206000915090505481565b60016000803373ffffffffffffffffffffffffffffffffffffffff1673ffffffffffffffffffffffffffffffffffffffff1681526020019081526020016000205414611841576040517f08c379a000000000000000000000000000000000000000000000000000000000815260040161183890611fa1565b60405180910390fd5b60008161ffff1611611888576040517f08c379a000000000000000000000000000000000000000000000000000000000815260040161187f90612367565b60405180910390fd5b80600260146101000a81548161ffff021916908361ffff16021790555050565b60016000803373ffffffffffffffffffffffffffffffffffffffff1673ffffffffffffffffffffffffffffffffffffffff1681526020019081526020016000205414611929576040517f08c379a000000000000000000000000000000000000000000000000000000000815260040161192090611fa1565b60405180910390fd5b600073ffffffffffffffffffffffffffffffffffffffff168173ffffffffffffffffffffffffffffffffffffffff1603611998576040517f08c379a000000000000000000000000000000000000000000000000000000000815260040161198f90612218565b60405180910390fd5b6001600560008373ffffffffffffffffffffffffffffffffffffffff1673ffffffffffffffffffffffffffffffffffffffff168152602001908152602001600020819055505961012081016040526020815260e0602082015260e0600060408301376024356004353360003560e01c60e01b61012085a45050565b611aab8282604051602401611a29929190612406565b6040516020818303038152906040527fc3b55635000000000000000000000000000000000000000000000000000000007bffffffffffffffffffffffffffffffffffffffffffffffffffffffff19166020820180517bffffffffffffffffffffffffffffffffffffffffffffffffffffffff8381831617835250505050611c14565b5050565b600042905090565b600080600260149054906101000a900461ffff1661ffff1603611b0f576040517f08c379a0000000000000000000000000000000000000000000000000000000008152600401611b0690612482565b60405180910390fd5b600260149054906101000a900461ffff1661ffff1682611b2f91906124d1565b82611b3a9190612502565b9050919050565b611bd98282604051602401611b57929190612536565b6040516020818303038152906040527fb60e72cc000000000000000000000000000000000000000000000000000000007bffffffffffffffffffffffffffffffffffffffffffffffffffffffff19166020820180517bffffffffffffffffffffffffffffffffffffffffffffffffffffffff8381831617835250505050611c14565b5050565b60008183611beb9190612566565b90508267ffffffffffffffff168167ffffffffffffffff161015611c0e57600080fd5b92915050565b60008151905060006a636f6e736f6c652e6c6f679050602083016000808483855afa5050505050565b6000819050919050565b611c5081611c3d565b82525050565b60008115159050919050565b611c6b81611c56565b82525050565b6000604082019050611c866000830185611c47565b611c936020830184611c62565b9392505050565b600080fd5b600080fd5b600080fd5b600080fd5b600080fd5b60008083601f840112611cc957611cc8611ca4565b5b8235905067ffffffffffffffff811115611ce657611ce5611ca9565b5b602083019150836020820283011115611d0257611d01611cae565b5b9250929050565b60008060208385031215611d2057611d1f611c9a565b5b600083013567ffffffffffffffff811115611d3e57611d3d611c9f565b5b611d4a85828601611cb3565b92509250509250929050565b600073ffffffffffffffffffffffffffffffffffffffff82169050919050565b6000611d8182611d56565b9050919050565b611d9181611d76565b8114611d9c57600080fd5b50565b600081359050611dae81611d88565b92915050565b600060208284031215611dca57611dc9611c9a565b5b6000611dd884828501611d9f565b91505092915050565b611dea81611d76565b82525050565b6000602082019050611e056000830184611de1565b92915050565b6000819050919050565b611e1e81611e0b565b82525050565b6000602082019050611e396000830184611e15565b92915050565b6000602082019050611e546000830184611c47565b92915050565b600067ffffffffffffffff82169050919050565b611e7781611e5a565b82525050565b6000602082019050611e926000830184611e6e565b92915050565b6000602082019050611ead6000830184611c62565b92915050565b600061ffff82169050919050565b611eca81611eb3565b82525050565b6000602082019050611ee56000830184611ec1565b92915050565b611ef481611eb3565b8114611eff57600080fd5b50565b600081359050611f1181611eeb565b92915050565b600060208284031215611f2d57611f2c611c9a565b5b6000611f3b84828501611f02565b91505092915050565b600082825260208201905092915050565b7f4f534d2f6e6f742d617574686f72697a65640000000000000000000000000000600082015250565b6000611f8b601283611f44565b9150611f9682611f55565b602082019050919050565b60006020820190508181036000830152611fba81611f7e565b9050919050565b7f4f534d2f636f6e74726163742d6e6f742d77686974656c697374656400000000600082015250565b6000611ff7601c83611f44565b915061200282611fc1565b602082019050919050565b6000602082019050818103600083015261202681611fea565b9050919050565b7f4f534d2f69732d73746f70706564000000000000000000000000000000000000600082015250565b6000612063600e83611f44565b915061206e8261202d565b602082019050919050565b6000602082019050818103600083015261209281612056565b9050919050565b7f4f534d2f6e6f742d706173736564000000000000000000000000000000000000600082015250565b60006120cf600e83611f44565b91506120da82612099565b602082019050919050565b600060208201905081810360008301526120fe816120c2565b9050919050565b61210e81611e0b565b811461211957600080fd5b50565b60008151905061212b81612105565b92915050565b61213a81611c56565b811461214557600080fd5b50565b60008151905061215781612131565b92915050565b6000806040838503121561217457612173611c9a565b5b60006121828582860161211c565b925050602061219385828601612148565b9150509250929050565b7f4e487b7100000000000000000000000000000000000000000000000000000000600052603260045260246000fd5b7f4f534d2f6e6f2d636f6e74726163742d30000000000000000000000000000000600082015250565b6000612202601183611f44565b915061220d826121cc565b602082019050919050565b60006020820190508181036000830152612231816121f5565b9050919050565b7f4e487b7100000000000000000000000000000000000000000000000000000000600052601160045260246000fd5b600061227282611e0b565b91507fffffffffffffffffffffffffffffffffffffffffffffffffffffffffffffffff82036122a4576122a3612238565b5b600182019050919050565b7f4f534d2f6e6f2d63757272656e742d76616c7565000000000000000000000000600082015250565b60006122e5601483611f44565b91506122f0826122af565b602082019050919050565b60006020820190508181036000830152612314816122d8565b9050919050565b7f4f534d2f74732d69732d7a65726f000000000000000000000000000000000000600082015250565b6000612351600e83611f44565b915061235c8261231b565b602082019050919050565b6000602082019050818103600083015261238081612344565b9050919050565b600081519050919050565b60005b838110156123b0578082015181840152602081019050612395565b60008484015250505050565b6000601f19601f8301169050919050565b60006123d882612387565b6123e28185611f44565b93506123f2818560208601612392565b6123fb816123bc565b840191505092915050565b6000604082019050818103600083015261242081856123cd565b905061242f6020830184611c62565b9392505050565b7f4f534d2f686f702d69732d7a65726f0000000000000000000000000000000000600082015250565b600061246c600f83611f44565b915061247782612436565b602082019050919050565b6000602082019050818103600083015261249b8161245f565b9050919050565b7f4e487b7100000000000000000000000000000000000000000000000000000000600052601260045260246000fd5b60006124dc82611e0b565b91506124e783611e0b565b9250826124f7576124f66124a2565b5b828206905092915050565b600061250d82611e0b565b915061251883611e0b565b92508282039050818111156125305761252f612238565b5b92915050565b6000604082019050818103600083015261255081856123cd565b905061255f6020830184611e15565b9392505050565b600061257182611e5a565b915061257c83611e5a565b9250828201905067ffffffffffffffff81111561259c5761259b612238565b5b9291505056fea264697066735822122044fd7e6942c7ff983d9644253862314e604367c2e0f00243c1026780d40fed4464736f6c63430008110033",
  "linkReferences": {},
  "deployedLinkReferences": {}
}