{
  "_format": "hh-sol-artifact-1",
  "contractName": "Vat",
  "sourceName": "contracts/dai/liquidation-auction-module/vat.sol",
  "abi": [
    {
      "inputs": [],
      "stateMutability": "nonpayable",
      "type": "constructor"
    },
    {
      "inputs": [],
      "name": "Line",
      "outputs": [
        {
          "internalType": "uint256",
          "name": "",
          "type": "uint256"
        }
      ],
      "stateMutability": "view",
      "type": "function"
    },
    {
      "inputs": [],
      "name": "cage",
      "outputs": [],
      "stateMutability": "nonpayable",
      "type": "function"
    },
    {
      "inputs": [
        {
          "internalType": "address",
          "name": "",
          "type": "address"
        },
        {
          "internalType": "address",
          "name": "",
          "type": "address"
        }
      ],
      "name": "can",
      "outputs": [
        {
          "internalType": "uint256",
          "name": "",
          "type": "uint256"
        }
      ],
      "stateMutability": "view",
      "type": "function"
    },
    {
      "inputs": [
        {
          "internalType": "address",
          "name": "",
          "type": "address"
        }
      ],
      "name": "dai",
      "outputs": [
        {
          "internalType": "uint256",
          "name": "",
          "type": "uint256"
        }
      ],
      "stateMutability": "view",
      "type": "function"
    },
    {
      "inputs": [],
      "name": "debt",
      "outputs": [
        {
          "internalType": "uint256",
          "name": "",
          "type": "uint256"
        }
      ],
      "stateMutability": "view",
      "type": "function"
    },
    {
      "inputs": [
        {
          "internalType": "address",
          "name": "usr",
          "type": "address"
        }
      ],
      "name": "deny",
      "outputs": [],
      "stateMutability": "nonpayable",
      "type": "function"
    },
    {
      "inputs": [
        {
          "internalType": "bytes32",
          "name": "ilk",
          "type": "bytes32"
        },
        {
          "internalType": "bytes32",
          "name": "what",
          "type": "bytes32"
        },
        {
          "internalType": "uint256",
          "name": "data",
          "type": "uint256"
        }
      ],
      "name": "file",
      "outputs": [],
      "stateMutability": "nonpayable",
      "type": "function"
    },
    {
      "inputs": [
        {
          "internalType": "bytes32",
          "name": "what",
          "type": "bytes32"
        },
        {
          "internalType": "uint256",
          "name": "data",
          "type": "uint256"
        }
      ],
      "name": "file_Line",
      "outputs": [],
      "stateMutability": "nonpayable",
      "type": "function"
    },
    {
      "inputs": [
        {
          "internalType": "bytes32",
          "name": "ilk",
          "type": "bytes32"
        },
        {
          "internalType": "address",
          "name": "src",
          "type": "address"
        },
        {
          "internalType": "address",
          "name": "dst",
          "type": "address"
        },
        {
          "internalType": "uint256",
          "name": "wad",
          "type": "uint256"
        }
      ],
      "name": "flux",
      "outputs": [],
      "stateMutability": "nonpayable",
      "type": "function"
    },
    {
      "inputs": [
        {
          "internalType": "bytes32",
          "name": "i",
          "type": "bytes32"
        },
        {
          "internalType": "address",
          "name": "u",
          "type": "address"
        },
        {
          "internalType": "int256",
          "name": "rate",
          "type": "int256"
        }
      ],
      "name": "fold",
      "outputs": [],
      "stateMutability": "nonpayable",
      "type": "function"
    },
    {
      "inputs": [
        {
          "internalType": "bytes32",
          "name": "ilk",
          "type": "bytes32"
        },
        {
          "internalType": "address",
          "name": "src",
          "type": "address"
        },
        {
          "internalType": "address",
          "name": "dst",
          "type": "address"
        },
        {
          "internalType": "int256",
          "name": "dink",
          "type": "int256"
        },
        {
          "internalType": "int256",
          "name": "dart",
          "type": "int256"
        }
      ],
      "name": "fork",
      "outputs": [],
      "stateMutability": "nonpayable",
      "type": "function"
    },
    {
      "inputs": [
        {
          "internalType": "bytes32",
          "name": "i",
          "type": "bytes32"
        },
        {
          "internalType": "address",
          "name": "u",
          "type": "address"
        },
        {
          "internalType": "address",
          "name": "v",
          "type": "address"
        },
        {
          "internalType": "address",
          "name": "w",
          "type": "address"
        },
        {
          "internalType": "int256",
          "name": "dink",
          "type": "int256"
        },
        {
          "internalType": "int256",
          "name": "dart",
          "type": "int256"
        }
      ],
      "name": "frob",
      "outputs": [],
      "stateMutability": "nonpayable",
      "type": "function"
    },
    {
      "inputs": [
        {
          "internalType": "bytes32",
          "name": "",
          "type": "bytes32"
        },
        {
          "internalType": "address",
          "name": "",
          "type": "address"
        }
      ],
      "name": "gem",
      "outputs": [
        {
          "internalType": "uint256",
          "name": "",
          "type": "uint256"
        }
      ],
      "stateMutability": "view",
      "type": "function"
    },
    {
      "inputs": [
        {
          "internalType": "bytes32",
          "name": "ilk",
          "type": "bytes32"
        }
      ],
      "name": "getIlkSpotPrice",
      "outputs": [
        {
          "internalType": "uint256",
          "name": "",
          "type": "uint256"
        }
      ],
      "stateMutability": "view",
      "type": "function"
    },
    {
      "inputs": [
        {
          "internalType": "bytes32",
          "name": "i",
          "type": "bytes32"
        },
        {
          "internalType": "address",
          "name": "u",
          "type": "address"
        },
        {
          "internalType": "address",
          "name": "v",
          "type": "address"
        },
        {
          "internalType": "address",
          "name": "w",
          "type": "address"
        },
        {
          "internalType": "int256",
          "name": "dink",
          "type": "int256"
        },
        {
          "internalType": "int256",
          "name": "dart",
          "type": "int256"
        }
      ],
      "name": "grab",
      "outputs": [],
      "stateMutability": "nonpayable",
      "type": "function"
    },
    {
      "inputs": [
        {
          "internalType": "uint256",
          "name": "rad",
          "type": "uint256"
        }
      ],
      "name": "heal",
      "outputs": [],
      "stateMutability": "nonpayable",
      "type": "function"
    },
    {
      "inputs": [
        {
          "internalType": "address",
          "name": "usr",
          "type": "address"
        }
      ],
      "name": "hope",
      "outputs": [],
      "stateMutability": "nonpayable",
      "type": "function"
    },
    {
      "inputs": [
        {
          "internalType": "bytes32",
          "name": "",
          "type": "bytes32"
        }
      ],
      "name": "ilks",
      "outputs": [
        {
          "internalType": "uint256",
          "name": "Art",
          "type": "uint256"
        },
        {
          "internalType": "uint256",
          "name": "rate",
          "type": "uint256"
        },
        {
          "internalType": "uint256",
          "name": "spot",
          "type": "uint256"
        },
        {
          "internalType": "uint256",
          "name": "line",
          "type": "uint256"
        },
        {
          "internalType": "uint256",
          "name": "dust",
          "type": "uint256"
        }
      ],
      "stateMutability": "view",
      "type": "function"
    },
    {
      "inputs": [
        {
          "internalType": "bytes32",
          "name": "ilk",
          "type": "bytes32"
        }
      ],
      "name": "init",
      "outputs": [],
      "stateMutability": "nonpayable",
      "type": "function"
    },
    {
      "inputs": [],
      "name": "live",
      "outputs": [
        {
          "internalType": "uint256",
          "name": "",
          "type": "uint256"
        }
      ],
      "stateMutability": "view",
      "type": "function"
    },
    {
      "inputs": [
        {
          "internalType": "address",
          "name": "src",
          "type": "address"
        },
        {
          "internalType": "address",
          "name": "dst",
          "type": "address"
        },
        {
          "internalType": "uint256",
          "name": "rad",
          "type": "uint256"
        }
      ],
      "name": "move",
      "outputs": [],
      "stateMutability": "nonpayable",
      "type": "function"
    },
    {
      "inputs": [
        {
          "internalType": "address",
          "name": "usr",
          "type": "address"
        }
      ],
      "name": "nope",
      "outputs": [],
      "stateMutability": "nonpayable",
      "type": "function"
    },
    {
      "inputs": [
        {
          "internalType": "address",
          "name": "usr",
          "type": "address"
        }
      ],
      "name": "rely",
      "outputs": [],
      "stateMutability": "nonpayable",
      "type": "function"
    },
    {
      "inputs": [
        {
          "internalType": "address",
          "name": "",
          "type": "address"
        }
      ],
      "name": "sin",
      "outputs": [
        {
          "internalType": "uint256",
          "name": "",
          "type": "uint256"
        }
      ],
      "stateMutability": "view",
      "type": "function"
    },
    {
      "inputs": [
        {
          "internalType": "bytes32",
          "name": "ilk",
          "type": "bytes32"
        },
        {
          "internalType": "address",
          "name": "usr",
          "type": "address"
        },
        {
          "internalType": "int256",
          "name": "wad",
          "type": "int256"
        }
      ],
      "name": "slip",
      "outputs": [],
      "stateMutability": "nonpayable",
      "type": "function"
    },
    {
      "inputs": [
        {
          "internalType": "string",
          "name": "source",
          "type": "string"
        }
      ],
      "name": "stringToBytes32",
      "outputs": [
        {
          "internalType": "bytes32",
          "name": "result",
          "type": "bytes32"
        }
      ],
      "stateMutability": "pure",
      "type": "function"
    },
    {
      "inputs": [
        {
          "internalType": "address",
          "name": "u",
          "type": "address"
        },
        {
          "internalType": "address",
          "name": "v",
          "type": "address"
        },
        {
          "internalType": "uint256",
          "name": "rad",
          "type": "uint256"
        }
      ],
      "name": "suck",
      "outputs": [],
      "stateMutability": "nonpayable",
      "type": "function"
    },
    {
      "inputs": [
        {
          "internalType": "bytes32",
          "name": "",
          "type": "bytes32"
        },
        {
          "internalType": "address",
          "name": "",
          "type": "address"
        }
      ],
      "name": "urns",
      "outputs": [
        {
          "internalType": "uint256",
          "name": "ink",
          "type": "uint256"
        },
        {
          "internalType": "uint256",
          "name": "art",
          "type": "uint256"
        }
      ],
      "stateMutability": "view",
      "type": "function"
    },
    {
      "inputs": [],
      "name": "vice",
      "outputs": [
        {
          "internalType": "uint256",
          "name": "",
          "type": "uint256"
        }
      ],
      "stateMutability": "view",
      "type": "function"
    },
    {
      "inputs": [
        {
          "internalType": "address",
          "name": "",
          "type": "address"
        }
      ],
      "name": "wards",
      "outputs": [
        {
          "internalType": "uint256",
          "name": "",
          "type": "uint256"
        }
      ],
      "stateMutability": "view",
      "type": "function"
    }
  ],
  "bytecode": "0x608060405234801561001057600080fd5b5060016000803373ffffffffffffffffffffffffffffffffffffffff1673ffffffffffffffffffffffffffffffffffffffff168152602001908152602001600020819055506001600a819055506135ba8061006c6000396000f3fe608060405234801561001057600080fd5b50600436106101da5760003560e01c8063870c616d11610104578063bb35783b116100a2578063dc4d20fa11610071578063dc4d20fa14610a93578063f059212a14610ad7578063f24e23eb14610b2f578063f37ac61c14610b9d576101da565b8063bb35783b146108a0578063bf353dbb1461090e578063cfb5192814610966578063d9638d3614610a35576101da565b8063a3b22fc4116100de578063a3b22fc4146107a4578063a4ad6941146107e8578063b65337df1461082a578063babe8a3f14610882576101da565b8063870c616d146106c0578063957aa58c146107425780639c52a7f114610760576101da565b80634538c4eb1161017c5780636c25b3461161014b5780636c25b346146104cc57806376088703146105245780637bab3f40146105c65780637cdd3fde14610668576101da565b80634538c4eb1461038e5780636111be2e1461040657806365fae35e1461047e57806369245009146104c2576101da565b8063214414d5116101b8578063214414d5146102775780632424be5c146102d95780632d61a355146103425780633b66319514610360576101da565b80630dca59c1146101df57806315c671c4146101fd5780631a0b287e14610235575b600080fd5b6101e7610bcb565b6040518082815260200191505060405180910390f35b6102336004803603604081101561021357600080fd5b810190808035906020019092919080359060200190929190505050610bd1565b005b6102756004803603606081101561024b57600080fd5b81019080803590602001909291908035906020019092919080359060200190929190505050610da3565b005b6102c36004803603604081101561028d57600080fd5b8101908080359060200190929190803573ffffffffffffffffffffffffffffffffffffffff16906020019092919050505061101c565b6040518082815260200191505060405180910390f35b610325600480360360408110156102ef57600080fd5b8101908080359060200190929190803573ffffffffffffffffffffffffffffffffffffffff169060200190929190505050611041565b604051808381526020018281526020019250505060405180910390f35b61034a611072565b6040518082815260200191505060405180910390f35b61038c6004803603602081101561037657600080fd5b8101908080359060200190929190505050611078565b005b6103f0600480360360408110156103a457600080fd5b81019080803573ffffffffffffffffffffffffffffffffffffffff169060200190929190803573ffffffffffffffffffffffffffffffffffffffff1690602001909291905050506111e2565b6040518082815260200191505060405180910390f35b61047c6004803603608081101561041c57600080fd5b8101908080359060200190929190803573ffffffffffffffffffffffffffffffffffffffff169060200190929190803573ffffffffffffffffffffffffffffffffffffffff16906020019092919080359060200190929190505050611207565b005b6104c06004803603602081101561049457600080fd5b81019080803573ffffffffffffffffffffffffffffffffffffffff1690602001909291905050506113e5565b005b6104ca611558565b005b61050e600480360360208110156104e257600080fd5b81019080803573ffffffffffffffffffffffffffffffffffffffff169060200190929190505050611616565b6040518082815260200191505060405180910390f35b6105c4600480360360c081101561053a57600080fd5b8101908080359060200190929190803573ffffffffffffffffffffffffffffffffffffffff169060200190929190803573ffffffffffffffffffffffffffffffffffffffff169060200190929190803573ffffffffffffffffffffffffffffffffffffffff169060200190929190803590602001909291908035906020019092919050505061162e565b005b610666600480360360c08110156105dc57600080fd5b8101908080359060200190929190803573ffffffffffffffffffffffffffffffffffffffff169060200190929190803573ffffffffffffffffffffffffffffffffffffffff169060200190929190803573ffffffffffffffffffffffffffffffffffffffff1690602001909291908035906020019092919080359060200190929190505050611ebc565b005b6106be6004803603606081101561067e57600080fd5b8101908080359060200190929190803573ffffffffffffffffffffffffffffffffffffffff16906020019092919080359060200190929190505050612186565b005b610740600480360360a08110156106d657600080fd5b8101908080359060200190929190803573ffffffffffffffffffffffffffffffffffffffff169060200190929190803573ffffffffffffffffffffffffffffffffffffffff16906020019092919080359060200190929190803590602001909291905050506122ed565b005b61074a6126ec565b6040518082815260200191505060405180910390f35b6107a26004803603602081101561077657600080fd5b81019080803573ffffffffffffffffffffffffffffffffffffffff1690602001909291905050506126f2565b005b6107e6600480360360208110156107ba57600080fd5b81019080803573ffffffffffffffffffffffffffffffffffffffff169060200190929190505050612865565b005b610814600480360360208110156107fe57600080fd5b81019080803590602001909291905050506128e9565b6040518082815260200191505060405180910390f35b6108806004803603606081101561084057600080fd5b8101908080359060200190929190803573ffffffffffffffffffffffffffffffffffffffff16906020019092919080359060200190929190505050612909565b005b61088a612b19565b6040518082815260200191505060405180910390f35b61090c600480360360608110156108b657600080fd5b81019080803573ffffffffffffffffffffffffffffffffffffffff169060200190929190803573ffffffffffffffffffffffffffffffffffffffff16906020019092919080359060200190929190505050612b1f565b005b6109506004803603602081101561092457600080fd5b81019080803573ffffffffffffffffffffffffffffffffffffffff169060200190929190505050612cb8565b6040518082815260200191505060405180910390f35b610a1f6004803603602081101561097c57600080fd5b810190808035906020019064010000000081111561099957600080fd5b8201836020820111156109ab57600080fd5b803590602001918460018302840111640100000000831117156109cd57600080fd5b91908080601f016020809104026020016040519081016040528093929190818152602001838380828437600081840152601f19601f820116905080830192505050505050509192919290505050612cd0565b6040518082815260200191505060405180910390f35b610a6160048036036020811015610a4b57600080fd5b8101908080359060200190929190505050612cfb565b604051808681526020018581526020018481526020018381526020018281526020019550505050505060405180910390f35b610ad560048036036020811015610aa957600080fd5b81019080803573ffffffffffffffffffffffffffffffffffffffff169060200190929190505050612d31565b005b610b1960048036036020811015610aed57600080fd5b81019080803573ffffffffffffffffffffffffffffffffffffffff169060200190929190505050612db6565b6040518082815260200191505060405180910390f35b610b9b60048036036060811015610b4557600080fd5b81019080803573ffffffffffffffffffffffffffffffffffffffff169060200190929190803573ffffffffffffffffffffffffffffffffffffffff16906020019092919080359060200190929190505050612dce565b005b610bc960048036036020811015610bb357600080fd5b8101908080359060200190929190505050612fc3565b005b60075481565b60016000803373ffffffffffffffffffffffffffffffffffffffff1673ffffffffffffffffffffffffffffffffffffffff1681526020019081526020016000205414610c85576040517f08c379a00000000000000000000000000000000000000000000000000000000081526004018080602001828103825260128152602001807f5661742f6e6f742d617574686f72697a6564000000000000000000000000000081525060200191505060405180910390fd5b6001600a5414610cfd576040517f08c379a000000000000000000000000000000000000000000000000000000000815260040180806020018281038252600c8152602001807f5661742f6e6f742d6c697665000000000000000000000000000000000000000081525060200191505060405180910390fd5b7f4c696e6500000000000000000000000000000000000000000000000000000000821415610d315780600981905550610d9f565b6040517f08c379a000000000000000000000000000000000000000000000000000000000815260040180806020018281038252601b8152602001807f5661742f66696c652d756e7265636f676e697a65642d706172616d000000000081525060200191505060405180910390fd5b5050565b60016000803373ffffffffffffffffffffffffffffffffffffffff1673ffffffffffffffffffffffffffffffffffffffff1681526020019081526020016000205414610e57576040517f08c379a00000000000000000000000000000000000000000000000000000000081526004018080602001828103825260128152602001807f5661742f6e6f742d617574686f72697a6564000000000000000000000000000081525060200191505060405180910390fd5b6001600a5414610ecf576040517f08c379a000000000000000000000000000000000000000000000000000000000815260040180806020018281038252600c8152602001807f5661742f6e6f742d6c697665000000000000000000000000000000000000000081525060200191505060405180910390fd5b7f73706f7400000000000000000000000000000000000000000000000000000000821415610f1757806002600085815260200190815260200160002060020181905550611017565b7f6c696e6500000000000000000000000000000000000000000000000000000000821415610f5f57806002600085815260200190815260200160002060030181905550611016565b7f6475737400000000000000000000000000000000000000000000000000000000821415610fa757806002600085815260200190815260200160002060040181905550611015565b6040517f08c379a000000000000000000000000000000000000000000000000000000000815260040180806020018281038252601b8152602001807f5661742f66696c652d756e7265636f676e697a65642d706172616d000000000081525060200191505060405180910390fd5b5b5b505050565b6004602052816000526040600020602052806000526040600020600091509150505481565b6003602052816000526040600020602052806000526040600020600091509150508060000154908060010154905082565b60085481565b60016000803373ffffffffffffffffffffffffffffffffffffffff1673ffffffffffffffffffffffffffffffffffffffff168152602001908152602001600020541461112c576040517f08c379a00000000000000000000000000000000000000000000000000000000081526004018080602001828103825260128152602001807f5661742f6e6f742d617574686f72697a6564000000000000000000000000000081525060200191505060405180910390fd5b60006002600083815260200190815260200160002060010154146111b8576040517f08c379a00000000000000000000000000000000000000000000000000000000081526004018080602001828103825260148152602001807f5661742f696c6b2d616c72656164792d696e697400000000000000000000000081525060200191505060405180910390fd5b6b033b2e3c9fd0803ce8000000600260008381526020019081526020016000206001018190555050565b6001602052816000526040600020602052806000526040600020600091509150505481565b6112118333613108565b611283576040517f08c379a000000000000000000000000000000000000000000000000000000000815260040180806020018281038252600f8152602001807f5661742f6e6f742d616c6c6f776564000000000000000000000000000000000081525060200191505060405180910390fd5b6112dd6004600086815260200190815260200160002060008573ffffffffffffffffffffffffffffffffffffffff1673ffffffffffffffffffffffffffffffffffffffff16815260200190815260200160002054826131c8565b6004600086815260200190815260200160002060008573ffffffffffffffffffffffffffffffffffffffff1673ffffffffffffffffffffffffffffffffffffffff1681526020019081526020016000208190555061138b6004600086815260200190815260200160002060008473ffffffffffffffffffffffffffffffffffffffff1673ffffffffffffffffffffffffffffffffffffffff16815260200190815260200160002054826131e2565b6004600086815260200190815260200160002060008473ffffffffffffffffffffffffffffffffffffffff1673ffffffffffffffffffffffffffffffffffffffff1681526020019081526020016000208190555050505050565b60016000803373ffffffffffffffffffffffffffffffffffffffff1673ffffffffffffffffffffffffffffffffffffffff1681526020019081526020016000205414611499576040517f08c379a00000000000000000000000000000000000000000000000000000000081526004018080602001828103825260128152602001807f5661742f6e6f742d617574686f72697a6564000000000000000000000000000081525060200191505060405180910390fd5b6001600a5414611511576040517f08c379a000000000000000000000000000000000000000000000000000000000815260040180806020018281038252600c8152602001807f5661742f6e6f742d6c697665000000000000000000000000000000000000000081525060200191505060405180910390fd5b60016000808373ffffffffffffffffffffffffffffffffffffffff1673ffffffffffffffffffffffffffffffffffffffff1681526020019081526020016000208190555050565b60016000803373ffffffffffffffffffffffffffffffffffffffff1673ffffffffffffffffffffffffffffffffffffffff168152602001908152602001600020541461160c576040517f08c379a00000000000000000000000000000000000000000000000000000000081526004018080602001828103825260128152602001807f5661742f6e6f742d617574686f72697a6564000000000000000000000000000081525060200191505060405180910390fd5b6000600a81905550565b60056020528060005260406000206000915090505481565b6001600a54146116a6576040517f08c379a000000000000000000000000000000000000000000000000000000000815260040180806020018281038252600c8152602001807f5661742f6e6f742d6c697665000000000000000000000000000000000000000081525060200191505060405180910390fd5b6116ae61353b565b6003600088815260200190815260200160002060008773ffffffffffffffffffffffffffffffffffffffff1673ffffffffffffffffffffffffffffffffffffffff168152602001908152602001600020604051806040016040529081600082015481526020016001820154815250509050611727613555565b600260008981526020019081526020016000206040518060a00160405290816000820154815260200160018201548152602001600282015481526020016003820154815260200160048201548152505090506000816020015114156117f4576040517f08c379a00000000000000000000000000000000000000000000000000000000081526004018080602001828103825260108152602001807f5661742f696c6b2d6e6f742d696e69740000000000000000000000000000000081525060200191505060405180910390fd5b6118028260000151856131fc565b8260000181815250506118198260200151846131fc565b8260200181815250506118308160000151846131fc565b816000018181525050600061184982602001518561323b565b9050600061185f83602001518560200151613276565b905061186d600754836131fc565b6007819055506118b46040518060400160405280600c81526020017f63757272656e74206465627400000000000000000000000000000000000000008152506007546132a2565b6119046040518060400160405280600881526020017f6172742a726174650000000000000000000000000000000000000000000000008152506118ff85600001518660200151613276565b6132a2565b61194a6040518060400160405280600981526020017f4c696e65206c696e65000000000000000000000000000000000000000000000081525060095485606001516133a9565b611980600086131561197b856060015161196c87600001518860200151613276565b111560095460075411156134b9565b6134c6565b6119f2576040517f08c379a00000000000000000000000000000000000000000000000000000000081526004018080602001828103825260148152602001807f5661742f6365696c696e672d657863656564656400000000000000000000000081525060200191505060405180910390fd5b611a21611a07600087131560008912156134b9565b611a1986600001518660400151613276565b8311156134c6565b611a93576040517f08c379a000000000000000000000000000000000000000000000000000000000815260040180806020018281038252600c8152602001807f5661742f6e6f742d73616665000000000000000000000000000000000000000081525060200191505060405180910390fd5b611ab7611aa8600087131560008912156134b9565b611ab28b33613108565b6134c6565b611b29576040517f08c379a00000000000000000000000000000000000000000000000000000000081526004018080602001828103825260118152602001807f5661742f6e6f742d616c6c6f7765642d7500000000000000000000000000000081525060200191505060405180910390fd5b611b406000871315611b3b8a33613108565b6134c6565b611bb2576040517f08c379a00000000000000000000000000000000000000000000000000000000081526004018080602001828103825260118152602001807f5661742f6e6f742d616c6c6f7765642d7600000000000000000000000000000081525060200191505060405180910390fd5b611bc96000861215611bc48933613108565b6134c6565b611c3b576040517f08c379a00000000000000000000000000000000000000000000000000000000081526004018080602001828103825260118152602001807f5661742f6e6f742d616c6c6f7765642d7700000000000000000000000000000081525060200191505060405180910390fd5b611c53600085602001511484608001518310156134c6565b611cc5576040517f08c379a00000000000000000000000000000000000000000000000000000000081526004018080602001828103825260088152602001807f5661742f6475737400000000000000000000000000000000000000000000000081525060200191505060405180910390fd5b611d1f600460008c815260200190815260200160002060008a73ffffffffffffffffffffffffffffffffffffffff1673ffffffffffffffffffffffffffffffffffffffff16815260200190815260200160002054876134d3565b600460008c815260200190815260200160002060008a73ffffffffffffffffffffffffffffffffffffffff1673ffffffffffffffffffffffffffffffffffffffff16815260200190815260200160002081905550611dbc600560008973ffffffffffffffffffffffffffffffffffffffff1673ffffffffffffffffffffffffffffffffffffffff16815260200190815260200160002054836131fc565b600560008973ffffffffffffffffffffffffffffffffffffffff1673ffffffffffffffffffffffffffffffffffffffff1681526020019081526020016000208190555083600360008c815260200190815260200160002060008b73ffffffffffffffffffffffffffffffffffffffff1673ffffffffffffffffffffffffffffffffffffffff168152602001908152602001600020600082015181600001556020820151816001015590505082600260008c8152602001908152602001600020600082015181600001556020820151816001015560408201518160020155606082015181600301556080820151816004015590505050505050505050505050565b60016000803373ffffffffffffffffffffffffffffffffffffffff1673ffffffffffffffffffffffffffffffffffffffff1681526020019081526020016000205414611f70576040517f08c379a00000000000000000000000000000000000000000000000000000000081526004018080602001828103825260128152602001807f5661742f6e6f742d617574686f72697a6564000000000000000000000000000081525060200191505060405180910390fd5b60006003600088815260200190815260200160002060008773ffffffffffffffffffffffffffffffffffffffff1673ffffffffffffffffffffffffffffffffffffffff16815260200190815260200160002090506000600260008981526020019081526020016000209050611fe98260000154856131fc565b8260000181905550611fff8260010154846131fc565b82600101819055506120158160000154846131fc565b8160000181905550600061202d82600101548561323b565b9050612089600460008b815260200190815260200160002060008973ffffffffffffffffffffffffffffffffffffffff1673ffffffffffffffffffffffffffffffffffffffff16815260200190815260200160002054866134d3565b600460008b815260200190815260200160002060008973ffffffffffffffffffffffffffffffffffffffff1673ffffffffffffffffffffffffffffffffffffffff16815260200190815260200160002081905550612126600660008873ffffffffffffffffffffffffffffffffffffffff1673ffffffffffffffffffffffffffffffffffffffff16815260200190815260200160002054826134d3565b600660008873ffffffffffffffffffffffffffffffffffffffff1673ffffffffffffffffffffffffffffffffffffffff16815260200190815260200160002081905550612175600854826134d3565b600881905550505050505050505050565b60016000803373ffffffffffffffffffffffffffffffffffffffff1673ffffffffffffffffffffffffffffffffffffffff168152602001908152602001600020541461223a576040517f08c379a00000000000000000000000000000000000000000000000000000000081526004018080602001828103825260128152602001807f5661742f6e6f742d617574686f72697a6564000000000000000000000000000081525060200191505060405180910390fd5b6122946004600085815260200190815260200160002060008473ffffffffffffffffffffffffffffffffffffffff1673ffffffffffffffffffffffffffffffffffffffff16815260200190815260200160002054826131fc565b6004600085815260200190815260200160002060008473ffffffffffffffffffffffffffffffffffffffff1673ffffffffffffffffffffffffffffffffffffffff16815260200190815260200160002081905550505050565b60006003600087815260200190815260200160002060008673ffffffffffffffffffffffffffffffffffffffff1673ffffffffffffffffffffffffffffffffffffffff168152602001908152602001600020905060006003600088815260200190815260200160002060008673ffffffffffffffffffffffffffffffffffffffff1673ffffffffffffffffffffffffffffffffffffffff168152602001908152602001600020905060006002600089815260200190815260200160002090506123ba8360000154866134d3565b83600001819055506123d08360010154856134d3565b83600101819055506123e68260000154866131fc565b82600001819055506123fc8260010154856131fc565b8260010181905550600061241884600101548360010154613276565b9050600061242e84600101548460010154613276565b905061244c61243d8a33613108565b6124478a33613108565b6134b9565b6124be576040517f08c379a000000000000000000000000000000000000000000000000000000000815260040180806020018281038252600f8152602001807f5661742f6e6f742d616c6c6f776564000000000000000000000000000000000081525060200191505060405180910390fd5b6124d085600001548460020154613276565b821115612545576040517f08c379a00000000000000000000000000000000000000000000000000000000081526004018080602001828103825260108152602001807f5661742f6e6f742d736166652d7372630000000000000000000000000000000081525060200191505060405180910390fd5b61255784600001548460020154613276565b8111156125cc576040517f08c379a00000000000000000000000000000000000000000000000000000000081526004018080602001828103825260108152602001807f5661742f6e6f742d736166652d6473740000000000000000000000000000000081525060200191505060405180910390fd5b6125e4836004015483101560008760010154146134c6565b612656576040517f08c379a000000000000000000000000000000000000000000000000000000000815260040180806020018281038252600c8152602001807f5661742f647573742d737263000000000000000000000000000000000000000081525060200191505060405180910390fd5b61266e836004015482101560008660010154146134c6565b6126e0576040517f08c379a000000000000000000000000000000000000000000000000000000000815260040180806020018281038252600c8152602001807f5661742f647573742d647374000000000000000000000000000000000000000081525060200191505060405180910390fd5b50505050505050505050565b600a5481565b60016000803373ffffffffffffffffffffffffffffffffffffffff1673ffffffffffffffffffffffffffffffffffffffff16815260200190815260200160002054146127a6576040517f08c379a00000000000000000000000000000000000000000000000000000000081526004018080602001828103825260128152602001807f5661742f6e6f742d617574686f72697a6564000000000000000000000000000081525060200191505060405180910390fd5b6001600a541461281e576040517f08c379a000000000000000000000000000000000000000000000000000000000815260040180806020018281038252600c8152602001807f5661742f6e6f742d6c697665000000000000000000000000000000000000000081525060200191505060405180910390fd5b60008060008373ffffffffffffffffffffffffffffffffffffffff1673ffffffffffffffffffffffffffffffffffffffff1681526020019081526020016000208190555050565b60018060003373ffffffffffffffffffffffffffffffffffffffff1673ffffffffffffffffffffffffffffffffffffffff16815260200190815260200160002060008373ffffffffffffffffffffffffffffffffffffffff1673ffffffffffffffffffffffffffffffffffffffff1681526020019081526020016000208190555050565b600060026000838152602001908152602001600020600201549050919050565b60016000803373ffffffffffffffffffffffffffffffffffffffff1673ffffffffffffffffffffffffffffffffffffffff16815260200190815260200160002054146129bd576040517f08c379a00000000000000000000000000000000000000000000000000000000081526004018080602001828103825260128152602001807f5661742f6e6f742d617574686f72697a6564000000000000000000000000000081525060200191505060405180910390fd5b6001600a5414612a35576040517f08c379a000000000000000000000000000000000000000000000000000000000815260040180806020018281038252600c8152602001807f5661742f6e6f742d6c697665000000000000000000000000000000000000000081525060200191505060405180910390fd5b6000600260008581526020019081526020016000209050612a5a8160010154836131fc565b81600101819055506000612a7282600001548461323b565b9050612abd600560008673ffffffffffffffffffffffffffffffffffffffff1673ffffffffffffffffffffffffffffffffffffffff16815260200190815260200160002054826131fc565b600560008673ffffffffffffffffffffffffffffffffffffffff1673ffffffffffffffffffffffffffffffffffffffff16815260200190815260200160002081905550612b0c600754826131fc565b6007819055505050505050565b60095481565b612b298333613108565b612b9b576040517f08c379a000000000000000000000000000000000000000000000000000000000815260040180806020018281038252600f8152602001807f5661742f6e6f742d616c6c6f776564000000000000000000000000000000000081525060200191505060405180910390fd5b612be4600560008573ffffffffffffffffffffffffffffffffffffffff1673ffffffffffffffffffffffffffffffffffffffff16815260200190815260200160002054826131c8565b600560008573ffffffffffffffffffffffffffffffffffffffff1673ffffffffffffffffffffffffffffffffffffffff16815260200190815260200160002081905550612c70600560008473ffffffffffffffffffffffffffffffffffffffff1673ffffffffffffffffffffffffffffffffffffffff16815260200190815260200160002054826131e2565b600560008473ffffffffffffffffffffffffffffffffffffffff1673ffffffffffffffffffffffffffffffffffffffff16815260200190815260200160002081905550505050565b60006020528060005260406000206000915090505481565b60006060829050600081511415612ced576000801b915050612cf6565b60208301519150505b919050565b60026020528060005260406000206000915090508060000154908060010154908060020154908060030154908060040154905085565b6000600160003373ffffffffffffffffffffffffffffffffffffffff1673ffffffffffffffffffffffffffffffffffffffff16815260200190815260200160002060008373ffffffffffffffffffffffffffffffffffffffff1673ffffffffffffffffffffffffffffffffffffffff1681526020019081526020016000208190555050565b60066020528060005260406000206000915090505481565b60016000803373ffffffffffffffffffffffffffffffffffffffff1673ffffffffffffffffffffffffffffffffffffffff1681526020019081526020016000205414612e82576040517f08c379a00000000000000000000000000000000000000000000000000000000081526004018080602001828103825260128152602001807f5661742f6e6f742d617574686f72697a6564000000000000000000000000000081525060200191505060405180910390fd5b612ecb600660008573ffffffffffffffffffffffffffffffffffffffff1673ffffffffffffffffffffffffffffffffffffffff16815260200190815260200160002054826131e2565b600660008573ffffffffffffffffffffffffffffffffffffffff1673ffffffffffffffffffffffffffffffffffffffff16815260200190815260200160002081905550612f57600560008473ffffffffffffffffffffffffffffffffffffffff1673ffffffffffffffffffffffffffffffffffffffff16815260200190815260200160002054826131e2565b600560008473ffffffffffffffffffffffffffffffffffffffff1673ffffffffffffffffffffffffffffffffffffffff16815260200190815260200160002081905550612fa6600854826131e2565b600881905550612fb8600754826131e2565b600781905550505050565b6000339050613011600660008373ffffffffffffffffffffffffffffffffffffffff1673ffffffffffffffffffffffffffffffffffffffff16815260200190815260200160002054836131c8565b600660008373ffffffffffffffffffffffffffffffffffffffff1673ffffffffffffffffffffffffffffffffffffffff1681526020019081526020016000208190555061309d600560008373ffffffffffffffffffffffffffffffffffffffff1673ffffffffffffffffffffffffffffffffffffffff16815260200190815260200160002054836131c8565b600560008373ffffffffffffffffffffffffffffffffffffffff1673ffffffffffffffffffffffffffffffffffffffff168152602001908152602001600020819055506130ec600854836131c8565b6008819055506130fe600754836131c8565b6007819055505050565b60006131c08273ffffffffffffffffffffffffffffffffffffffff168473ffffffffffffffffffffffffffffffffffffffff161460018060008773ffffffffffffffffffffffffffffffffffffffff1673ffffffffffffffffffffffffffffffffffffffff16815260200190815260200160002060008673ffffffffffffffffffffffffffffffffffffffff1673ffffffffffffffffffffffffffffffffffffffff16815260200190815260200160002054146134c6565b905092915050565b60008282840391508111156131dc57600080fd5b92915050565b60008282840191508110156131f657600080fd5b92915050565b600081830190506000821215806132135750828111155b61321c57600080fd5b60008213158061322c5750828110155b61323557600080fd5b92915050565b60008183029050600083121561325057600080fd5b600082148061326757508282828161326457fe5b05145b61327057600080fd5b92915050565b600080821480613293575082828385029250828161329057fe5b04145b61329c57600080fd5b92915050565b6133a582826040516024018080602001838152602001828103825284818151815260200191508051906020019080838360005b838110156132f05780820151818401526020810190506132d5565b50505050905090810190601f16801561331d5780820380516001836020036101000a031916815260200191505b5093505050506040516020818303038152906040527fb60e72cc000000000000000000000000000000000000000000000000000000007bffffffffffffffffffffffffffffffffffffffffffffffffffffffff19166020820180517bffffffffffffffffffffffffffffffffffffffffffffffffffffffff8381831617835250505050613512565b5050565b6134b48383836040516024018080602001848152602001838152602001828103825285818151815260200191508051906020019080838360005b838110156133fe5780820151818401526020810190506133e3565b50505050905090810190601f16801561342b5780820380516001836020036101000a031916815260200191505b509450505050506040516020818303038152906040527fca47c4eb000000000000000000000000000000000000000000000000000000007bffffffffffffffffffffffffffffffffffffffffffffffffffffffff19166020820180517bffffffffffffffffffffffffffffffffffffffffffffffffffffffff8381831617835250505050613512565b505050565b6000818316905092915050565b6000818317905092915050565b600081830390506000821315806134ea5750828111155b6134f357600080fd5b6000821215806135035750828110155b61350c57600080fd5b92915050565b60008151905060006a636f6e736f6c652e6c6f679050602083016000808483855afa5050505050565b604051806040016040528060008152602001600081525090565b6040518060a001604052806000815260200160008152602001600081526020016000815260200160008152509056fea264697066735822122095f788f5f4fa77f693f53956d833f3f0f118817e2007a5b0966984e138ed691d64736f6c634300060c0033",
  "linkReferences": {},
  "deployedLinkReferences": {}
}