{
    "_format": "hh-sol-artifact-1",
    "contractName": "SimpleTransaction",
    "sourceName": "src/backend/contracts/SimpleTransaction.sol",
    "abi": [
        {
            "inputs": [
                {
                    "internalType": "address",
                    "name": "_ReceiveAccount",
                    "type": "address"
                }
            ],
            "name": "CheckAccount",
            "outputs": [
                {
                    "internalType": "uint256",
                    "name": "",
                    "type": "uint256"
                }
            ],
            "stateMutability": "view",
            "type": "function"
        },
        {
            "inputs": [
                {
                    "internalType": "address",
                    "name": "_AccountAddress",
                    "type": "address"
                }
            ],
            "name": "Retrieve",
            "outputs": [
                {
                    "internalType": "uint256",
                    "name": "",
                    "type": "uint256"
                }
            ],
            "stateMutability": "view",
            "type": "function"
        },
        {
            "inputs": [],
            "name": "deposit",
            "outputs": [],
            "stateMutability": "payable",
            "type": "function"
        }
    ],
    "bytecode": "0x608060405234801561001057600080fd5b50610208806100206000396000f3fe6080604052600436106100345760003560e01c8063392f2e1d1461003957806339ff7c4814610076578063d0e30db0146100b3575b600080fd5b34801561004557600080fd5b50610060600480360381019061005b9190610171565b6100bd565b60405161006d91906101b7565b60405180910390f35b34801561008257600080fd5b5061009d60048036038101906100989190610171565b6100de565b6040516100aa91906101b7565b60405180910390f35b6100bb6100ff565b005b60008173ffffffffffffffffffffffffffffffffffffffff16319050919050565b60008173ffffffffffffffffffffffffffffffffffffffff16319050919050565b6000341161010c57600080fd5b565b600080fd5b600073ffffffffffffffffffffffffffffffffffffffff82169050919050565b600061013e82610113565b9050919050565b61014e81610133565b811461015957600080fd5b50565b60008135905061016b81610145565b92915050565b6000602082840312156101875761018661010e565b5b60006101958482850161015c565b91505092915050565b6000819050919050565b6101b18161019e565b82525050565b60006020820190506101cc60008301846101a8565b9291505056fea26469706673582212203a143845b2a5a02143fae1307758aae0ec2bfbd8eda93d61cf5e51b77299461464736f6c63430008110033",
    "linkReferences": {},
    "deployedLinkReferences": {}
}