{
  "_format": "hh-sol-artifact-1",
  "contractName": "DSToken",
  "sourceName": "contracts/dai/liquidation-auction-module/token.sol",
  "abi": [
    {
      "inputs": [
        {
          "internalType": "string",
          "name": "symbol_",
          "type": "string"
        }
      ],
      "stateMutability": "nonpayable",
      "type": "constructor"
    },
    {
      "anonymous": false,
      "inputs": [
        {
          "indexed": true,
          "internalType": "address",
          "name": "src",
          "type": "address"
        },
        {
          "indexed": true,
          "internalType": "address",
          "name": "guy",
          "type": "address"
        },
        {
          "indexed": false,
          "internalType": "uint256",
          "name": "wad",
          "type": "uint256"
        }
      ],
      "name": "Approval",
      "type": "event"
    },
    {
      "anonymous": false,
      "inputs": [
        {
          "indexed": true,
          "internalType": "address",
          "name": "guy",
          "type": "address"
        },
        {
          "indexed": false,
          "internalType": "uint256",
          "name": "wad",
          "type": "uint256"
        }
      ],
      "name": "Burn",
      "type": "event"
    },
    {
      "anonymous": false,
      "inputs": [
        {
          "indexed": true,
          "internalType": "address",
          "name": "authority",
          "type": "address"
        }
      ],
      "name": "LogSetAuthority",
      "type": "event"
    },
    {
      "anonymous": false,
      "inputs": [
        {
          "indexed": true,
          "internalType": "address",
          "name": "owner",
          "type": "address"
        }
      ],
      "name": "LogSetOwner",
      "type": "event"
    },
    {
      "anonymous": false,
      "inputs": [
        {
          "indexed": true,
          "internalType": "address",
          "name": "guy",
          "type": "address"
        },
        {
          "indexed": false,
          "internalType": "uint256",
          "name": "wad",
          "type": "uint256"
        }
      ],
      "name": "Mint",
      "type": "event"
    },
    {
      "anonymous": false,
      "inputs": [],
      "name": "Start",
      "type": "event"
    },
    {
      "anonymous": false,
      "inputs": [],
      "name": "Stop",
      "type": "event"
    },
    {
      "anonymous": false,
      "inputs": [
        {
          "indexed": true,
          "internalType": "address",
          "name": "src",
          "type": "address"
        },
        {
          "indexed": true,
          "internalType": "address",
          "name": "dst",
          "type": "address"
        },
        {
          "indexed": false,
          "internalType": "uint256",
          "name": "wad",
          "type": "uint256"
        }
      ],
      "name": "Transfer",
      "type": "event"
    },
    {
      "inputs": [
        {
          "internalType": "address",
          "name": "",
          "type": "address"
        },
        {
          "internalType": "address",
          "name": "",
          "type": "address"
        }
      ],
      "name": "allowance",
      "outputs": [
        {
          "internalType": "uint256",
          "name": "",
          "type": "uint256"
        }
      ],
      "stateMutability": "view",
      "type": "function"
    },
    {
      "inputs": [
        {
          "internalType": "address",
          "name": "guy",
          "type": "address"
        },
        {
          "internalType": "uint256",
          "name": "wad",
          "type": "uint256"
        }
      ],
      "name": "approve",
      "outputs": [
        {
          "internalType": "bool",
          "name": "",
          "type": "bool"
        }
      ],
      "stateMutability": "nonpayable",
      "type": "function"
    },
    {
      "inputs": [
        {
          "internalType": "address",
          "name": "guy",
          "type": "address"
        }
      ],
      "name": "approve_max",
      "outputs": [
        {
          "internalType": "bool",
          "name": "",
          "type": "bool"
        }
      ],
      "stateMutability": "nonpayable",
      "type": "function"
    },
    {
      "inputs": [],
      "name": "authority",
      "outputs": [
        {
          "internalType": "contract DSAuthority",
          "name": "",
          "type": "address"
        }
      ],
      "stateMutability": "view",
      "type": "function"
    },
    {
      "inputs": [
        {
          "internalType": "address",
          "name": "",
          "type": "address"
        }
      ],
      "name": "balanceOf",
      "outputs": [
        {
          "internalType": "uint256",
          "name": "",
          "type": "uint256"
        }
      ],
      "stateMutability": "view",
      "type": "function"
    },
    {
      "inputs": [
        {
          "internalType": "uint256",
          "name": "wad",
          "type": "uint256"
        }
      ],
      "name": "burn",
      "outputs": [],
      "stateMutability": "nonpayable",
      "type": "function"
    },
    {
      "inputs": [
        {
          "internalType": "address",
          "name": "guy",
          "type": "address"
        },
        {
          "internalType": "uint256",
          "name": "wad",
          "type": "uint256"
        }
      ],
      "name": "burnz",
      "outputs": [],
      "stateMutability": "nonpayable",
      "type": "function"
    },
    {
      "inputs": [],
      "name": "decimals",
      "outputs": [
        {
          "internalType": "uint8",
          "name": "",
          "type": "uint8"
        }
      ],
      "stateMutability": "view",
      "type": "function"
    },
    {
      "inputs": [],
      "name": "getBalance",
      "outputs": [
        {
          "internalType": "uint256",
          "name": "",
          "type": "uint256"
        }
      ],
      "stateMutability": "view",
      "type": "function"
    },
    {
      "inputs": [
        {
          "internalType": "uint256",
          "name": "wad",
          "type": "uint256"
        }
      ],
      "name": "mint",
      "outputs": [],
      "stateMutability": "nonpayable",
      "type": "function"
    },
    {
      "inputs": [
        {
          "internalType": "address",
          "name": "guy",
          "type": "address"
        },
        {
          "internalType": "uint256",
          "name": "wad",
          "type": "uint256"
        }
      ],
      "name": "mintz",
      "outputs": [],
      "stateMutability": "nonpayable",
      "type": "function"
    },
    {
      "inputs": [
        {
          "internalType": "address",
          "name": "src",
          "type": "address"
        },
        {
          "internalType": "address",
          "name": "dst",
          "type": "address"
        },
        {
          "internalType": "uint256",
          "name": "wad",
          "type": "uint256"
        }
      ],
      "name": "move",
      "outputs": [],
      "stateMutability": "nonpayable",
      "type": "function"
    },
    {
      "inputs": [],
      "name": "name",
      "outputs": [
        {
          "internalType": "string",
          "name": "",
          "type": "string"
        }
      ],
      "stateMutability": "view",
      "type": "function"
    },
    {
      "inputs": [],
      "name": "owner",
      "outputs": [
        {
          "internalType": "address",
          "name": "",
          "type": "address"
        }
      ],
      "stateMutability": "view",
      "type": "function"
    },
    {
      "inputs": [
        {
          "internalType": "address",
          "name": "src",
          "type": "address"
        },
        {
          "internalType": "uint256",
          "name": "wad",
          "type": "uint256"
        }
      ],
      "name": "pull",
      "outputs": [],
      "stateMutability": "nonpayable",
      "type": "function"
    },
    {
      "inputs": [
        {
          "internalType": "address",
          "name": "dst",
          "type": "address"
        },
        {
          "internalType": "uint256",
          "name": "wad",
          "type": "uint256"
        }
      ],
      "name": "push",
      "outputs": [],
      "stateMutability": "nonpayable",
      "type": "function"
    },
    {
      "inputs": [
        {
          "internalType": "contract DSAuthority",
          "name": "authority_",
          "type": "address"
        }
      ],
      "name": "setAuthority",
      "outputs": [],
      "stateMutability": "nonpayable",
      "type": "function"
    },
    {
      "inputs": [
        {
          "internalType": "string",
          "name": "name_",
          "type": "string"
        }
      ],
      "name": "setName",
      "outputs": [],
      "stateMutability": "nonpayable",
      "type": "function"
    },
    {
      "inputs": [
        {
          "internalType": "address",
          "name": "owner_",
          "type": "address"
        }
      ],
      "name": "setOwner",
      "outputs": [],
      "stateMutability": "nonpayable",
      "type": "function"
    },
    {
      "inputs": [],
      "name": "start",
      "outputs": [],
      "stateMutability": "nonpayable",
      "type": "function"
    },
    {
      "inputs": [],
      "name": "stop",
      "outputs": [],
      "stateMutability": "nonpayable",
      "type": "function"
    },
    {
      "inputs": [],
      "name": "stopped",
      "outputs": [
        {
          "internalType": "bool",
          "name": "",
          "type": "bool"
        }
      ],
      "stateMutability": "view",
      "type": "function"
    },
    {
      "inputs": [],
      "name": "symbol",
      "outputs": [
        {
          "internalType": "string",
          "name": "",
          "type": "string"
        }
      ],
      "stateMutability": "view",
      "type": "function"
    },
    {
      "inputs": [],
      "name": "totalSupply",
      "outputs": [
        {
          "internalType": "uint256",
          "name": "",
          "type": "uint256"
        }
      ],
      "stateMutability": "view",
      "type": "function"
    },
    {
      "inputs": [
        {
          "internalType": "address",
          "name": "dst",
          "type": "address"
        },
        {
          "internalType": "uint256",
          "name": "wad",
          "type": "uint256"
        }
      ],
      "name": "transfer",
      "outputs": [
        {
          "internalType": "bool",
          "name": "",
          "type": "bool"
        }
      ],
      "stateMutability": "nonpayable",
      "type": "function"
    },
    {
      "inputs": [
        {
          "internalType": "address",
          "name": "src",
          "type": "address"
        },
        {
          "internalType": "address",
          "name": "dst",
          "type": "address"
        },
        {
          "internalType": "uint256",
          "name": "wad",
          "type": "uint256"
        }
      ],
      "name": "transferFrom",
      "outputs": [
        {
          "internalType": "bool",
          "name": "",
          "type": "bool"
        }
      ],
      "stateMutability": "nonpayable",
      "type": "function"
    }
  ],
  "bytecode": "0x60806040526012600660006101000a81548160ff021916908360ff160217905550604051806020016040528060008152506007908051906020019062000047929190620001e0565b503480156200005557600080fd5b506040516200280c3803806200280c833981810160405260208110156200007b57600080fd5b81019080805160405193929190846401000000008211156200009c57600080fd5b83820191506020820185811115620000b357600080fd5b8251866001820283011164010000000082111715620000d157600080fd5b8083526020830192505050908051906020019080838360005b8381101562000107578082015181840152602081019050620000ea565b50505050905090810190601f168015620001355780820380516001836020036101000a031916815260200191505b5060405250505033600160006101000a81548173ffffffffffffffffffffffffffffffffffffffff021916908373ffffffffffffffffffffffffffffffffffffffff1602179055503373ffffffffffffffffffffffffffffffffffffffff167fce241d7ca1f669fee44b6fc00b8eba2df3bb514eed0f6f668f8f89096e81ed9460405160405180910390a28060059080519060200190620001d8929190620001e0565b505062000286565b828054600181600116156101000203166002900490600052602060002090601f016020900481019282601f106200022357805160ff191683800117855562000254565b8280016001018555821562000254579182015b828111156200025357825182559160200191906001019062000236565b5b50905062000263919062000267565b5090565b5b808211156200028257600081600090555060010162000268565b5090565b61257680620002966000396000f3fe608060405234801561001057600080fd5b506004361061018e5760003560e01c80638da5cb5b116100de578063be9a655511610097578063d172dc0a11610071578063d172dc0a146107df578063dd62ed3e14610839578063ec85cfc0146108b1578063f2d5d56b146108ff5761018e565b8063be9a6555146106e6578063bf7e214f146106f0578063c47f0027146107245761018e565b80638da5cb5b146104e157806395d89b4114610515578063a0712d6814610598578063a9059cbb146105c6578063b753a98c1461062a578063bb35783b146106785761018e565b806323b872dd1161014b57806370a082311161012557806370a08231146103d757806375f12b211461042f5780637a9e5e4b1461044f57806389a40639146104935761018e565b806323b872dd14610304578063313ce5671461038857806342966c68146103a95761018e565b806306fdde031461019357806307da68f514610216578063095ea7b31461022057806312065fe01461028457806313af4035146102a257806318160ddd146102e6575b600080fd5b61019b61094d565b6040518080602001828103825283818151815260200191508051906020019080838360005b838110156101db5780820151818401526020810190506101c0565b50505050905090810190601f1680156102085780820380516001836020036101000a031916815260200191505b509250505060405180910390f35b61021e6109eb565b005b61026c6004803603604081101561023657600080fd5b81019080803573ffffffffffffffffffffffffffffffffffffffff16906020019092919080359060200190929190505050610ad3565b60405180821515815260200191505060405180910390f35b61028c610c86565b6040518082815260200191505060405180910390f35b6102e4600480360360208110156102b857600080fd5b81019080803573ffffffffffffffffffffffffffffffffffffffff169060200190929190505050610ccd565b005b6102ee610e16565b6040518082815260200191505060405180910390f35b6103706004803603606081101561031a57600080fd5b81019080803573ffffffffffffffffffffffffffffffffffffffff169060200190929190803573ffffffffffffffffffffffffffffffffffffffff16906020019092919080359060200190929190505050610e1c565b60405180821515815260200191505060405180910390f35b6103906113b4565b604051808260ff16815260200191505060405180910390f35b6103d5600480360360208110156103bf57600080fd5b81019080803590602001909291905050506113c7565b005b610419600480360360208110156103ed57600080fd5b81019080803573ffffffffffffffffffffffffffffffffffffffff1690602001909291905050506113d4565b6040518082815260200191505060405180910390f35b6104376113ec565b60405180821515815260200191505060405180910390f35b6104916004803603602081101561046557600080fd5b81019080803573ffffffffffffffffffffffffffffffffffffffff1690602001909291905050506113ff565b005b6104df600480360360408110156104a957600080fd5b81019080803573ffffffffffffffffffffffffffffffffffffffff16906020019092919080359060200190929190505050611545565b005b6104e9611796565b604051808273ffffffffffffffffffffffffffffffffffffffff16815260200191505060405180910390f35b61051d6117bc565b6040518080602001828103825283818151815260200191508051906020019080838360005b8381101561055d578082015181840152602081019050610542565b50505050905090810190601f16801561058a5780820380516001836020036101000a031916815260200191505b509250505060405180910390f35b6105c4600480360360208110156105ae57600080fd5b810190808035906020019092919050505061185a565b005b610612600480360360408110156105dc57600080fd5b81019080803573ffffffffffffffffffffffffffffffffffffffff16906020019092919080359060200190929190505050611867565b60405180821515815260200191505060405180910390f35b6106766004803603604081101561064057600080fd5b81019080803573ffffffffffffffffffffffffffffffffffffffff1690602001909291908035906020019092919050505061187c565b005b6106e46004803603606081101561068e57600080fd5b81019080803573ffffffffffffffffffffffffffffffffffffffff169060200190929190803573ffffffffffffffffffffffffffffffffffffffff1690602001909291908035906020019092919050505061188c565b005b6106ee61189d565b005b6106f8611986565b604051808273ffffffffffffffffffffffffffffffffffffffff16815260200191505060405180910390f35b6107dd6004803603602081101561073a57600080fd5b810190808035906020019064010000000081111561075757600080fd5b82018360208201111561076957600080fd5b8035906020019184600183028401116401000000008311171561078b57600080fd5b91908080601f016020809104026020016040519081016040528093929190818152602001838380828437600081840152601f19601f8201169050808301925050505050505091929192905050506119aa565b005b610821600480360360208110156107f557600080fd5b81019080803573ffffffffffffffffffffffffffffffffffffffff169060200190929190505050611a64565b60405180821515815260200191505060405180910390f35b61089b6004803603604081101561084f57600080fd5b81019080803573ffffffffffffffffffffffffffffffffffffffff169060200190929190803573ffffffffffffffffffffffffffffffffffffffff169060200190929190505050611a97565b6040518082815260200191505060405180910390f35b6108fd600480360360408110156108c757600080fd5b81019080803573ffffffffffffffffffffffffffffffffffffffff16906020019092919080359060200190929190505050611abc565b005b61094b6004803603604081101561091557600080fd5b81019080803573ffffffffffffffffffffffffffffffffffffffff1690602001909291908035906020019092919050505061205a565b005b60078054600181600116156101000203166002900480601f0160208091040260200160405190810160405280929190818152602001828054600181600116156101000203166002900480156109e35780601f106109b8576101008083540402835291602001916109e3565b820191906000526020600020905b8154815290600101906020018083116109c657829003601f168201915b505050505081565b610a19336000357fffffffff000000000000000000000000000000000000000000000000000000001661206a565b610a8b576040517f08c379a00000000000000000000000000000000000000000000000000000000081526004018080602001828103825260148152602001807f64732d617574682d756e617574686f72697a656400000000000000000000000081525060200191505060405180910390fd5b60018060146101000a81548160ff0219169083151502179055507fbedf0f4abfe86d4ffad593d9607fe70e83ea706033d44d24b3b6283cf3fc4f6b60405160405180910390a1565b6000600160149054906101000a900460ff1615610b58576040517f08c379a00000000000000000000000000000000000000000000000000000000081526004018080602001828103825260128152602001807f64732d73746f702d69732d73746f70706564000000000000000000000000000081525060200191505060405180910390fd5b81600460003373ffffffffffffffffffffffffffffffffffffffff1673ffffffffffffffffffffffffffffffffffffffff16815260200190815260200160002060008573ffffffffffffffffffffffffffffffffffffffff1673ffffffffffffffffffffffffffffffffffffffff16815260200190815260200160002081905550610c176040518060400160405280600981526020017f636f6d6520686572650000000000000000000000000000000000000000000000815250612276565b8273ffffffffffffffffffffffffffffffffffffffff163373ffffffffffffffffffffffffffffffffffffffff167f8c5be1e5ebec7d5bd14f71427d1e84f3dd0314c0f7b2291e5b200ac8c7c3b925846040518082815260200191505060405180910390a36001905092915050565b6000600360003373ffffffffffffffffffffffffffffffffffffffff1673ffffffffffffffffffffffffffffffffffffffff16815260200190815260200160002054905090565b610cfb336000357fffffffff000000000000000000000000000000000000000000000000000000001661206a565b610d6d576040517f08c379a00000000000000000000000000000000000000000000000000000000081526004018080602001828103825260148152602001807f64732d617574682d756e617574686f72697a656400000000000000000000000081525060200191505060405180910390fd5b80600160006101000a81548173ffffffffffffffffffffffffffffffffffffffff021916908373ffffffffffffffffffffffffffffffffffffffff160217905550600160009054906101000a900473ffffffffffffffffffffffffffffffffffffffff1673ffffffffffffffffffffffffffffffffffffffff167fce241d7ca1f669fee44b6fc00b8eba2df3bb514eed0f6f668f8f89096e81ed9460405160405180910390a250565b60025481565b6000600160149054906101000a900460ff1615610ea1576040517f08c379a00000000000000000000000000000000000000000000000000000000081526004018080602001828103825260128152602001807f64732d73746f702d69732d73746f70706564000000000000000000000000000081525060200191505060405180910390fd5b3373ffffffffffffffffffffffffffffffffffffffff168473ffffffffffffffffffffffffffffffffffffffff1614158015610f7957507fffffffffffffffffffffffffffffffffffffffffffffffffffffffffffffffff600460008673ffffffffffffffffffffffffffffffffffffffff1673ffffffffffffffffffffffffffffffffffffffff16815260200190815260200160002060003373ffffffffffffffffffffffffffffffffffffffff1673ffffffffffffffffffffffffffffffffffffffff1681526020019081526020016000205414155b156111775781600460008673ffffffffffffffffffffffffffffffffffffffff1673ffffffffffffffffffffffffffffffffffffffff16815260200190815260200160002060003373ffffffffffffffffffffffffffffffffffffffff1673ffffffffffffffffffffffffffffffffffffffff168152602001908152602001600020541015611070576040517f08c379a000000000000000000000000000000000000000000000000000000000815260040180806020018281038252601e8152602001807f64732d746f6b656e2d696e73756666696369656e742d617070726f76616c000081525060200191505060405180910390fd5b6110f6600460008673ffffffffffffffffffffffffffffffffffffffff1673ffffffffffffffffffffffffffffffffffffffff16815260200190815260200160002060003373ffffffffffffffffffffffffffffffffffffffff1673ffffffffffffffffffffffffffffffffffffffff1681526020019081526020016000205483612374565b600460008673ffffffffffffffffffffffffffffffffffffffff1673ffffffffffffffffffffffffffffffffffffffff16815260200190815260200160002060003373ffffffffffffffffffffffffffffffffffffffff1673ffffffffffffffffffffffffffffffffffffffff168152602001908152602001600020819055505b81600360008673ffffffffffffffffffffffffffffffffffffffff1673ffffffffffffffffffffffffffffffffffffffff16815260200190815260200160002054101561122c576040517f08c379a000000000000000000000000000000000000000000000000000000000815260040180806020018281038252601d8152602001807f64732d746f6b656e2d696e73756666696369656e742d62616c616e636500000081525060200191505060405180910390fd5b611275600360008673ffffffffffffffffffffffffffffffffffffffff1673ffffffffffffffffffffffffffffffffffffffff1681526020019081526020016000205483612374565b600360008673ffffffffffffffffffffffffffffffffffffffff1673ffffffffffffffffffffffffffffffffffffffff16815260200190815260200160002081905550611301600360008573ffffffffffffffffffffffffffffffffffffffff1673ffffffffffffffffffffffffffffffffffffffff16815260200190815260200160002054836123f7565b600360008573ffffffffffffffffffffffffffffffffffffffff1673ffffffffffffffffffffffffffffffffffffffff168152602001908152602001600020819055508273ffffffffffffffffffffffffffffffffffffffff168473ffffffffffffffffffffffffffffffffffffffff167fddf252ad1be2c89b69c2b068fc378daa952ba7f163c4a11628f55a4df523b3ef846040518082815260200191505060405180910390a3600190509392505050565b600660009054906101000a900460ff1681565b6113d13382611abc565b50565b60036020528060005260406000206000915090505481565b600160149054906101000a900460ff1681565b61142d336000357fffffffff000000000000000000000000000000000000000000000000000000001661206a565b61149f576040517f08c379a00000000000000000000000000000000000000000000000000000000081526004018080602001828103825260148152602001807f64732d617574682d756e617574686f72697a656400000000000000000000000081525060200191505060405180910390fd5b806000806101000a81548173ffffffffffffffffffffffffffffffffffffffff021916908373ffffffffffffffffffffffffffffffffffffffff16021790555060008054906101000a900473ffffffffffffffffffffffffffffffffffffffff1673ffffffffffffffffffffffffffffffffffffffff167f1abebea81bfa2637f28358c371278fb15ede7ea8dd28d2e03b112ff6d936ada460405160405180910390a250565b611573336000357fffffffff000000000000000000000000000000000000000000000000000000001661206a565b6115e5576040517f08c379a00000000000000000000000000000000000000000000000000000000081526004018080602001828103825260148152602001807f64732d617574682d756e617574686f72697a656400000000000000000000000081525060200191505060405180910390fd5b600160149054906101000a900460ff1615611668576040517f08c379a00000000000000000000000000000000000000000000000000000000081526004018080602001828103825260128152602001807f64732d73746f702d69732d73746f70706564000000000000000000000000000081525060200191505060405180910390fd5b6116a66040518060400160405280600f81526020017f676f207468726f75676820686572650000000000000000000000000000000000815250612276565b6116ef600360008473ffffffffffffffffffffffffffffffffffffffff1673ffffffffffffffffffffffffffffffffffffffff16815260200190815260200160002054826123f7565b600360008473ffffffffffffffffffffffffffffffffffffffff1673ffffffffffffffffffffffffffffffffffffffff1681526020019081526020016000208190555061173e600254826123f7565b6002819055508173ffffffffffffffffffffffffffffffffffffffff167f0f6798a560793a54c3bcfe86a93cde1e73087d944c0ea20544137d4121396885826040518082815260200191505060405180910390a25050565b600160009054906101000a900473ffffffffffffffffffffffffffffffffffffffff1681565b60058054600181600116156101000203166002900480601f0160208091040260200160405190810160405280929190818152602001828054600181600116156101000203166002900480156118525780601f1061182757610100808354040283529160200191611852565b820191906000526020600020905b81548152906001019060200180831161183557829003601f168201915b505050505081565b6118643382611545565b50565b6000611874338484610e1c565b905092915050565b611887338383610e1c565b505050565b611897838383610e1c565b50505050565b6118cb336000357fffffffff000000000000000000000000000000000000000000000000000000001661206a565b61193d576040517f08c379a00000000000000000000000000000000000000000000000000000000081526004018080602001828103825260148152602001807f64732d617574682d756e617574686f72697a656400000000000000000000000081525060200191505060405180910390fd5b6000600160146101000a81548160ff0219169083151502179055507f1b55ba3aa851a46be3b365aee5b5c140edd620d578922f3e8466d2cbd96f954b60405160405180910390a1565b60008054906101000a900473ffffffffffffffffffffffffffffffffffffffff1681565b6119d8336000357fffffffff000000000000000000000000000000000000000000000000000000001661206a565b611a4a576040517f08c379a00000000000000000000000000000000000000000000000000000000081526004018080602001828103825260148152602001807f64732d617574682d756e617574686f72697a656400000000000000000000000081525060200191505060405180910390fd5b8060079080519060200190611a609291906124a3565b5050565b6000611a90827fffffffffffffffffffffffffffffffffffffffffffffffffffffffffffffffff610ad3565b9050919050565b6004602052816000526040600020602052806000526040600020600091509150505481565b611aea336000357fffffffff000000000000000000000000000000000000000000000000000000001661206a565b611b5c576040517f08c379a00000000000000000000000000000000000000000000000000000000081526004018080602001828103825260148152602001807f64732d617574682d756e617574686f72697a656400000000000000000000000081525060200191505060405180910390fd5b600160149054906101000a900460ff1615611bdf576040517f08c379a00000000000000000000000000000000000000000000000000000000081526004018080602001828103825260128152602001807f64732d73746f702d69732d73746f70706564000000000000000000000000000081525060200191505060405180910390fd5b3373ffffffffffffffffffffffffffffffffffffffff168273ffffffffffffffffffffffffffffffffffffffff1614158015611cb757507fffffffffffffffffffffffffffffffffffffffffffffffffffffffffffffffff600460008473ffffffffffffffffffffffffffffffffffffffff1673ffffffffffffffffffffffffffffffffffffffff16815260200190815260200160002060003373ffffffffffffffffffffffffffffffffffffffff1673ffffffffffffffffffffffffffffffffffffffff1681526020019081526020016000205414155b15611eb55780600460008473ffffffffffffffffffffffffffffffffffffffff1673ffffffffffffffffffffffffffffffffffffffff16815260200190815260200160002060003373ffffffffffffffffffffffffffffffffffffffff1673ffffffffffffffffffffffffffffffffffffffff168152602001908152602001600020541015611dae576040517f08c379a000000000000000000000000000000000000000000000000000000000815260040180806020018281038252601e8152602001807f64732d746f6b656e2d696e73756666696369656e742d617070726f76616c000081525060200191505060405180910390fd5b611e34600460008473ffffffffffffffffffffffffffffffffffffffff1673ffffffffffffffffffffffffffffffffffffffff16815260200190815260200160002060003373ffffffffffffffffffffffffffffffffffffffff1673ffffffffffffffffffffffffffffffffffffffff1681526020019081526020016000205482612374565b600460008473ffffffffffffffffffffffffffffffffffffffff1673ffffffffffffffffffffffffffffffffffffffff16815260200190815260200160002060003373ffffffffffffffffffffffffffffffffffffffff1673ffffffffffffffffffffffffffffffffffffffff168152602001908152602001600020819055505b80600360008473ffffffffffffffffffffffffffffffffffffffff1673ffffffffffffffffffffffffffffffffffffffff168152602001908152602001600020541015611f6a576040517f08c379a000000000000000000000000000000000000000000000000000000000815260040180806020018281038252601d8152602001807f64732d746f6b656e2d696e73756666696369656e742d62616c616e636500000081525060200191505060405180910390fd5b611fb3600360008473ffffffffffffffffffffffffffffffffffffffff1673ffffffffffffffffffffffffffffffffffffffff1681526020019081526020016000205482612374565b600360008473ffffffffffffffffffffffffffffffffffffffff1673ffffffffffffffffffffffffffffffffffffffff1681526020019081526020016000208190555061200260025482612374565b6002819055508173ffffffffffffffffffffffffffffffffffffffff167fcc16f5dbb4873280815c1ee09dbd06736cffcc184412cf7a71a0fdb75d397ca5826040518082815260200191505060405180910390a25050565b612065823383610e1c565b505050565b60003073ffffffffffffffffffffffffffffffffffffffff168373ffffffffffffffffffffffffffffffffffffffff1614156120a95760019050612270565b600160009054906101000a900473ffffffffffffffffffffffffffffffffffffffff1673ffffffffffffffffffffffffffffffffffffffff168373ffffffffffffffffffffffffffffffffffffffff1614156121085760019050612270565b600073ffffffffffffffffffffffffffffffffffffffff1660008054906101000a900473ffffffffffffffffffffffffffffffffffffffff1673ffffffffffffffffffffffffffffffffffffffff1614156121665760009050612270565b60008054906101000a900473ffffffffffffffffffffffffffffffffffffffff1673ffffffffffffffffffffffffffffffffffffffff1663b70096138430856040518463ffffffff1660e01b8152600401808473ffffffffffffffffffffffffffffffffffffffff1681526020018373ffffffffffffffffffffffffffffffffffffffff168152602001827bffffffffffffffffffffffffffffffffffffffffffffffffffffffff19168152602001935050505060206040518083038186803b15801561223257600080fd5b505afa158015612246573d6000803e3d6000fd5b505050506040513d602081101561225c57600080fd5b810190808051906020019092919050505090505b92915050565b612371816040516024018080602001828103825283818151815260200191508051906020019080838360005b838110156122bd5780820151818401526020810190506122a2565b50505050905090810190601f1680156122ea5780820380516001836020036101000a031916815260200191505b50925050506040516020818303038152906040527f41304fac000000000000000000000000000000000000000000000000000000007bffffffffffffffffffffffffffffffffffffffffffffffffffffffff19166020820180517bffffffffffffffffffffffffffffffffffffffffffffffffffffffff838183161783525050505061247a565b50565b60008282840391508111156123f1576040517f08c379a00000000000000000000000000000000000000000000000000000000081526004018080602001828103825260158152602001807f64732d6d6174682d7375622d756e646572666c6f77000000000000000000000081525060200191505060405180910390fd5b92915050565b6000828284019150811015612474576040517f08c379a00000000000000000000000000000000000000000000000000000000081526004018080602001828103825260148152602001807f64732d6d6174682d6164642d6f766572666c6f7700000000000000000000000081525060200191505060405180910390fd5b92915050565b60008151905060006a636f6e736f6c652e6c6f679050602083016000808483855afa5050505050565b828054600181600116156101000203166002900490600052602060002090601f016020900481019282601f106124e457805160ff1916838001178555612512565b82800160010185558215612512579182015b828111156125115782518255916020019190600101906124f6565b5b50905061251f9190612523565b5090565b5b8082111561253c576000816000905550600101612524565b509056fea26469706673582212201e5865bbe684296e27057b52ac27969614823176afbacb83aaa0d7c35aee4dc264736f6c634300060c0033",
  "linkReferences": {},
  "deployedLinkReferences": {}
}