{
  "_format": "hh-sol-artifact-1",
  "contractName": "DssCdpManager",
  "sourceName": "contracts/dai/liquidation-auction-module/DssCdpManager.sol",
  "abi": [
    {
      "inputs": [
        {
          "internalType": "address",
          "name": "vat_",
          "type": "address"
        }
      ],
      "stateMutability": "nonpayable",
      "type": "constructor"
    },
    {
      "anonymous": false,
      "inputs": [
        {
          "indexed": true,
          "internalType": "address",
          "name": "usr",
          "type": "address"
        },
        {
          "indexed": true,
          "internalType": "address",
          "name": "own",
          "type": "address"
        },
        {
          "indexed": true,
          "internalType": "uint256",
          "name": "cdp",
          "type": "uint256"
        }
      ],
      "name": "NewCdp",
      "type": "event"
    },
    {
      "inputs": [
        {
          "internalType": "uint256",
          "name": "cdp",
          "type": "uint256"
        },
        {
          "internalType": "address",
          "name": "usr",
          "type": "address"
        },
        {
          "internalType": "uint256",
          "name": "ok",
          "type": "uint256"
        }
      ],
      "name": "cdpAllow",
      "outputs": [],
      "stateMutability": "nonpayable",
      "type": "function"
    },
    {
      "inputs": [
        {
          "internalType": "address",
          "name": "",
          "type": "address"
        },
        {
          "internalType": "uint256",
          "name": "",
          "type": "uint256"
        },
        {
          "internalType": "address",
          "name": "",
          "type": "address"
        }
      ],
      "name": "cdpCan",
      "outputs": [
        {
          "internalType": "uint256",
          "name": "",
          "type": "uint256"
        }
      ],
      "stateMutability": "view",
      "type": "function"
    },
    {
      "inputs": [],
      "name": "cdpi",
      "outputs": [
        {
          "internalType": "uint256",
          "name": "",
          "type": "uint256"
        }
      ],
      "stateMutability": "view",
      "type": "function"
    },
    {
      "inputs": [
        {
          "internalType": "address",
          "name": "",
          "type": "address"
        }
      ],
      "name": "count",
      "outputs": [
        {
          "internalType": "uint256",
          "name": "",
          "type": "uint256"
        }
      ],
      "stateMutability": "view",
      "type": "function"
    },
    {
      "inputs": [
        {
          "internalType": "address",
          "name": "src",
          "type": "address"
        },
        {
          "internalType": "uint256",
          "name": "cdp",
          "type": "uint256"
        }
      ],
      "name": "enter",
      "outputs": [],
      "stateMutability": "nonpayable",
      "type": "function"
    },
    {
      "inputs": [
        {
          "internalType": "address",
          "name": "",
          "type": "address"
        }
      ],
      "name": "first",
      "outputs": [
        {
          "internalType": "uint256",
          "name": "",
          "type": "uint256"
        }
      ],
      "stateMutability": "view",
      "type": "function"
    },
    {
      "inputs": [
        {
          "internalType": "bytes32",
          "name": "ilk",
          "type": "bytes32"
        },
        {
          "internalType": "uint256",
          "name": "cdp",
          "type": "uint256"
        },
        {
          "internalType": "address",
          "name": "dst",
          "type": "address"
        },
        {
          "internalType": "uint256",
          "name": "wad",
          "type": "uint256"
        }
      ],
      "name": "flux",
      "outputs": [],
      "stateMutability": "nonpayable",
      "type": "function"
    },
    {
      "inputs": [
        {
          "internalType": "uint256",
          "name": "cdp",
          "type": "uint256"
        },
        {
          "internalType": "address",
          "name": "dst",
          "type": "address"
        },
        {
          "internalType": "uint256",
          "name": "wad",
          "type": "uint256"
        }
      ],
      "name": "flux",
      "outputs": [],
      "stateMutability": "nonpayable",
      "type": "function"
    },
    {
      "inputs": [
        {
          "internalType": "uint256",
          "name": "cdp",
          "type": "uint256"
        },
        {
          "internalType": "int256",
          "name": "dink",
          "type": "int256"
        },
        {
          "internalType": "int256",
          "name": "dart",
          "type": "int256"
        }
      ],
      "name": "frob",
      "outputs": [],
      "stateMutability": "nonpayable",
      "type": "function"
    },
    {
      "inputs": [
        {
          "internalType": "uint256",
          "name": "cdpID",
          "type": "uint256"
        }
      ],
      "name": "getUrn",
      "outputs": [
        {
          "internalType": "address",
          "name": "",
          "type": "address"
        }
      ],
      "stateMutability": "view",
      "type": "function"
    },
    {
      "inputs": [
        {
          "internalType": "uint256",
          "name": "cdp",
          "type": "uint256"
        },
        {
          "internalType": "address",
          "name": "dst",
          "type": "address"
        }
      ],
      "name": "give",
      "outputs": [],
      "stateMutability": "nonpayable",
      "type": "function"
    },
    {
      "inputs": [
        {
          "internalType": "uint256",
          "name": "",
          "type": "uint256"
        }
      ],
      "name": "ilks",
      "outputs": [
        {
          "internalType": "bytes32",
          "name": "",
          "type": "bytes32"
        }
      ],
      "stateMutability": "view",
      "type": "function"
    },
    {
      "inputs": [
        {
          "internalType": "address",
          "name": "",
          "type": "address"
        }
      ],
      "name": "last",
      "outputs": [
        {
          "internalType": "uint256",
          "name": "",
          "type": "uint256"
        }
      ],
      "stateMutability": "view",
      "type": "function"
    },
    {
      "inputs": [
        {
          "internalType": "uint256",
          "name": "",
          "type": "uint256"
        }
      ],
      "name": "list",
      "outputs": [
        {
          "internalType": "uint256",
          "name": "prev",
          "type": "uint256"
        },
        {
          "internalType": "uint256",
          "name": "next",
          "type": "uint256"
        }
      ],
      "stateMutability": "view",
      "type": "function"
    },
    {
      "inputs": [
        {
          "internalType": "uint256",
          "name": "cdp",
          "type": "uint256"
        },
        {
          "internalType": "address",
          "name": "dst",
          "type": "address"
        },
        {
          "internalType": "uint256",
          "name": "rad",
          "type": "uint256"
        }
      ],
      "name": "move",
      "outputs": [],
      "stateMutability": "nonpayable",
      "type": "function"
    },
    {
      "inputs": [
        {
          "internalType": "bytes32",
          "name": "ilk",
          "type": "bytes32"
        },
        {
          "internalType": "address",
          "name": "usr",
          "type": "address"
        }
      ],
      "name": "open",
      "outputs": [
        {
          "internalType": "uint256",
          "name": "",
          "type": "uint256"
        }
      ],
      "stateMutability": "nonpayable",
      "type": "function"
    },
    {
      "inputs": [
        {
          "internalType": "uint256",
          "name": "",
          "type": "uint256"
        }
      ],
      "name": "owns",
      "outputs": [
        {
          "internalType": "address",
          "name": "",
          "type": "address"
        }
      ],
      "stateMutability": "view",
      "type": "function"
    },
    {
      "inputs": [
        {
          "internalType": "uint256",
          "name": "cdp",
          "type": "uint256"
        },
        {
          "internalType": "address",
          "name": "dst",
          "type": "address"
        }
      ],
      "name": "quit",
      "outputs": [],
      "stateMutability": "nonpayable",
      "type": "function"
    },
    {
      "inputs": [
        {
          "internalType": "uint256",
          "name": "cdpSrc",
          "type": "uint256"
        },
        {
          "internalType": "uint256",
          "name": "cdpDst",
          "type": "uint256"
        }
      ],
      "name": "shift",
      "outputs": [],
      "stateMutability": "nonpayable",
      "type": "function"
    },
    {
      "inputs": [
        {
          "internalType": "address",
          "name": "usr",
          "type": "address"
        },
        {
          "internalType": "uint256",
          "name": "ok",
          "type": "uint256"
        }
      ],
      "name": "urnAllow",
      "outputs": [],
      "stateMutability": "nonpayable",
      "type": "function"
    },
    {
      "inputs": [
        {
          "internalType": "address",
          "name": "",
          "type": "address"
        },
        {
          "internalType": "address",
          "name": "",
          "type": "address"
        }
      ],
      "name": "urnCan",
      "outputs": [
        {
          "internalType": "uint256",
          "name": "",
          "type": "uint256"
        }
      ],
      "stateMutability": "view",
      "type": "function"
    },
    {
      "inputs": [
        {
          "internalType": "uint256",
          "name": "",
          "type": "uint256"
        }
      ],
      "name": "urns",
      "outputs": [
        {
          "internalType": "address",
          "name": "",
          "type": "address"
        }
      ],
      "stateMutability": "view",
      "type": "function"
    },
    {
      "inputs": [],
      "name": "vat",
      "outputs": [
        {
          "internalType": "address",
          "name": "",
          "type": "address"
        }
      ],
      "stateMutability": "view",
      "type": "function"
    }
  ],
  "bytecode": "0x60806040523480156200001157600080fd5b5060405162003bc338038062003bc38339818101604052810190620000379190620000e8565b806000806101000a81548173ffffffffffffffffffffffffffffffffffffffff021916908373ffffffffffffffffffffffffffffffffffffffff160217905550506200011a565b600080fd5b600073ffffffffffffffffffffffffffffffffffffffff82169050919050565b6000620000b08262000083565b9050919050565b620000c281620000a3565b8114620000ce57600080fd5b50565b600081519050620000e281620000b7565b92915050565b6000602082840312156200010157620001006200007e565b5b60006200011184828501620000d1565b91505092915050565b613a99806200012a6000396000f3fe60806040523480156200001157600080fd5b50600436106200016c5760003560e01c80637e348b7d11620000d5578063b3d178f21162000087578063b3d178f21462000470578063b68f40041462000492578063e50322a214620004b2578063f9f30db614620004d2578063fc73d77114620004f2578063fcafcc681462000528576200016c565b80637e348b7d146200035757806380c9419e14620003775780638161b12014620003ae5780639a816f7d14620003e45780639bb8f838146200041a578063b2b192e6146200043a576200016c565b80632726b073116200012f5780632726b073146200023d5780632c2cb9fd146200027357806336569e7714620002a957806345e6bdcd14620002cb5780635aebb46014620002eb5780636090dec51462000321576200016c565b806305d85eda14620001715780630b63fb6214620001a757806318af4d6014620001c75780631b0dbf7214620001e757806326414cc81462000207575b600080fd5b6200018f600480360381019062000189919062002eb2565b62000548565b6040516200019e919062002eff565b60405180910390f35b620001c56004803603810190620001bf919062002f4d565b62000560565b005b620001e56004803603810190620001df919062002fe4565b6200079c565b005b620002056004803603810190620001ff919062003056565b620009dc565b005b6200022560048036038101906200021f91906200309d565b62000e2d565b604051620002349190620030e0565b60405180910390f35b6200025b60048036038101906200025591906200309d565b62000e6a565b6040516200026a9190620030e0565b60405180910390f35b6200029160048036038101906200028b91906200309d565b62000e9d565b604051620002a091906200310e565b60405180910390f35b620002b362000eb5565b604051620002c29190620030e0565b60405180910390f35b620002e96004803603810190620002e3919062003166565b62000ed9565b005b620003096004803603810190620003039190620031c2565b62001135565b60405162000318919062002eff565b60405180910390f35b6200033f60048036038101906200033991906200321e565b62001167565b6040516200034e919062002eff565b60405180910390f35b6200037560048036038101906200036f919062003265565b620015d6565b005b6200039560048036038101906200038f91906200309d565b620019f4565b604051620003a5929190620032ac565b60405180910390f35b620003cc6004803603810190620003c691906200309d565b62001a18565b604051620003db9190620030e0565b60405180910390f35b620004026004803603810190620003fc919062002eb2565b62001a4b565b60405162000411919062002eff565b60405180910390f35b62000438600480360381019062000432919062002f4d565b62001a63565b005b620004586004803603810190620004529190620032d9565b62001cb5565b60405162000467919062002eff565b60405180910390f35b6200047a62001cda565b60405162000489919062002eff565b60405180910390f35b620004b06004803603810190620004aa919062003265565b62001ce0565b005b620004d06004803603810190620004ca919062003320565b62001d65565b005b620004f06004803603810190620004ea919062002f4d565b620022cb565b005b6200051060048036038101906200050a919062002eb2565b62002508565b6040516200051f919062002eff565b60405180910390f35b62000546600480360381019062000540919062003056565b62002520565b005b60086020528060005260406000206000915090505481565b826004600082815260200190815260200160002060009054906101000a900473ffffffffffffffffffffffffffffffffffffffff1673ffffffffffffffffffffffffffffffffffffffff163373ffffffffffffffffffffffffffffffffffffffff1614806200068f57506001600960006004600085815260200190815260200160002060009054906101000a900473ffffffffffffffffffffffffffffffffffffffff1673ffffffffffffffffffffffffffffffffffffffff1673ffffffffffffffffffffffffffffffffffffffff168152602001908152602001600020600083815260200190815260200160002060003373ffffffffffffffffffffffffffffffffffffffff1673ffffffffffffffffffffffffffffffffffffffff16815260200190815260200160002054145b620006d1576040517f08c379a0000000000000000000000000000000000000000000000000000000008152600401620006c890620033c8565b60405180910390fd5b81600960006004600088815260200190815260200160002060009054906101000a900473ffffffffffffffffffffffffffffffffffffffff1673ffffffffffffffffffffffffffffffffffffffff1673ffffffffffffffffffffffffffffffffffffffff168152602001908152602001600020600086815260200190815260200160002060008573ffffffffffffffffffffffffffffffffffffffff1673ffffffffffffffffffffffffffffffffffffffff1681526020019081526020016000208190555050505050565b826004600082815260200190815260200160002060009054906101000a900473ffffffffffffffffffffffffffffffffffffffff1673ffffffffffffffffffffffffffffffffffffffff163373ffffffffffffffffffffffffffffffffffffffff161480620008cb57506001600960006004600085815260200190815260200160002060009054906101000a900473ffffffffffffffffffffffffffffffffffffffff1673ffffffffffffffffffffffffffffffffffffffff1673ffffffffffffffffffffffffffffffffffffffff168152602001908152602001600020600083815260200190815260200160002060003373ffffffffffffffffffffffffffffffffffffffff1673ffffffffffffffffffffffffffffffffffffffff16815260200190815260200160002054145b6200090d576040517f08c379a00000000000000000000000000000000000000000000000000000000081526004016200090490620033c8565b60405180910390fd5b60008054906101000a900473ffffffffffffffffffffffffffffffffffffffff1673ffffffffffffffffffffffffffffffffffffffff16636111be2e866002600088815260200190815260200160002060009054906101000a900473ffffffffffffffffffffffffffffffffffffffff1686866040518563ffffffff1660e01b8152600401620009a19493929190620033ea565b600060405180830381600087803b158015620009bc57600080fd5b505af1158015620009d1573d6000803e3d6000fd5b505050505050505050565b816004600082815260200190815260200160002060009054906101000a900473ffffffffffffffffffffffffffffffffffffffff1673ffffffffffffffffffffffffffffffffffffffff163373ffffffffffffffffffffffffffffffffffffffff16148062000b0b57506001600960006004600085815260200190815260200160002060009054906101000a900473ffffffffffffffffffffffffffffffffffffffff1673ffffffffffffffffffffffffffffffffffffffff1673ffffffffffffffffffffffffffffffffffffffff168152602001908152602001600020600083815260200190815260200160002060003373ffffffffffffffffffffffffffffffffffffffff1673ffffffffffffffffffffffffffffffffffffffff16815260200190815260200160002054145b62000b4d576040517f08c379a000000000000000000000000000000000000000000000000000000000815260040162000b4490620033c8565b60405180910390fd5b818073ffffffffffffffffffffffffffffffffffffffff163373ffffffffffffffffffffffffffffffffffffffff16148062000c0557506001600a60008373ffffffffffffffffffffffffffffffffffffffff1673ffffffffffffffffffffffffffffffffffffffff16815260200190815260200160002060003373ffffffffffffffffffffffffffffffffffffffff1673ffffffffffffffffffffffffffffffffffffffff16815260200190815260200160002054145b62000c47576040517f08c379a000000000000000000000000000000000000000000000000000000000815260040162000c3e9062003487565b60405180910390fd5b60008060008054906101000a900473ffffffffffffffffffffffffffffffffffffffff1673ffffffffffffffffffffffffffffffffffffffff16632424be5c6005600089815260200190815260200160002054600260008a815260200190815260200160002060009054906101000a900473ffffffffffffffffffffffffffffffffffffffff166040518363ffffffff1660e01b815260040162000ced929190620034a9565b6040805180830381865afa15801562000d0a573d6000803e3d6000fd5b505050506040513d601f19601f8201168201806040525081019062000d309190620034ed565b9150915060008054906101000a900473ffffffffffffffffffffffffffffffffffffffff1673ffffffffffffffffffffffffffffffffffffffff1663870c616d6005600089815260200190815260200160002054600260008a815260200190815260200160002060009054906101000a900473ffffffffffffffffffffffffffffffffffffffff168862000dc48762002dd5565b62000dcf8762002dd5565b6040518663ffffffff1660e01b815260040162000df195949392919062003545565b600060405180830381600087803b15801562000e0c57600080fd5b505af115801562000e21573d6000803e3d6000fd5b50505050505050505050565b60006002600083815260200190815260200160002060009054906101000a900473ffffffffffffffffffffffffffffffffffffffff169050919050565b60026020528060005260406000206000915054906101000a900473ffffffffffffffffffffffffffffffffffffffff1681565b60056020528060005260406000206000915090505481565b60008054906101000a900473ffffffffffffffffffffffffffffffffffffffff1681565b826004600082815260200190815260200160002060009054906101000a900473ffffffffffffffffffffffffffffffffffffffff1673ffffffffffffffffffffffffffffffffffffffff163373ffffffffffffffffffffffffffffffffffffffff1614806200100857506001600960006004600085815260200190815260200160002060009054906101000a900473ffffffffffffffffffffffffffffffffffffffff1673ffffffffffffffffffffffffffffffffffffffff1673ffffffffffffffffffffffffffffffffffffffff168152602001908152602001600020600083815260200190815260200160002060003373ffffffffffffffffffffffffffffffffffffffff1673ffffffffffffffffffffffffffffffffffffffff16815260200190815260200160002054145b6200104a576040517f08c379a00000000000000000000000000000000000000000000000000000000081526004016200104190620033c8565b60405180910390fd5b60006002600086815260200190815260200160002060009054906101000a900473ffffffffffffffffffffffffffffffffffffffff16905060008054906101000a900473ffffffffffffffffffffffffffffffffffffffff1673ffffffffffffffffffffffffffffffffffffffff166376088703600560008881526020019081526020016000205483848589896040518763ffffffff1660e01b8152600401620010fa96959493929190620035a2565b600060405180830381600087803b1580156200111557600080fd5b505af11580156200112a573d6000803e3d6000fd5b505050505050505050565b600960205282600052604060002060205281600052604060002060205280600052604060002060009250925050505481565b60008073ffffffffffffffffffffffffffffffffffffffff168273ffffffffffffffffffffffffffffffffffffffff1603620011da576040517f08c379a0000000000000000000000000000000000000000000000000000000008152600401620011d1906200365f565b60405180910390fd5b620011e9600154600162002dee565b60018190555060008054906101000a900473ffffffffffffffffffffffffffffffffffffffff166040516200121e9062002e3a565b6200122a9190620030e0565b604051809103906000f08015801562001247573d6000803e3d6000fd5b5060026000600154815260200190815260200160002060006101000a81548173ffffffffffffffffffffffffffffffffffffffff021916908373ffffffffffffffffffffffffffffffffffffffff1602179055508160046000600154815260200190815260200160002060006101000a81548173ffffffffffffffffffffffffffffffffffffffff021916908373ffffffffffffffffffffffffffffffffffffffff16021790555082600560006001548152602001908152602001600020819055506000600660008473ffffffffffffffffffffffffffffffffffffffff1673ffffffffffffffffffffffffffffffffffffffff16815260200190815260200160002054036200139857600154600660008473ffffffffffffffffffffffffffffffffffffffff1673ffffffffffffffffffffffffffffffffffffffff168152602001908152602001600020819055505b6000600760008473ffffffffffffffffffffffffffffffffffffffff1673ffffffffffffffffffffffffffffffffffffffff16815260200190815260200160002054146200149957600760008373ffffffffffffffffffffffffffffffffffffffff1673ffffffffffffffffffffffffffffffffffffffff168152602001908152602001600020546003600060015481526020019081526020016000206000018190555060015460036000600760008673ffffffffffffffffffffffffffffffffffffffff1673ffffffffffffffffffffffffffffffffffffffff168152602001908152602001600020548152602001908152602001600020600101819055505b600154600760008473ffffffffffffffffffffffffffffffffffffffff1673ffffffffffffffffffffffffffffffffffffffff168152602001908152602001600020819055506200152b600860008473ffffffffffffffffffffffffffffffffffffffff1673ffffffffffffffffffffffffffffffffffffffff16815260200190815260200160002054600162002dee565b600860008473ffffffffffffffffffffffffffffffffffffffff1673ffffffffffffffffffffffffffffffffffffffff168152602001908152602001600020819055506001548273ffffffffffffffffffffffffffffffffffffffff163373ffffffffffffffffffffffffffffffffffffffff167fd6be0bc178658a382ff4f91c8c68b542aa6b71685b8fe427966b87745c3ea7a260405160405180910390a4600154905092915050565b818073ffffffffffffffffffffffffffffffffffffffff163373ffffffffffffffffffffffffffffffffffffffff1614806200168e57506001600a60008373ffffffffffffffffffffffffffffffffffffffff1673ffffffffffffffffffffffffffffffffffffffff16815260200190815260200160002060003373ffffffffffffffffffffffffffffffffffffffff1673ffffffffffffffffffffffffffffffffffffffff16815260200190815260200160002054145b620016d0576040517f08c379a0000000000000000000000000000000000000000000000000000000008152600401620016c79062003487565b60405180910390fd5b816004600082815260200190815260200160002060009054906101000a900473ffffffffffffffffffffffffffffffffffffffff1673ffffffffffffffffffffffffffffffffffffffff163373ffffffffffffffffffffffffffffffffffffffff161480620017ff57506001600960006004600085815260200190815260200160002060009054906101000a900473ffffffffffffffffffffffffffffffffffffffff1673ffffffffffffffffffffffffffffffffffffffff1673ffffffffffffffffffffffffffffffffffffffff168152602001908152602001600020600083815260200190815260200160002060003373ffffffffffffffffffffffffffffffffffffffff1673ffffffffffffffffffffffffffffffffffffffff16815260200190815260200160002054145b62001841576040517f08c379a00000000000000000000000000000000000000000000000000000000081526004016200183890620033c8565b60405180910390fd5b60008060008054906101000a900473ffffffffffffffffffffffffffffffffffffffff1673ffffffffffffffffffffffffffffffffffffffff16632424be5c6005600088815260200190815260200160002054886040518363ffffffff1660e01b8152600401620018b4929190620034a9565b6040805180830381865afa158015620018d1573d6000803e3d6000fd5b505050506040513d601f19601f82011682018060405250810190620018f79190620034ed565b9150915060008054906101000a900473ffffffffffffffffffffffffffffffffffffffff1673ffffffffffffffffffffffffffffffffffffffff1663870c616d600560008881526020019081526020016000205488600260008a815260200190815260200160002060009054906101000a900473ffffffffffffffffffffffffffffffffffffffff166200198b8762002dd5565b620019968762002dd5565b6040518663ffffffff1660e01b8152600401620019b895949392919062003545565b600060405180830381600087803b158015620019d357600080fd5b505af1158015620019e8573d6000803e3d6000fd5b50505050505050505050565b60036020528060005260406000206000915090508060000154908060010154905082565b60046020528060005260406000206000915054906101000a900473ffffffffffffffffffffffffffffffffffffffff1681565b60076020528060005260406000206000915090505481565b826004600082815260200190815260200160002060009054906101000a900473ffffffffffffffffffffffffffffffffffffffff1673ffffffffffffffffffffffffffffffffffffffff163373ffffffffffffffffffffffffffffffffffffffff16148062001b9257506001600960006004600085815260200190815260200160002060009054906101000a900473ffffffffffffffffffffffffffffffffffffffff1673ffffffffffffffffffffffffffffffffffffffff1673ffffffffffffffffffffffffffffffffffffffff168152602001908152602001600020600083815260200190815260200160002060003373ffffffffffffffffffffffffffffffffffffffff1673ffffffffffffffffffffffffffffffffffffffff16815260200190815260200160002054145b62001bd4576040517f08c379a000000000000000000000000000000000000000000000000000000000815260040162001bcb90620033c8565b60405180910390fd5b60008054906101000a900473ffffffffffffffffffffffffffffffffffffffff1673ffffffffffffffffffffffffffffffffffffffff16636111be2e60056000878152602001908152602001600020546002600088815260200190815260200160002060009054906101000a900473ffffffffffffffffffffffffffffffffffffffff1686866040518563ffffffff1660e01b815260040162001c7b9493929190620033ea565b600060405180830381600087803b15801562001c9657600080fd5b505af115801562001cab573d6000803e3d6000fd5b5050505050505050565b600a602052816000526040600020602052806000526040600020600091509150505481565b60015481565b80600a60003373ffffffffffffffffffffffffffffffffffffffff1673ffffffffffffffffffffffffffffffffffffffff16815260200190815260200160002060008473ffffffffffffffffffffffffffffffffffffffff1673ffffffffffffffffffffffffffffffffffffffff168152602001908152602001600020819055505050565b816004600082815260200190815260200160002060009054906101000a900473ffffffffffffffffffffffffffffffffffffffff1673ffffffffffffffffffffffffffffffffffffffff163373ffffffffffffffffffffffffffffffffffffffff16148062001e9457506001600960006004600085815260200190815260200160002060009054906101000a900473ffffffffffffffffffffffffffffffffffffffff1673ffffffffffffffffffffffffffffffffffffffff1673ffffffffffffffffffffffffffffffffffffffff168152602001908152602001600020600083815260200190815260200160002060003373ffffffffffffffffffffffffffffffffffffffff1673ffffffffffffffffffffffffffffffffffffffff16815260200190815260200160002054145b62001ed6576040517f08c379a000000000000000000000000000000000000000000000000000000000815260040162001ecd90620033c8565b60405180910390fd5b816004600082815260200190815260200160002060009054906101000a900473ffffffffffffffffffffffffffffffffffffffff1673ffffffffffffffffffffffffffffffffffffffff163373ffffffffffffffffffffffffffffffffffffffff1614806200200557506001600960006004600085815260200190815260200160002060009054906101000a900473ffffffffffffffffffffffffffffffffffffffff1673ffffffffffffffffffffffffffffffffffffffff1673ffffffffffffffffffffffffffffffffffffffff168152602001908152602001600020600083815260200190815260200160002060003373ffffffffffffffffffffffffffffffffffffffff1673ffffffffffffffffffffffffffffffffffffffff16815260200190815260200160002054145b62002047576040517f08c379a00000000000000000000000000000000000000000000000000000000081526004016200203e90620033c8565b60405180910390fd5b6005600084815260200190815260200160002054600560008681526020019081526020016000205414620020b2576040517f08c379a0000000000000000000000000000000000000000000000000000000008152600401620020a990620036d1565b60405180910390fd5b60008060008054906101000a900473ffffffffffffffffffffffffffffffffffffffff1673ffffffffffffffffffffffffffffffffffffffff16632424be5c6005600089815260200190815260200160002054600260008a815260200190815260200160002060009054906101000a900473ffffffffffffffffffffffffffffffffffffffff166040518363ffffffff1660e01b815260040162002158929190620034a9565b6040805180830381865afa15801562002175573d6000803e3d6000fd5b505050506040513d601f19601f820116820180604052508101906200219b9190620034ed565b9150915060008054906101000a900473ffffffffffffffffffffffffffffffffffffffff1673ffffffffffffffffffffffffffffffffffffffff1663870c616d6005600089815260200190815260200160002054600260008a815260200190815260200160002060009054906101000a900473ffffffffffffffffffffffffffffffffffffffff16600260008a815260200190815260200160002060009054906101000a900473ffffffffffffffffffffffffffffffffffffffff16620022628762002dd5565b6200226d8762002dd5565b6040518663ffffffff1660e01b81526004016200228f95949392919062003545565b600060405180830381600087803b158015620022aa57600080fd5b505af1158015620022bf573d6000803e3d6000fd5b50505050505050505050565b826004600082815260200190815260200160002060009054906101000a900473ffffffffffffffffffffffffffffffffffffffff1673ffffffffffffffffffffffffffffffffffffffff163373ffffffffffffffffffffffffffffffffffffffff161480620023fa57506001600960006004600085815260200190815260200160002060009054906101000a900473ffffffffffffffffffffffffffffffffffffffff1673ffffffffffffffffffffffffffffffffffffffff1673ffffffffffffffffffffffffffffffffffffffff168152602001908152602001600020600083815260200190815260200160002060003373ffffffffffffffffffffffffffffffffffffffff1673ffffffffffffffffffffffffffffffffffffffff16815260200190815260200160002054145b6200243c576040517f08c379a00000000000000000000000000000000000000000000000000000000081526004016200243390620033c8565b60405180910390fd5b60008054906101000a900473ffffffffffffffffffffffffffffffffffffffff1673ffffffffffffffffffffffffffffffffffffffff1663bb35783b6002600087815260200190815260200160002060009054906101000a900473ffffffffffffffffffffffffffffffffffffffff1685856040518463ffffffff1660e01b8152600401620024ce93929190620036f3565b600060405180830381600087803b158015620024e957600080fd5b505af1158015620024fe573d6000803e3d6000fd5b5050505050505050565b60066020528060005260406000206000915090505481565b816004600082815260200190815260200160002060009054906101000a900473ffffffffffffffffffffffffffffffffffffffff1673ffffffffffffffffffffffffffffffffffffffff163373ffffffffffffffffffffffffffffffffffffffff1614806200264f57506001600960006004600085815260200190815260200160002060009054906101000a900473ffffffffffffffffffffffffffffffffffffffff1673ffffffffffffffffffffffffffffffffffffffff1673ffffffffffffffffffffffffffffffffffffffff168152602001908152602001600020600083815260200190815260200160002060003373ffffffffffffffffffffffffffffffffffffffff1673ffffffffffffffffffffffffffffffffffffffff16815260200190815260200160002054145b62002691576040517f08c379a00000000000000000000000000000000000000000000000000000000081526004016200268890620033c8565b60405180910390fd5b600073ffffffffffffffffffffffffffffffffffffffff168273ffffffffffffffffffffffffffffffffffffffff160362002703576040517f08c379a0000000000000000000000000000000000000000000000000000000008152600401620026fa9062003780565b60405180910390fd5b6004600084815260200190815260200160002060009054906101000a900473ffffffffffffffffffffffffffffffffffffffff1673ffffffffffffffffffffffffffffffffffffffff168273ffffffffffffffffffffffffffffffffffffffff1603620027a7576040517f08c379a00000000000000000000000000000000000000000000000000000000081526004016200279e90620037f2565b60405180910390fd5b60006003600085815260200190815260200160002060000154146200280e5760036000848152602001908152602001600020600101546003600060036000878152602001908152602001600020600001548152602001908152602001600020600101819055505b60006003600085815260200190815260200160002060010154146200287a57600360008481526020019081526020016000206000015460036000600360008781526020019081526020016000206001015481526020019081526020016000206000018190555062002908565b6003600084815260200190815260200160002060000154600760006004600087815260200190815260200160002060009054906101000a900473ffffffffffffffffffffffffffffffffffffffff1673ffffffffffffffffffffffffffffffffffffffff1673ffffffffffffffffffffffffffffffffffffffff168152602001908152602001600020819055505b82600660006004600087815260200190815260200160002060009054906101000a900473ffffffffffffffffffffffffffffffffffffffff1673ffffffffffffffffffffffffffffffffffffffff1673ffffffffffffffffffffffffffffffffffffffff168152602001908152602001600020540362002a10576003600084815260200190815260200160002060010154600660006004600087815260200190815260200160002060009054906101000a900473ffffffffffffffffffffffffffffffffffffffff1673ffffffffffffffffffffffffffffffffffffffff1673ffffffffffffffffffffffffffffffffffffffff168152602001908152602001600020819055505b62002a8f600860006004600087815260200190815260200160002060009054906101000a900473ffffffffffffffffffffffffffffffffffffffff1673ffffffffffffffffffffffffffffffffffffffff1673ffffffffffffffffffffffffffffffffffffffff16815260200190815260200160002054600162002e14565b600860006004600087815260200190815260200160002060009054906101000a900473ffffffffffffffffffffffffffffffffffffffff1673ffffffffffffffffffffffffffffffffffffffff1673ffffffffffffffffffffffffffffffffffffffff16815260200190815260200160002081905550816004600085815260200190815260200160002060006101000a81548173ffffffffffffffffffffffffffffffffffffffff021916908373ffffffffffffffffffffffffffffffffffffffff160217905550600760008373ffffffffffffffffffffffffffffffffffffffff1673ffffffffffffffffffffffffffffffffffffffff168152602001908152602001600020546003600085815260200190815260200160002060000181905550600060036000858152602001908152602001600020600101819055506000600760008473ffffffffffffffffffffffffffffffffffffffff1673ffffffffffffffffffffffffffffffffffffffff168152602001908152602001600020541462002c70578260036000600760008673ffffffffffffffffffffffffffffffffffffffff1673ffffffffffffffffffffffffffffffffffffffff168152602001908152602001600020548152602001908152602001600020600101819055505b6000600660008473ffffffffffffffffffffffffffffffffffffffff1673ffffffffffffffffffffffffffffffffffffffff168152602001908152602001600020540362002cfd5782600660008473ffffffffffffffffffffffffffffffffffffffff1673ffffffffffffffffffffffffffffffffffffffff168152602001908152602001600020819055505b82600760008473ffffffffffffffffffffffffffffffffffffffff1673ffffffffffffffffffffffffffffffffffffffff1681526020019081526020016000208190555062002d8d600860008473ffffffffffffffffffffffffffffffffffffffff1673ffffffffffffffffffffffffffffffffffffffff16815260200190815260200160002054600162002dee565b600860008473ffffffffffffffffffffffffffffffffffffffff1673ffffffffffffffffffffffffffffffffffffffff16815260200190815260200160002081905550505050565b6000819050600081121562002de957600080fd5b919050565b600082828462002dff919062003843565b915081101562002e0e57600080fd5b92915050565b600082828462002e2591906200387e565b915081111562002e3457600080fd5b92915050565b6101aa80620038ba83390190565b600080fd5b600073ffffffffffffffffffffffffffffffffffffffff82169050919050565b600062002e7a8262002e4d565b9050919050565b62002e8c8162002e6d565b811462002e9857600080fd5b50565b60008135905062002eac8162002e81565b92915050565b60006020828403121562002ecb5762002eca62002e48565b5b600062002edb8482850162002e9b565b91505092915050565b6000819050919050565b62002ef98162002ee4565b82525050565b600060208201905062002f16600083018462002eee565b92915050565b62002f278162002ee4565b811462002f3357600080fd5b50565b60008135905062002f478162002f1c565b92915050565b60008060006060848603121562002f695762002f6862002e48565b5b600062002f798682870162002f36565b935050602062002f8c8682870162002e9b565b925050604062002f9f8682870162002f36565b9150509250925092565b6000819050919050565b62002fbe8162002fa9565b811462002fca57600080fd5b50565b60008135905062002fde8162002fb3565b92915050565b6000806000806080858703121562003001576200300062002e48565b5b6000620030118782880162002fcd565b9450506020620030248782880162002f36565b9350506040620030378782880162002e9b565b92505060606200304a8782880162002f36565b91505092959194509250565b6000806040838503121562003070576200306f62002e48565b5b6000620030808582860162002f36565b9250506020620030938582860162002e9b565b9150509250929050565b600060208284031215620030b657620030b562002e48565b5b6000620030c68482850162002f36565b91505092915050565b620030da8162002e6d565b82525050565b6000602082019050620030f76000830184620030cf565b92915050565b620031088162002fa9565b82525050565b6000602082019050620031256000830184620030fd565b92915050565b6000819050919050565b62003140816200312b565b81146200314c57600080fd5b50565b600081359050620031608162003135565b92915050565b60008060006060848603121562003182576200318162002e48565b5b6000620031928682870162002f36565b9350506020620031a5868287016200314f565b9250506040620031b8868287016200314f565b9150509250925092565b600080600060608486031215620031de57620031dd62002e48565b5b6000620031ee8682870162002e9b565b9350506020620032018682870162002f36565b9250506040620032148682870162002e9b565b9150509250925092565b6000806040838503121562003238576200323762002e48565b5b6000620032488582860162002fcd565b92505060206200325b8582860162002e9b565b9150509250929050565b600080604083850312156200327f576200327e62002e48565b5b60006200328f8582860162002e9b565b9250506020620032a28582860162002f36565b9150509250929050565b6000604082019050620032c3600083018562002eee565b620032d2602083018462002eee565b9392505050565b60008060408385031215620032f357620032f262002e48565b5b6000620033038582860162002e9b565b9250506020620033168582860162002e9b565b9150509250929050565b600080604083850312156200333a576200333962002e48565b5b60006200334a8582860162002f36565b92505060206200335d8582860162002f36565b9150509250929050565b600082825260208201905092915050565b7f6364702d6e6f742d616c6c6f7765640000000000000000000000000000000000600082015250565b6000620033b0600f8362003367565b9150620033bd8262003378565b602082019050919050565b60006020820190508181036000830152620033e381620033a1565b9050919050565b6000608082019050620034016000830187620030fd565b620034106020830186620030cf565b6200341f6040830185620030cf565b6200342e606083018462002eee565b95945050505050565b7f75726e2d6e6f742d616c6c6f7765640000000000000000000000000000000000600082015250565b60006200346f600f8362003367565b91506200347c8262003437565b602082019050919050565b60006020820190508181036000830152620034a28162003460565b9050919050565b6000604082019050620034c06000830185620030fd565b620034cf6020830184620030cf565b9392505050565b600081519050620034e78162002f1c565b92915050565b6000806040838503121562003507576200350662002e48565b5b60006200351785828601620034d6565b92505060206200352a85828601620034d6565b9150509250929050565b6200353f816200312b565b82525050565b600060a0820190506200355c6000830188620030fd565b6200356b6020830187620030cf565b6200357a6040830186620030cf565b62003589606083018562003534565b62003598608083018462003534565b9695505050505050565b600060c082019050620035b96000830189620030fd565b620035c86020830188620030cf565b620035d76040830187620030cf565b620035e66060830186620030cf565b620035f5608083018562003534565b6200360460a083018462003534565b979650505050505050565b7f7573722d616464726573732d3000000000000000000000000000000000000000600082015250565b600062003647600d8362003367565b915062003654826200360f565b602082019050919050565b600060208201905081810360008301526200367a8162003638565b9050919050565b7f6e6f6e2d6d61746368696e672d63647073000000000000000000000000000000600082015250565b6000620036b960118362003367565b9150620036c68262003681565b602082019050919050565b60006020820190508181036000830152620036ec81620036aa565b9050919050565b60006060820190506200370a6000830186620030cf565b620037196020830185620030cf565b62003728604083018462002eee565b949350505050565b7f6473742d616464726573732d3000000000000000000000000000000000000000600082015250565b600062003768600d8362003367565b9150620037758262003730565b602082019050919050565b600060208201905081810360008301526200379b8162003759565b9050919050565b7f6473742d616c72656164792d6f776e6572000000000000000000000000000000600082015250565b6000620037da60118362003367565b9150620037e782620037a2565b602082019050919050565b600060208201905081810360008301526200380d81620037cb565b9050919050565b7f4e487b7100000000000000000000000000000000000000000000000000000000600052601160045260246000fd5b6000620038508262002ee4565b91506200385d8362002ee4565b925082820190508082111562003878576200387762003814565b5b92915050565b60006200388b8262002ee4565b9150620038988362002ee4565b9250828203905081811115620038b357620038b262003814565b5b9291505056fe608060405234801561001057600080fd5b506040516101aa3803806101aa83398181016040528101906100329190610106565b8073ffffffffffffffffffffffffffffffffffffffff1663a3b22fc4336040518263ffffffff1660e01b815260040161006b9190610142565b600060405180830381600087803b15801561008557600080fd5b505af1158015610099573d6000803e3d6000fd5b505050505061015d565b600080fd5b600073ffffffffffffffffffffffffffffffffffffffff82169050919050565b60006100d3826100a8565b9050919050565b6100e3816100c8565b81146100ee57600080fd5b50565b600081519050610100816100da565b92915050565b60006020828403121561011c5761011b6100a3565b5b600061012a848285016100f1565b91505092915050565b61013c816100c8565b82525050565b60006020820190506101576000830184610133565b92915050565b603f8061016b6000396000f3fe6080604052600080fdfea264697066735822122056f05497c15585b4e5a1cd26e9d7f353df039d30f445ddada4dd1af5fd4869a364736f6c63430008110033a26469706673582212202b8009f988c12ef4ccf0482b0501d6012beed802b8991edf874274aa5b68168d64736f6c63430008110033",
  "linkReferences": {},
  "deployedLinkReferences": {}
}