{
  "_format": "hh-sol-artifact-1",
  "contractName": "Jug",
  "sourceName": "contracts/dai/liquidation-auction-module/jug.sol",
  "abi": [
    {
      "inputs": [
        {
          "internalType": "address",
          "name": "vat_",
          "type": "address"
        }
      ],
      "stateMutability": "nonpayable",
      "type": "constructor"
    },
    {
      "inputs": [],
      "name": "base",
      "outputs": [
        {
          "internalType": "uint256",
          "name": "",
          "type": "uint256"
        }
      ],
      "stateMutability": "view",
      "type": "function"
    },
    {
      "inputs": [
        {
          "internalType": "address",
          "name": "usr",
          "type": "address"
        }
      ],
      "name": "deny",
      "outputs": [],
      "stateMutability": "nonpayable",
      "type": "function"
    },
    {
      "inputs": [
        {
          "internalType": "bytes32",
          "name": "ilk",
          "type": "bytes32"
        }
      ],
      "name": "drip",
      "outputs": [
        {
          "internalType": "uint256",
          "name": "rate",
          "type": "uint256"
        }
      ],
      "stateMutability": "nonpayable",
      "type": "function"
    },
    {
      "inputs": [
        {
          "internalType": "bytes32",
          "name": "ilk",
          "type": "bytes32"
        },
        {
          "internalType": "bytes32",
          "name": "what",
          "type": "bytes32"
        },
        {
          "internalType": "uint256",
          "name": "data",
          "type": "uint256"
        }
      ],
      "name": "file",
      "outputs": [],
      "stateMutability": "nonpayable",
      "type": "function"
    },
    {
      "inputs": [
        {
          "internalType": "bytes32",
          "name": "what",
          "type": "bytes32"
        },
        {
          "internalType": "address",
          "name": "data",
          "type": "address"
        }
      ],
      "name": "file",
      "outputs": [],
      "stateMutability": "nonpayable",
      "type": "function"
    },
    {
      "inputs": [
        {
          "internalType": "bytes32",
          "name": "what",
          "type": "bytes32"
        },
        {
          "internalType": "uint256",
          "name": "data",
          "type": "uint256"
        }
      ],
      "name": "file_base",
      "outputs": [],
      "stateMutability": "nonpayable",
      "type": "function"
    },
    {
      "inputs": [
        {
          "internalType": "bytes32",
          "name": "",
          "type": "bytes32"
        }
      ],
      "name": "ilks",
      "outputs": [
        {
          "internalType": "uint256",
          "name": "duty",
          "type": "uint256"
        },
        {
          "internalType": "uint256",
          "name": "rho",
          "type": "uint256"
        }
      ],
      "stateMutability": "view",
      "type": "function"
    },
    {
      "inputs": [
        {
          "internalType": "bytes32",
          "name": "ilk",
          "type": "bytes32"
        }
      ],
      "name": "init",
      "outputs": [],
      "stateMutability": "nonpayable",
      "type": "function"
    },
    {
      "inputs": [
        {
          "internalType": "address",
          "name": "usr",
          "type": "address"
        }
      ],
      "name": "rely",
      "outputs": [],
      "stateMutability": "nonpayable",
      "type": "function"
    },
    {
      "inputs": [
        {
          "internalType": "string",
          "name": "source",
          "type": "string"
        }
      ],
      "name": "stringToBytes32",
      "outputs": [
        {
          "internalType": "bytes32",
          "name": "result",
          "type": "bytes32"
        }
      ],
      "stateMutability": "pure",
      "type": "function"
    },
    {
      "inputs": [],
      "name": "vat",
      "outputs": [
        {
          "internalType": "contract VatLike",
          "name": "",
          "type": "address"
        }
      ],
      "stateMutability": "view",
      "type": "function"
    },
    {
      "inputs": [],
      "name": "vow",
      "outputs": [
        {
          "internalType": "address",
          "name": "",
          "type": "address"
        }
      ],
      "stateMutability": "view",
      "type": "function"
    },
    {
      "inputs": [
        {
          "internalType": "address",
          "name": "",
          "type": "address"
        }
      ],
      "name": "wards",
      "outputs": [
        {
          "internalType": "uint256",
          "name": "",
          "type": "uint256"
        }
      ],
      "stateMutability": "view",
      "type": "function"
    }
  ],
  "bytecode": "0x608060405234801561001057600080fd5b506040516115263803806115268339818101604052602081101561003357600080fd5b810190808051906020019092919050505060016000803373ffffffffffffffffffffffffffffffffffffffff1673ffffffffffffffffffffffffffffffffffffffff1681526020019081526020016000208190555080600260006101000a81548173ffffffffffffffffffffffffffffffffffffffff021916908373ffffffffffffffffffffffffffffffffffffffff1602179055505061144d806100d96000396000f3fe608060405234801561001057600080fd5b50600436106100cf5760003560e01c8063626cb3c51161008c578063bf353dbb11610066578063bf353dbb146102cc578063cfb5192814610324578063d4e8be83146103f3578063d9638d3614610441576100cf565b8063626cb3c51461021057806365fae35e146102445780639c52a7f114610288576100cf565b806315bcebda146100d45780631a0b287e1461010c57806336569e771461014e5780633b6631951461018257806344e2a5a8146101b05780635001f3b5146101f2575b600080fd5b61010a600480360360408110156100ea57600080fd5b81019080803590602001909291908035906020019092919050505061048a565b005b61014c6004803603606081101561012257600080fd5b810190808035906020019092919080359060200190929190803590602001909291905050506105e4565b005b6101566107de565b604051808273ffffffffffffffffffffffffffffffffffffffff16815260200191505060405180910390f35b6101ae6004803603602081101561019857600080fd5b8101908080359060200190929190505050610804565b005b6101dc600480360360208110156101c657600080fd5b810190808035906020019092919050505061096b565b6040518082815260200191505060405180910390f35b6101fa610d7d565b6040518082815260200191505060405180910390f35b610218610d83565b604051808273ffffffffffffffffffffffffffffffffffffffff16815260200191505060405180910390f35b6102866004803603602081101561025a57600080fd5b81019080803573ffffffffffffffffffffffffffffffffffffffff169060200190929190505050610da9565b005b6102ca6004803603602081101561029e57600080fd5b81019080803573ffffffffffffffffffffffffffffffffffffffff169060200190929190505050610ea4565b005b61030e600480360360208110156102e257600080fd5b81019080803573ffffffffffffffffffffffffffffffffffffffff169060200190929190505050610f9f565b6040518082815260200191505060405180910390f35b6103dd6004803603602081101561033a57600080fd5b810190808035906020019064010000000081111561035757600080fd5b82018360208201111561036957600080fd5b8035906020019184600183028401116401000000008311171561038b57600080fd5b91908080601f016020809104026020016040519081016040528093929190818152602001838380828437600081840152601f19601f820116905080830192505050505050509192919290505050610fb7565b6040518082815260200191505060405180910390f35b61043f6004803603604081101561040957600080fd5b8101908080359060200190929190803573ffffffffffffffffffffffffffffffffffffffff169060200190929190505050610fe2565b005b61046d6004803603602081101561045757600080fd5b8101908080359060200190929190505050611176565b604051808381526020018281526020019250505060405180910390f35b60016000803373ffffffffffffffffffffffffffffffffffffffff1673ffffffffffffffffffffffffffffffffffffffff168152602001908152602001600020541461053e576040517f08c379a00000000000000000000000000000000000000000000000000000000081526004018080602001828103825260128152602001807f4a75672f6e6f742d617574686f72697a6564000000000000000000000000000081525060200191505060405180910390fd5b7f626173650000000000000000000000000000000000000000000000000000000082141561057257806004819055506105e0565b6040517f08c379a000000000000000000000000000000000000000000000000000000000815260040180806020018281038252601b8152602001807f4a75672f66696c652d756e7265636f676e697a65642d706172616d000000000081525060200191505060405180910390fd5b5050565b60016000803373ffffffffffffffffffffffffffffffffffffffff1673ffffffffffffffffffffffffffffffffffffffff1681526020019081526020016000205414610698576040517f08c379a00000000000000000000000000000000000000000000000000000000081526004018080602001828103825260128152602001807f4a75672f6e6f742d617574686f72697a6564000000000000000000000000000081525060200191505060405180910390fd5b60016000848152602001908152602001600020600101544214610723576040517f08c379a00000000000000000000000000000000000000000000000000000000081526004018080602001828103825260138152602001807f4a75672f72686f2d6e6f742d757064617465640000000000000000000000000081525060200191505060405180910390fd5b7f647574790000000000000000000000000000000000000000000000000000000082141561076b578060016000858152602001908152602001600020600001819055506107d9565b6040517f08c379a000000000000000000000000000000000000000000000000000000000815260040180806020018281038252601b8152602001807f4a75672f66696c652d756e7265636f676e697a65642d706172616d000000000081525060200191505060405180910390fd5b505050565b600260009054906101000a900473ffffffffffffffffffffffffffffffffffffffff1681565b60016000803373ffffffffffffffffffffffffffffffffffffffff1673ffffffffffffffffffffffffffffffffffffffff16815260200190815260200160002054146108b8576040517f08c379a00000000000000000000000000000000000000000000000000000000081526004018080602001828103825260128152602001807f4a75672f6e6f742d617574686f72697a6564000000000000000000000000000081525060200191505060405180910390fd5b60006001600083815260200190815260200160002090506000816000015414610949576040517f08c379a00000000000000000000000000000000000000000000000000000000081526004018080602001828103825260148152602001807f4a75672f696c6b2d616c72656164792d696e697400000000000000000000000081525060200191505060405180910390fd5b6b033b2e3c9fd0803ce800000081600001819055504281600101819055505050565b600060016000838152602001908152602001600020600101544210156109f9576040517f08c379a000000000000000000000000000000000000000000000000000000000815260040180806020018281038252600f8152602001807f4a75672f696e76616c69642d6e6f77000000000000000000000000000000000081525060200191505060405180910390fd5b6000600260009054906101000a900473ffffffffffffffffffffffffffffffffffffffff1673ffffffffffffffffffffffffffffffffffffffff1663d9638d36846040518263ffffffff1660e01b8152600401808281526020019150506040805180830381600087803b158015610a6f57600080fd5b505af1158015610a83573d6000803e3d6000fd5b505050506040513d6040811015610a9957600080fd5b810190808051906020019092919080519060200190929190505050915050610af66040518060400160405280600481526020017f70726576000000000000000000000000000000000000000000000000000000008152508261119a565b610b566040518060400160405280600981526020017f626173652b647574790000000000000000000000000000000000000000000000815250610b5160045460016000888152602001908152602001600020600001546112a1565b61119a565b610be46040518060400160405280600381526020017f706f770000000000000000000000000000000000000000000000000000000000815250610bdf610bb460045460016000898152602001908152602001600020600001546112a1565b600160008881526020019081526020016000206001015442036b033b2e3c9fd0803ce80000006112bb565b61119a565b610c3d610c37610c0c60045460016000888152602001908152602001600020600001546112a1565b600160008781526020019081526020016000206001015442036b033b2e3c9fd0803ce80000006112bb565b82611381565b9150610c7e6040518060400160405280600481526020017f72617465000000000000000000000000000000000000000000000000000000008152508361119a565b600260009054906101000a900473ffffffffffffffffffffffffffffffffffffffff1673ffffffffffffffffffffffffffffffffffffffff1663b65337df84600360009054906101000a900473ffffffffffffffffffffffffffffffffffffffff16610cea86866113c6565b6040518463ffffffff1660e01b8152600401808481526020018373ffffffffffffffffffffffffffffffffffffffff1681526020018281526020019350505050600060405180830381600087803b158015610d4457600080fd5b505af1158015610d58573d6000803e3d6000fd5b5050505042600160008581526020019081526020016000206001018190555050919050565b60045481565b600360009054906101000a900473ffffffffffffffffffffffffffffffffffffffff1681565b60016000803373ffffffffffffffffffffffffffffffffffffffff1673ffffffffffffffffffffffffffffffffffffffff1681526020019081526020016000205414610e5d576040517f08c379a00000000000000000000000000000000000000000000000000000000081526004018080602001828103825260128152602001807f4a75672f6e6f742d617574686f72697a6564000000000000000000000000000081525060200191505060405180910390fd5b60016000808373ffffffffffffffffffffffffffffffffffffffff1673ffffffffffffffffffffffffffffffffffffffff1681526020019081526020016000208190555050565b60016000803373ffffffffffffffffffffffffffffffffffffffff1673ffffffffffffffffffffffffffffffffffffffff1681526020019081526020016000205414610f58576040517f08c379a00000000000000000000000000000000000000000000000000000000081526004018080602001828103825260128152602001807f4a75672f6e6f742d617574686f72697a6564000000000000000000000000000081525060200191505060405180910390fd5b60008060008373ffffffffffffffffffffffffffffffffffffffff1673ffffffffffffffffffffffffffffffffffffffff1681526020019081526020016000208190555050565b60006020528060005260406000206000915090505481565b60006060829050600081511415610fd4576000801b915050610fdd565b60208301519150505b919050565b60016000803373ffffffffffffffffffffffffffffffffffffffff1673ffffffffffffffffffffffffffffffffffffffff1681526020019081526020016000205414611096576040517f08c379a00000000000000000000000000000000000000000000000000000000081526004018080602001828103825260128152602001807f4a75672f6e6f742d617574686f72697a6564000000000000000000000000000081525060200191505060405180910390fd5b7f766f7700000000000000000000000000000000000000000000000000000000008214156111045780600360006101000a81548173ffffffffffffffffffffffffffffffffffffffff021916908373ffffffffffffffffffffffffffffffffffffffff160217905550611172565b6040517f08c379a000000000000000000000000000000000000000000000000000000000815260040180806020018281038252601b8152602001807f4a75672f66696c652d756e7265636f676e697a65642d706172616d000000000081525060200191505060405180910390fd5b5050565b60016020528060005260406000206000915090508060000154908060010154905082565b61129d82826040516024018080602001838152602001828103825284818151815260200191508051906020019080838360005b838110156111e85780820151818401526020810190506111cd565b50505050905090810190601f1680156112155780820380516001836020036101000a031916815260200191505b5093505050506040516020818303038152906040527fb60e72cc000000000000000000000000000000000000000000000000000000007bffffffffffffffffffffffffffffffffffffffffffffffffffffffff19166020820180517bffffffffffffffffffffffffffffffffffffffffffffffffffffffff83818316178352505050506113ee565b5050565b60008183019050828110156112b557600080fd5b92915050565b600083600081146113615760028406600081146112da578592506112de565b8392505b50600283046002850494505b841561135b57858602868782041461130157600080fd5b8181018181101561131157600080fd5b8581049750600287061561134e57878502858982041415891515161561133657600080fd5b8381018181101561134657600080fd5b878104965050505b50506002850494506112ea565b50611379565b83600081146113735760009250611377565b8392505b505b509392505050565b60008183029050600082148061139f57508282828161139c57fe5b04145b6113a857600080fd5b6b033b2e3c9fd0803ce800000081816113bd57fe5b04905092915050565b60008183039050600083121580156113df575060008212155b6113e857600080fd5b92915050565b60008151905060006a636f6e736f6c652e6c6f679050602083016000808483855afa505050505056fea264697066735822122035369cbf92670a4e23be08b3dd5aadc4f498c8e3ec94ffb604a0af6b050fb1cc64736f6c634300060c0033",
  "linkReferences": {},
  "deployedLinkReferences": {}
}