{
  "_format": "hh-sol-artifact-1",
  "contractName": "VoteFactory",
  "sourceName": "contracts/VoteFactory.sol",
  "abi": [
    {
      "inputs": [],
      "stateMutability": "nonpayable",
      "type": "constructor"
    },
    {
      "anonymous": false,
      "inputs": [
        {
          "indexed": true,
          "internalType": "address",
          "name": "voterAddress",
          "type": "address"
        },
        {
          "indexed": false,
          "internalType": "uint256",
          "name": "pollID",
          "type": "uint256"
        }
      ],
      "name": "AddVoter",
      "type": "event"
    },
    {
      "anonymous": false,
      "inputs": [
        {
          "indexed": false,
          "internalType": "uint256",
          "name": "pollID",
          "type": "uint256"
        },
        {
          "indexed": true,
          "internalType": "address",
          "name": "creator",
          "type": "address"
        },
        {
          "indexed": false,
          "internalType": "string",
          "name": "proposal",
          "type": "string"
        },
        {
          "indexed": false,
          "internalType": "string",
          "name": "pollName",
          "type": "string"
        }
      ],
      "name": "CreatPoll",
      "type": "event"
    },
    {
      "anonymous": false,
      "inputs": [
        {
          "indexed": true,
          "internalType": "address",
          "name": "voter",
          "type": "address"
        },
        {
          "indexed": false,
          "internalType": "uint256",
          "name": "pollID",
          "type": "uint256"
        }
      ],
      "name": "DoVote",
      "type": "event"
    },
    {
      "anonymous": false,
      "inputs": [
        {
          "indexed": false,
          "internalType": "uint256",
          "name": "pollID",
          "type": "uint256"
        },
        {
          "indexed": false,
          "internalType": "uint256",
          "name": "finalResult",
          "type": "uint256"
        }
      ],
      "name": "EndVote",
      "type": "event"
    },
    {
      "anonymous": false,
      "inputs": [
        {
          "indexed": false,
          "internalType": "uint256",
          "name": "pollID",
          "type": "uint256"
        }
      ],
      "name": "StartVote",
      "type": "event"
    },
    {
      "inputs": [
        {
          "internalType": "address",
          "name": "_AccountAddress",
          "type": "address"
        }
      ],
      "name": "Retrieve",
      "outputs": [
        {
          "internalType": "uint256",
          "name": "",
          "type": "uint256"
        }
      ],
      "stateMutability": "view",
      "type": "function"
    },
    {
      "inputs": [
        {
          "internalType": "address",
          "name": "_voterAddress",
          "type": "address"
        },
        {
          "internalType": "uint256",
          "name": "pollID",
          "type": "uint256"
        }
      ],
      "name": "addVoter",
      "outputs": [],
      "stateMutability": "nonpayable",
      "type": "function"
    },
    {
      "inputs": [],
      "name": "contractOwner",
      "outputs": [
        {
          "internalType": "address",
          "name": "",
          "type": "address"
        }
      ],
      "stateMutability": "view",
      "type": "function"
    },
    {
      "inputs": [
        {
          "internalType": "string",
          "name": "pollName",
          "type": "string"
        },
        {
          "internalType": "string",
          "name": "proposal",
          "type": "string"
        }
      ],
      "name": "createPoll",
      "outputs": [],
      "stateMutability": "nonpayable",
      "type": "function"
    },
    {
      "inputs": [
        {
          "internalType": "bool",
          "name": "_choice",
          "type": "bool"
        },
        {
          "internalType": "uint256",
          "name": "pollID",
          "type": "uint256"
        }
      ],
      "name": "doVote",
      "outputs": [],
      "stateMutability": "nonpayable",
      "type": "function"
    },
    {
      "inputs": [
        {
          "internalType": "uint256",
          "name": "pollID",
          "type": "uint256"
        }
      ],
      "name": "endVote",
      "outputs": [],
      "stateMutability": "nonpayable",
      "type": "function"
    },
    {
      "inputs": [],
      "name": "getListPoll",
      "outputs": [
        {
          "components": [
            {
              "internalType": "uint256",
              "name": "countResult",
              "type": "uint256"
            },
            {
              "internalType": "uint256",
              "name": "finalResult",
              "type": "uint256"
            },
            {
              "internalType": "uint256",
              "name": "totalVoter",
              "type": "uint256"
            },
            {
              "internalType": "uint256",
              "name": "totalVote",
              "type": "uint256"
            },
            {
              "internalType": "string",
              "name": "PollName",
              "type": "string"
            },
            {
              "internalType": "string",
              "name": "proposal",
              "type": "string"
            },
            {
              "internalType": "enum VoteFactory.State",
              "name": "state",
              "type": "uint8"
            }
          ],
          "internalType": "struct VoteFactory.Poll[]",
          "name": "",
          "type": "tuple[]"
        }
      ],
      "stateMutability": "view",
      "type": "function"
    },
    {
      "inputs": [],
      "name": "pollCount",
      "outputs": [
        {
          "internalType": "uint256",
          "name": "",
          "type": "uint256"
        }
      ],
      "stateMutability": "view",
      "type": "function"
    },
    {
      "inputs": [
        {
          "internalType": "uint256",
          "name": "",
          "type": "uint256"
        },
        {
          "internalType": "uint256",
          "name": "",
          "type": "uint256"
        }
      ],
      "name": "pollIDToListVote",
      "outputs": [
        {
          "internalType": "address",
          "name": "voterAddress",
          "type": "address"
        },
        {
          "internalType": "bool",
          "name": "choice",
          "type": "bool"
        }
      ],
      "stateMutability": "view",
      "type": "function"
    },
    {
      "inputs": [
        {
          "internalType": "uint256",
          "name": "",
          "type": "uint256"
        },
        {
          "internalType": "uint256",
          "name": "",
          "type": "uint256"
        }
      ],
      "name": "pollIDToListVoter",
      "outputs": [
        {
          "internalType": "address",
          "name": "voterAddress",
          "type": "address"
        },
        {
          "internalType": "bool",
          "name": "voted",
          "type": "bool"
        }
      ],
      "stateMutability": "view",
      "type": "function"
    },
    {
      "inputs": [
        {
          "internalType": "uint256",
          "name": "",
          "type": "uint256"
        }
      ],
      "name": "pollIDToPoll",
      "outputs": [
        {
          "internalType": "uint256",
          "name": "countResult",
          "type": "uint256"
        },
        {
          "internalType": "uint256",
          "name": "finalResult",
          "type": "uint256"
        },
        {
          "internalType": "uint256",
          "name": "totalVoter",
          "type": "uint256"
        },
        {
          "internalType": "uint256",
          "name": "totalVote",
          "type": "uint256"
        },
        {
          "internalType": "string",
          "name": "PollName",
          "type": "string"
        },
        {
          "internalType": "string",
          "name": "proposal",
          "type": "string"
        },
        {
          "internalType": "enum VoteFactory.State",
          "name": "state",
          "type": "uint8"
        }
      ],
      "stateMutability": "view",
      "type": "function"
    },
    {
      "inputs": [
        {
          "internalType": "uint256",
          "name": "",
          "type": "uint256"
        }
      ],
      "name": "polls",
      "outputs": [
        {
          "internalType": "uint256",
          "name": "countResult",
          "type": "uint256"
        },
        {
          "internalType": "uint256",
          "name": "finalResult",
          "type": "uint256"
        },
        {
          "internalType": "uint256",
          "name": "totalVoter",
          "type": "uint256"
        },
        {
          "internalType": "uint256",
          "name": "totalVote",
          "type": "uint256"
        },
        {
          "internalType": "string",
          "name": "PollName",
          "type": "string"
        },
        {
          "internalType": "string",
          "name": "proposal",
          "type": "string"
        },
        {
          "internalType": "enum VoteFactory.State",
          "name": "state",
          "type": "uint8"
        }
      ],
      "stateMutability": "view",
      "type": "function"
    },
    {
      "inputs": [
        {
          "internalType": "uint256",
          "name": "pollID",
          "type": "uint256"
        }
      ],
      "name": "startVote",
      "outputs": [],
      "stateMutability": "nonpayable",
      "type": "function"
    }
  ],
  "bytecode": "0x608060405234801561001057600080fd5b5033600160006101000a81548173ffffffffffffffffffffffffffffffffffffffff021916908373ffffffffffffffffffffffffffffffffffffffff16021790555061251b806100616000396000f3fe608060405234801561001057600080fd5b50600436106100cf5760003560e01c80638930b1ca1161008c5780639af03f82116100665780639af03f821461022a578063ac2f007414610248578063b9f05f2f1461027e578063ce606ee01461029a576100cf565b80638930b1ca146101a55780639207891d146101db57806398dea034146101f9576100cf565b806304710b66146100d45780631f4ca0d4146100f057806339ff7c48146101215780633f22052414610151578063569b9cc71461016d578063865df0ad14610189575b600080fd5b6100ee60048036038101906100e9919061188b565b6102b8565b005b61010a60048036038101906101059190611939565b61059f565b6040516101189291906119d5565b60405180910390f35b61013b60048036038101906101369190611a2a565b610609565b6040516101489190611a66565b60405180910390f35b61016b60048036038101906101669190611a81565b61062a565b005b61018760048036038101906101829190611ada565b6107c1565b005b6101a3600480360381019061019e9190611a81565b610bcf565b005b6101bf60048036038101906101ba9190611a81565b610daf565b6040516101d29796959493929190611c10565b60405180910390f35b6101e3610f0e565b6040516101f09190611a66565b60405180910390f35b610213600480360381019061020e9190611939565b610f14565b6040516102219291906119d5565b60405180910390f35b610232610f7e565b60405161023f9190611e5a565b60405180910390f35b610262600480360381019061025d9190611a81565b611164565b6040516102759796959493929190611c10565b60405180910390f35b61029860048036038101906102939190611e7c565b6112d3565b005b6102a2611658565b6040516102af9190611ebc565b60405180910390f35b600160009054906101000a900473ffffffffffffffffffffffffffffffffffffffff1673ffffffffffffffffffffffffffffffffffffffff163373ffffffffffffffffffffffffffffffffffffffff1614610348576040517f08c379a000000000000000000000000000000000000000000000000000000000815260040161033f90611f23565b60405180910390fd5b61035061167e565b6000816000018181525050600081602001818152505060008160400181815250506000816060018181525050828160800181905250818160a0018190525060008160c0019060028111156103a7576103a6611b99565b5b908160028111156103bb576103ba611b99565b5b815250506000808154809291906103d190611f72565b919050555080600460008054815260200190815260200160002060008201518160000155602082015181600101556040820151816002015560608201518160030155608082015181600401908161042891906121c6565b5060a082015181600501908161043e91906121c6565b5060c08201518160060160006101000a81548160ff0219169083600281111561046a57610469611b99565b5b021790555090505060058190806001815401808255809150506001900390600052602060002090600702016000909190919091506000820151816000015560208201518160010155604082015181600201556060820151816003015560808201518160040190816104db91906121c6565b5060a08201518160050190816104f191906121c6565b5060c08201518160060160006101000a81548160ff0219169083600281111561051d5761051c611b99565b5b02179055505050600160009054906101000a900473ffffffffffffffffffffffffffffffffffffffff1673ffffffffffffffffffffffffffffffffffffffff167f36b9927ff5193f4503e3ca7c991fc15ae5c83b613d7d975c5c84545ca624c474600054848660405161059293929190612298565b60405180910390a2505050565b600260205281600052604060002081815481106105bb57600080fd5b90600052602060002001600091509150508060000160009054906101000a900473ffffffffffffffffffffffffffffffffffffffff16908060000160149054906101000a900460ff16905082565b60008173ffffffffffffffffffffffffffffffffffffffff16319050919050565b6000818160028111156106405761063f611b99565b5b6004600083815260200190815260200160002060060160009054906101000a900460ff16600281111561067657610675611b99565b5b146106b6576040517f08c379a00000000000000000000000000000000000000000000000000000000081526004016106ad90612329565b60405180910390fd5b600160009054906101000a900473ffffffffffffffffffffffffffffffffffffffff1673ffffffffffffffffffffffffffffffffffffffff163373ffffffffffffffffffffffffffffffffffffffff1614610746576040517f08c379a000000000000000000000000000000000000000000000000000000000815260040161073d90611f23565b60405180910390fd5b60016004600085815260200190815260200160002060060160006101000a81548160ff021916908360028111156107805761077f611b99565b5b02179055507f33c2d6285ba1442f7dd954820743aacec7468bc52e1671024b948f48f1322640836040516107b49190611a66565b60405180910390a1505050565b6001818160028111156107d7576107d6611b99565b5b6004600083815260200190815260200160002060060160009054906101000a900460ff16600281111561080d5761080c611b99565b5b1461084d576040517f08c379a000000000000000000000000000000000000000000000000000000000815260040161084490612329565b60405180910390fd5b60008080600090505b6003600087815260200190815260200160002080549050811015610914573373ffffffffffffffffffffffffffffffffffffffff166003600088815260200190815260200160002082815481106108b0576108af612349565b5b9060005260206000200160000160009054906101000a900473ffffffffffffffffffffffffffffffffffffffff1673ffffffffffffffffffffffffffffffffffffffff160361090157600192508091505b808061090c90611f72565b915050610856565b50600115158215151461095c576040517f08c379a0000000000000000000000000000000000000000000000000000000008152600401610953906123c4565b60405180910390fd5b60036000868152602001908152602001600020818154811061098157610980612349565b5b9060005260206000200160000160149054906101000a900460ff16156109dc576040517f08c379a00000000000000000000000000000000000000000000000000000000081526004016109d390612430565b60405180910390fd5b6001600360008781526020019081526020016000208281548110610a0357610a02612349565b5b9060005260206000200160000160146101000a81548160ff0219169083151502179055508515610a5a57600460008681526020019081526020016000206000016000815480929190610a5490611f72565b91905055505b610a626116cd565b33816000019073ffffffffffffffffffffffffffffffffffffffff16908173ffffffffffffffffffffffffffffffffffffffff16815250508681602001901515908115158152505060026000878152602001908152602001600020819080600181540180825580915050600190039060005260206000200160009091909190915060008201518160000160006101000a81548173ffffffffffffffffffffffffffffffffffffffff021916908373ffffffffffffffffffffffffffffffffffffffff16021790555060208201518160000160146101000a81548160ff0219169083151502179055505050600460008781526020019081526020016000206003016000815480929190610b7390611f72565b91905055503373ffffffffffffffffffffffffffffffffffffffff167f731b4642005b8ed56bdd191a72d071e583d449edc0bebf2e317d73461ee93c4587604051610bbe9190611a66565b60405180910390a250505050505050565b600181816002811115610be557610be4611b99565b5b6004600083815260200190815260200160002060060160009054906101000a900460ff166002811115610c1b57610c1a611b99565b5b14610c5b576040517f08c379a0000000000000000000000000000000000000000000000000000000008152600401610c5290612329565b60405180910390fd5b600160009054906101000a900473ffffffffffffffffffffffffffffffffffffffff1673ffffffffffffffffffffffffffffffffffffffff163373ffffffffffffffffffffffffffffffffffffffff1614610ceb576040517f08c379a0000000000000000000000000000000000000000000000000000000008152600401610ce290611f23565b60405180910390fd5b60026004600085815260200190815260200160002060060160006101000a81548160ff02191690836002811115610d2557610d24611b99565b5b0217905550600460008481526020019081526020016000206000015460046000858152602001908152602001600020600101819055507f7414cef146736256ae6acb00f67446e8c4f2166f5f67750320a75172d3b72ac3836004600086815260200190815260200160002060010154604051610da2929190612450565b60405180910390a1505050565b6004602052806000526040600020600091509050806000015490806001015490806002015490806003015490806004018054610dea90611fe9565b80601f0160208091040260200160405190810160405280929190818152602001828054610e1690611fe9565b8015610e635780601f10610e3857610100808354040283529160200191610e63565b820191906000526020600020905b815481529060010190602001808311610e4657829003601f168201915b505050505090806005018054610e7890611fe9565b80601f0160208091040260200160405190810160405280929190818152602001828054610ea490611fe9565b8015610ef15780601f10610ec657610100808354040283529160200191610ef1565b820191906000526020600020905b815481529060010190602001808311610ed457829003601f168201915b5050505050908060060160009054906101000a900460ff16905087565b60005481565b60036020528160005260406000208181548110610f3057600080fd5b90600052602060002001600091509150508060000160009054906101000a900473ffffffffffffffffffffffffffffffffffffffff16908060000160149054906101000a900460ff16905082565b60606005805480602002602001604051908101604052809291908181526020016000905b8282101561115b57838290600052602060002090600702016040518060e001604052908160008201548152602001600182015481526020016002820154815260200160038201548152602001600482018054610ffd90611fe9565b80601f016020809104026020016040519081016040528092919081815260200182805461102990611fe9565b80156110765780601f1061104b57610100808354040283529160200191611076565b820191906000526020600020905b81548152906001019060200180831161105957829003601f168201915b5050505050815260200160058201805461108f90611fe9565b80601f01602080910402602001604051908101604052809291908181526020018280546110bb90611fe9565b80156111085780601f106110dd57610100808354040283529160200191611108565b820191906000526020600020905b8154815290600101906020018083116110eb57829003601f168201915b505050505081526020016006820160009054906101000a900460ff16600281111561113657611135611b99565b5b600281111561114857611147611b99565b5b8152505081526020019060010190610fa2565b50505050905090565b6005818154811061117457600080fd5b90600052602060002090600702016000915090508060000154908060010154908060020154908060030154908060040180546111af90611fe9565b80601f01602080910402602001604051908101604052809291908181526020018280546111db90611fe9565b80156112285780601f106111fd57610100808354040283529160200191611228565b820191906000526020600020905b81548152906001019060200180831161120b57829003601f168201915b50505050509080600501805461123d90611fe9565b80601f016020809104026020016040519081016040528092919081815260200182805461126990611fe9565b80156112b65780601f1061128b576101008083540402835291602001916112b6565b820191906000526020600020905b81548152906001019060200180831161129957829003601f168201915b5050505050908060060160009054906101000a900460ff16905087565b6000818160028111156112e9576112e8611b99565b5b6004600083815260200190815260200160002060060160009054906101000a900460ff16600281111561131f5761131e611b99565b5b1461135f576040517f08c379a000000000000000000000000000000000000000000000000000000000815260040161135690612329565b60405180910390fd5b600160009054906101000a900473ffffffffffffffffffffffffffffffffffffffff1673ffffffffffffffffffffffffffffffffffffffff163373ffffffffffffffffffffffffffffffffffffffff16146113ef576040517f08c379a00000000000000000000000000000000000000000000000000000000081526004016113e690611f23565b60405180910390fd5b60005b60036000858152602001908152602001600020805490508110156114e3578473ffffffffffffffffffffffffffffffffffffffff1660036000868152602001908152602001600020828154811061144c5761144b612349565b5b9060005260206000200160000160009054906101000a900473ffffffffffffffffffffffffffffffffffffffff1673ffffffffffffffffffffffffffffffffffffffff16036114d0576040517f08c379a00000000000000000000000000000000000000000000000000000000081526004016114c7906124c5565b60405180910390fd5b80806114db90611f72565b9150506113f2565b506114ec6116ff565b84816000019073ffffffffffffffffffffffffffffffffffffffff16908173ffffffffffffffffffffffffffffffffffffffff1681525050600081602001901515908115158152505060036000858152602001908152602001600020819080600181540180825580915050600190039060005260206000200160009091909190915060008201518160000160006101000a81548173ffffffffffffffffffffffffffffffffffffffff021916908373ffffffffffffffffffffffffffffffffffffffff16021790555060208201518160000160146101000a81548160ff02191690831515021790555050506004600085815260200190815260200160002060020160008154809291906115fe90611f72565b91905055508473ffffffffffffffffffffffffffffffffffffffff167fd4cb7e3b57371ab8d25a872708406426b62afc7b1140ac34b020c267cb68a814856040516116499190611a66565b60405180910390a25050505050565b600160009054906101000a900473ffffffffffffffffffffffffffffffffffffffff1681565b6040518060e00160405280600081526020016000815260200160008152602001600081526020016060815260200160608152602001600060028111156116c7576116c6611b99565b5b81525090565b6040518060400160405280600073ffffffffffffffffffffffffffffffffffffffff1681526020016000151581525090565b6040518060400160405280600073ffffffffffffffffffffffffffffffffffffffff1681526020016000151581525090565b6000604051905090565b600080fd5b600080fd5b600080fd5b600080fd5b6000601f19601f8301169050919050565b7f4e487b7100000000000000000000000000000000000000000000000000000000600052604160045260246000fd5b6117988261174f565b810181811067ffffffffffffffff821117156117b7576117b6611760565b5b80604052505050565b60006117ca611731565b90506117d6828261178f565b919050565b600067ffffffffffffffff8211156117f6576117f5611760565b5b6117ff8261174f565b9050602081019050919050565b82818337600083830152505050565b600061182e611829846117db565b6117c0565b90508281526020810184848401111561184a5761184961174a565b5b61185584828561180c565b509392505050565b600082601f83011261187257611871611745565b5b813561188284826020860161181b565b91505092915050565b600080604083850312156118a2576118a161173b565b5b600083013567ffffffffffffffff8111156118c0576118bf611740565b5b6118cc8582860161185d565b925050602083013567ffffffffffffffff8111156118ed576118ec611740565b5b6118f98582860161185d565b9150509250929050565b6000819050919050565b61191681611903565b811461192157600080fd5b50565b6000813590506119338161190d565b92915050565b600080604083850312156119505761194f61173b565b5b600061195e85828601611924565b925050602061196f85828601611924565b9150509250929050565b600073ffffffffffffffffffffffffffffffffffffffff82169050919050565b60006119a482611979565b9050919050565b6119b481611999565b82525050565b60008115159050919050565b6119cf816119ba565b82525050565b60006040820190506119ea60008301856119ab565b6119f760208301846119c6565b9392505050565b611a0781611999565b8114611a1257600080fd5b50565b600081359050611a24816119fe565b92915050565b600060208284031215611a4057611a3f61173b565b5b6000611a4e84828501611a15565b91505092915050565b611a6081611903565b82525050565b6000602082019050611a7b6000830184611a57565b92915050565b600060208284031215611a9757611a9661173b565b5b6000611aa584828501611924565b91505092915050565b611ab7816119ba565b8114611ac257600080fd5b50565b600081359050611ad481611aae565b92915050565b60008060408385031215611af157611af061173b565b5b6000611aff85828601611ac5565b9250506020611b1085828601611924565b9150509250929050565b600081519050919050565b600082825260208201905092915050565b60005b83811015611b54578082015181840152602081019050611b39565b60008484015250505050565b6000611b6b82611b1a565b611b758185611b25565b9350611b85818560208601611b36565b611b8e8161174f565b840191505092915050565b7f4e487b7100000000000000000000000000000000000000000000000000000000600052602160045260246000fd5b60038110611bd957611bd8611b99565b5b50565b6000819050611bea82611bc8565b919050565b6000611bfa82611bdc565b9050919050565b611c0a81611bef565b82525050565b600060e082019050611c25600083018a611a57565b611c326020830189611a57565b611c3f6040830188611a57565b611c4c6060830187611a57565b8181036080830152611c5e8186611b60565b905081810360a0830152611c728185611b60565b9050611c8160c0830184611c01565b98975050505050505050565b600081519050919050565b600082825260208201905092915050565b6000819050602082019050919050565b611cc281611903565b82525050565b600082825260208201905092915050565b6000611ce482611b1a565b611cee8185611cc8565b9350611cfe818560208601611b36565b611d078161174f565b840191505092915050565b611d1b81611bef565b82525050565b600060e083016000830151611d396000860182611cb9565b506020830151611d4c6020860182611cb9565b506040830151611d5f6040860182611cb9565b506060830151611d726060860182611cb9565b5060808301518482036080860152611d8a8282611cd9565b91505060a083015184820360a0860152611da48282611cd9565b91505060c0830151611db960c0860182611d12565b508091505092915050565b6000611dd08383611d21565b905092915050565b6000602082019050919050565b6000611df082611c8d565b611dfa8185611c98565b935083602082028501611e0c85611ca9565b8060005b85811015611e485784840389528151611e298582611dc4565b9450611e3483611dd8565b925060208a01995050600181019050611e10565b50829750879550505050505092915050565b60006020820190508181036000830152611e748184611de5565b905092915050565b60008060408385031215611e9357611e9261173b565b5b6000611ea185828601611a15565b9250506020611eb285828601611924565b9150509250929050565b6000602082019050611ed160008301846119ab565b92915050565b7f596f75206d75737420626520636f6e7472616374206f776e6572210000000000600082015250565b6000611f0d601b83611b25565b9150611f1882611ed7565b602082019050919050565b60006020820190508181036000830152611f3c81611f00565b9050919050565b7f4e487b7100000000000000000000000000000000000000000000000000000000600052601160045260246000fd5b6000611f7d82611903565b91507fffffffffffffffffffffffffffffffffffffffffffffffffffffffffffffffff8203611faf57611fae611f43565b5b600182019050919050565b7f4e487b7100000000000000000000000000000000000000000000000000000000600052602260045260246000fd5b6000600282049050600182168061200157607f821691505b60208210810361201457612013611fba565b5b50919050565b60008190508160005260206000209050919050565b60006020601f8301049050919050565b600082821b905092915050565b60006008830261207c7fffffffffffffffffffffffffffffffffffffffffffffffffffffffffffffffff8261203f565b612086868361203f565b95508019841693508086168417925050509392505050565b6000819050919050565b60006120c36120be6120b984611903565b61209e565b611903565b9050919050565b6000819050919050565b6120dd836120a8565b6120f16120e9826120ca565b84845461204c565b825550505050565b600090565b6121066120f9565b6121118184846120d4565b505050565b5b818110156121355761212a6000826120fe565b600181019050612117565b5050565b601f82111561217a5761214b8161201a565b6121548461202f565b81016020851015612163578190505b61217761216f8561202f565b830182612116565b50505b505050565b600082821c905092915050565b600061219d6000198460080261217f565b1980831691505092915050565b60006121b6838361218c565b9150826002028217905092915050565b6121cf82611b1a565b67ffffffffffffffff8111156121e8576121e7611760565b5b6121f28254611fe9565b6121fd828285612139565b600060209050601f831160018114612230576000841561221e578287015190505b61222885826121aa565b865550612290565b601f19841661223e8661201a565b60005b8281101561226657848901518255600182019150602085019450602081019050612241565b86831015612283578489015161227f601f89168261218c565b8355505b6001600288020188555050505b505050505050565b60006060820190506122ad6000830186611a57565b81810360208301526122bf8185611b60565b905081810360408301526122d38184611b60565b9050949350505050565b7f57726f6e67207374617465210000000000000000000000000000000000000000600082015250565b6000612313600c83611b25565b915061231e826122dd565b602082019050919050565b6000602082019050818103600083015261234281612306565b9050919050565b7f4e487b7100000000000000000000000000000000000000000000000000000000600052603260045260246000fd5b7f566f7465722061646472657373206973206e6f74206164646564207965742100600082015250565b60006123ae601f83611b25565b91506123b982612378565b602082019050919050565b600060208201905081810360008301526123dd816123a1565b9050919050565b7f616c726561647920766f74656421000000000000000000000000000000000000600082015250565b600061241a600e83611b25565b9150612425826123e4565b602082019050919050565b600060208201905081810360008301526124498161240d565b9050919050565b60006040820190506124656000830185611a57565b6124726020830184611a57565b9392505050565b7f416c726561647920616464656400000000000000000000000000000000000000600082015250565b60006124af600d83611b25565b91506124ba82612479565b602082019050919050565b600060208201905081810360008301526124de816124a2565b905091905056fea2646970667358221220215c21379f265a5f5e279d4e72083c52ae4e9663ec2bd1d841f8ecd548b2a03964736f6c63430008110033",
  "linkReferences": {},
  "deployedLinkReferences": {}
}