{
  "_format": "hh-sol-artifact-1",
  "contractName": "VoteFactory",
  "sourceName": "contracts/VoteFactory.sol",
  "abi": [
    {
      "inputs": [],
      "stateMutability": "nonpayable",
      "type": "constructor"
    },
    {
      "anonymous": false,
      "inputs": [
        {
          "indexed": true,
          "internalType": "address",
          "name": "voterAddress",
          "type": "address"
        },
        {
          "indexed": false,
          "internalType": "uint256",
          "name": "pollID",
          "type": "uint256"
        }
      ],
      "name": "AddVoter",
      "type": "event"
    },
    {
      "anonymous": false,
      "inputs": [
        {
          "indexed": false,
          "internalType": "uint256",
          "name": "pollID",
          "type": "uint256"
        },
        {
          "indexed": true,
          "internalType": "address",
          "name": "creator",
          "type": "address"
        },
        {
          "indexed": false,
          "internalType": "string",
          "name": "proposal",
          "type": "string"
        },
        {
          "indexed": false,
          "internalType": "string",
          "name": "pollName",
          "type": "string"
        }
      ],
      "name": "CreatPoll",
      "type": "event"
    },
    {
      "anonymous": false,
      "inputs": [
        {
          "indexed": true,
          "internalType": "address",
          "name": "voter",
          "type": "address"
        },
        {
          "indexed": false,
          "internalType": "uint256",
          "name": "pollID",
          "type": "uint256"
        }
      ],
      "name": "DoVote",
      "type": "event"
    },
    {
      "anonymous": false,
      "inputs": [
        {
          "indexed": false,
          "internalType": "uint256",
          "name": "pollID",
          "type": "uint256"
        },
        {
          "indexed": false,
          "internalType": "uint256",
          "name": "finalResult",
          "type": "uint256"
        }
      ],
      "name": "EndVote",
      "type": "event"
    },
    {
      "anonymous": false,
      "inputs": [
        {
          "indexed": false,
          "internalType": "uint256",
          "name": "pollID",
          "type": "uint256"
        }
      ],
      "name": "StartVote",
      "type": "event"
    },
    {
      "inputs": [
        {
          "internalType": "address",
          "name": "_voterAddress",
          "type": "address"
        },
        {
          "internalType": "uint256",
          "name": "pollID",
          "type": "uint256"
        }
      ],
      "name": "addVoter",
      "outputs": [],
      "stateMutability": "nonpayable",
      "type": "function"
    },
    {
      "inputs": [],
      "name": "contractOwner",
      "outputs": [
        {
          "internalType": "address",
          "name": "",
          "type": "address"
        }
      ],
      "stateMutability": "view",
      "type": "function"
    },
    {
      "inputs": [
        {
          "internalType": "string",
          "name": "pollName",
          "type": "string"
        },
        {
          "internalType": "string",
          "name": "proposal",
          "type": "string"
        }
      ],
      "name": "createPoll",
      "outputs": [],
      "stateMutability": "nonpayable",
      "type": "function"
    },
    {
      "inputs": [
        {
          "internalType": "bool",
          "name": "_choice",
          "type": "bool"
        },
        {
          "internalType": "uint256",
          "name": "pollID",
          "type": "uint256"
        }
      ],
      "name": "doVote",
      "outputs": [],
      "stateMutability": "nonpayable",
      "type": "function"
    },
    {
      "inputs": [
        {
          "internalType": "uint256",
          "name": "pollID",
          "type": "uint256"
        }
      ],
      "name": "endVote",
      "outputs": [],
      "stateMutability": "nonpayable",
      "type": "function"
    },
    {
      "inputs": [],
      "name": "getListPoll",
      "outputs": [
        {
          "components": [
            {
              "internalType": "uint256",
              "name": "countResult",
              "type": "uint256"
            },
            {
              "internalType": "uint256",
              "name": "finalResult",
              "type": "uint256"
            },
            {
              "internalType": "uint256",
              "name": "totalVoter",
              "type": "uint256"
            },
            {
              "internalType": "uint256",
              "name": "totalVote",
              "type": "uint256"
            },
            {
              "internalType": "string",
              "name": "PollName",
              "type": "string"
            },
            {
              "internalType": "string",
              "name": "proposal",
              "type": "string"
            },
            {
              "internalType": "enum VoteFactory.State",
              "name": "state",
              "type": "uint8"
            }
          ],
          "internalType": "struct VoteFactory.Poll[]",
          "name": "",
          "type": "tuple[]"
        }
      ],
      "stateMutability": "view",
      "type": "function"
    },
    {
      "inputs": [],
      "name": "getListPollWithID",
      "outputs": [
        {
          "components": [
            {
              "internalType": "uint256",
              "name": "countResult",
              "type": "uint256"
            },
            {
              "internalType": "uint256",
              "name": "finalResult",
              "type": "uint256"
            },
            {
              "internalType": "uint256",
              "name": "totalVoter",
              "type": "uint256"
            },
            {
              "internalType": "uint256",
              "name": "totalVote",
              "type": "uint256"
            },
            {
              "internalType": "string",
              "name": "PollName",
              "type": "string"
            },
            {
              "internalType": "string",
              "name": "proposal",
              "type": "string"
            },
            {
              "internalType": "enum VoteFactory.State",
              "name": "state",
              "type": "uint8"
            }
          ],
          "internalType": "struct VoteFactory.Poll[]",
          "name": "",
          "type": "tuple[]"
        }
      ],
      "stateMutability": "view",
      "type": "function"
    },
    {
      "inputs": [],
      "name": "pollCount",
      "outputs": [
        {
          "internalType": "uint256",
          "name": "",
          "type": "uint256"
        }
      ],
      "stateMutability": "view",
      "type": "function"
    },
    {
      "inputs": [
        {
          "internalType": "uint256",
          "name": "",
          "type": "uint256"
        },
        {
          "internalType": "uint256",
          "name": "",
          "type": "uint256"
        }
      ],
      "name": "pollIDToListVote",
      "outputs": [
        {
          "internalType": "address",
          "name": "voterAddress",
          "type": "address"
        },
        {
          "internalType": "bool",
          "name": "choice",
          "type": "bool"
        }
      ],
      "stateMutability": "view",
      "type": "function"
    },
    {
      "inputs": [
        {
          "internalType": "uint256",
          "name": "",
          "type": "uint256"
        },
        {
          "internalType": "uint256",
          "name": "",
          "type": "uint256"
        }
      ],
      "name": "pollIDToListVoter",
      "outputs": [
        {
          "internalType": "address",
          "name": "voterAddress",
          "type": "address"
        },
        {
          "internalType": "bool",
          "name": "voted",
          "type": "bool"
        }
      ],
      "stateMutability": "view",
      "type": "function"
    },
    {
      "inputs": [
        {
          "internalType": "uint256",
          "name": "",
          "type": "uint256"
        }
      ],
      "name": "pollIDToPoll",
      "outputs": [
        {
          "internalType": "uint256",
          "name": "countResult",
          "type": "uint256"
        },
        {
          "internalType": "uint256",
          "name": "finalResult",
          "type": "uint256"
        },
        {
          "internalType": "uint256",
          "name": "totalVoter",
          "type": "uint256"
        },
        {
          "internalType": "uint256",
          "name": "totalVote",
          "type": "uint256"
        },
        {
          "internalType": "string",
          "name": "PollName",
          "type": "string"
        },
        {
          "internalType": "string",
          "name": "proposal",
          "type": "string"
        },
        {
          "internalType": "enum VoteFactory.State",
          "name": "state",
          "type": "uint8"
        }
      ],
      "stateMutability": "view",
      "type": "function"
    },
    {
      "inputs": [
        {
          "internalType": "uint256",
          "name": "",
          "type": "uint256"
        }
      ],
      "name": "polls",
      "outputs": [
        {
          "internalType": "uint256",
          "name": "countResult",
          "type": "uint256"
        },
        {
          "internalType": "uint256",
          "name": "finalResult",
          "type": "uint256"
        },
        {
          "internalType": "uint256",
          "name": "totalVoter",
          "type": "uint256"
        },
        {
          "internalType": "uint256",
          "name": "totalVote",
          "type": "uint256"
        },
        {
          "internalType": "string",
          "name": "PollName",
          "type": "string"
        },
        {
          "internalType": "string",
          "name": "proposal",
          "type": "string"
        },
        {
          "internalType": "enum VoteFactory.State",
          "name": "state",
          "type": "uint8"
        }
      ],
      "stateMutability": "view",
      "type": "function"
    },
    {
      "inputs": [
        {
          "internalType": "uint256",
          "name": "pollID",
          "type": "uint256"
        }
      ],
      "name": "startVote",
      "outputs": [],
      "stateMutability": "nonpayable",
      "type": "function"
    }
  ],
  "bytecode": "0x608060405234801561001057600080fd5b5033600160006101000a81548173ffffffffffffffffffffffffffffffffffffffff021916908373ffffffffffffffffffffffffffffffffffffffff160217905550612744806100616000396000f3fe608060405234801561001057600080fd5b50600436106100cf5760003560e01c80639207891d1161008c578063a3a3524611610066578063a3a3524614610218578063ac2f007414610236578063b9f05f2f1461026c578063ce606ee014610288576100cf565b80639207891d146101ab57806398dea034146101c95780639af03f82146101fa576100cf565b806304710b66146100d45780631f4ca0d4146100f05780633f22052414610121578063569b9cc71461013d578063865df0ad146101595780638930b1ca14610175575b600080fd5b6100ee60048036038101906100e99190611aad565b6102a6565b005b61010a60048036038101906101059190611b5b565b61058d565b604051610118929190611bf7565b60405180910390f35b61013b60048036038101906101369190611c20565b6105f7565b005b61015760048036038101906101529190611c79565b61078e565b005b610173600480360381019061016e9190611c20565b610b9c565b005b61018f600480360381019061018a9190611c20565b610d7c565b6040516101a29796959493929190611dbe565b60405180910390f35b6101b3610edb565b6040516101c09190611e3b565b60405180910390f35b6101e360048036038101906101de9190611b5b565b610ee1565b6040516101f1929190611bf7565b60405180910390f35b610202610f4b565b60405161020f9190612023565b60405180910390f35b610220611131565b60405161022d9190612023565b60405180910390f35b610250600480360381019061024b9190611c20565b611386565b6040516102639796959493929190611dbe565b60405180910390f35b61028660048036038101906102819190612071565b6114f5565b005b61029061187a565b60405161029d91906120b1565b60405180910390f35b600160009054906101000a900473ffffffffffffffffffffffffffffffffffffffff1673ffffffffffffffffffffffffffffffffffffffff163373ffffffffffffffffffffffffffffffffffffffff1614610336576040517f08c379a000000000000000000000000000000000000000000000000000000000815260040161032d90612118565b60405180910390fd5b61033e6118a0565b6000816000018181525050600081602001818152505060008160400181815250506000816060018181525050828160800181905250818160a0018190525060008160c00190600281111561039557610394611d47565b5b908160028111156103a9576103a8611d47565b5b815250506000808154809291906103bf90612167565b919050555080600460008054815260200190815260200160002060008201518160000155602082015181600101556040820151816002015560608201518160030155608082015181600401908161041691906123bb565b5060a082015181600501908161042c91906123bb565b5060c08201518160060160006101000a81548160ff0219169083600281111561045857610457611d47565b5b021790555090505060058190806001815401808255809150506001900390600052602060002090600702016000909190919091506000820151816000015560208201518160010155604082015181600201556060820151816003015560808201518160040190816104c991906123bb565b5060a08201518160050190816104df91906123bb565b5060c08201518160060160006101000a81548160ff0219169083600281111561050b5761050a611d47565b5b02179055505050600160009054906101000a900473ffffffffffffffffffffffffffffffffffffffff1673ffffffffffffffffffffffffffffffffffffffff167f36b9927ff5193f4503e3ca7c991fc15ae5c83b613d7d975c5c84545ca624c47460005484866040516105809392919061248d565b60405180910390a2505050565b600260205281600052604060002081815481106105a957600080fd5b90600052602060002001600091509150508060000160009054906101000a900473ffffffffffffffffffffffffffffffffffffffff16908060000160149054906101000a900460ff16905082565b60008181600281111561060d5761060c611d47565b5b6004600083815260200190815260200160002060060160009054906101000a900460ff16600281111561064357610642611d47565b5b14610683576040517f08c379a000000000000000000000000000000000000000000000000000000000815260040161067a9061251e565b60405180910390fd5b600160009054906101000a900473ffffffffffffffffffffffffffffffffffffffff1673ffffffffffffffffffffffffffffffffffffffff163373ffffffffffffffffffffffffffffffffffffffff1614610713576040517f08c379a000000000000000000000000000000000000000000000000000000000815260040161070a90612118565b60405180910390fd5b60016004600085815260200190815260200160002060060160006101000a81548160ff0219169083600281111561074d5761074c611d47565b5b02179055507f33c2d6285ba1442f7dd954820743aacec7468bc52e1671024b948f48f1322640836040516107819190611e3b565b60405180910390a1505050565b6001818160028111156107a4576107a3611d47565b5b6004600083815260200190815260200160002060060160009054906101000a900460ff1660028111156107da576107d9611d47565b5b1461081a576040517f08c379a00000000000000000000000000000000000000000000000000000000081526004016108119061251e565b60405180910390fd5b60008080600090505b60036000878152602001908152602001600020805490508110156108e1573373ffffffffffffffffffffffffffffffffffffffff1660036000888152602001908152602001600020828154811061087d5761087c61253e565b5b9060005260206000200160000160009054906101000a900473ffffffffffffffffffffffffffffffffffffffff1673ffffffffffffffffffffffffffffffffffffffff16036108ce57600192508091505b80806108d990612167565b915050610823565b506001151582151514610929576040517f08c379a0000000000000000000000000000000000000000000000000000000008152600401610920906125b9565b60405180910390fd5b60036000868152602001908152602001600020818154811061094e5761094d61253e565b5b9060005260206000200160000160149054906101000a900460ff16156109a9576040517f08c379a00000000000000000000000000000000000000000000000000000000081526004016109a090612625565b60405180910390fd5b60016003600087815260200190815260200160002082815481106109d0576109cf61253e565b5b9060005260206000200160000160146101000a81548160ff0219169083151502179055508515610a2757600460008681526020019081526020016000206000016000815480929190610a2190612167565b91905055505b610a2f6118ef565b33816000019073ffffffffffffffffffffffffffffffffffffffff16908173ffffffffffffffffffffffffffffffffffffffff16815250508681602001901515908115158152505060026000878152602001908152602001600020819080600181540180825580915050600190039060005260206000200160009091909190915060008201518160000160006101000a81548173ffffffffffffffffffffffffffffffffffffffff021916908373ffffffffffffffffffffffffffffffffffffffff16021790555060208201518160000160146101000a81548160ff0219169083151502179055505050600460008781526020019081526020016000206003016000815480929190610b4090612167565b91905055503373ffffffffffffffffffffffffffffffffffffffff167f731b4642005b8ed56bdd191a72d071e583d449edc0bebf2e317d73461ee93c4587604051610b8b9190611e3b565b60405180910390a250505050505050565b600181816002811115610bb257610bb1611d47565b5b6004600083815260200190815260200160002060060160009054906101000a900460ff166002811115610be857610be7611d47565b5b14610c28576040517f08c379a0000000000000000000000000000000000000000000000000000000008152600401610c1f9061251e565b60405180910390fd5b600160009054906101000a900473ffffffffffffffffffffffffffffffffffffffff1673ffffffffffffffffffffffffffffffffffffffff163373ffffffffffffffffffffffffffffffffffffffff1614610cb8576040517f08c379a0000000000000000000000000000000000000000000000000000000008152600401610caf90612118565b60405180910390fd5b60026004600085815260200190815260200160002060060160006101000a81548160ff02191690836002811115610cf257610cf1611d47565b5b0217905550600460008481526020019081526020016000206000015460046000858152602001908152602001600020600101819055507f7414cef146736256ae6acb00f67446e8c4f2166f5f67750320a75172d3b72ac3836004600086815260200190815260200160002060010154604051610d6f929190612645565b60405180910390a1505050565b6004602052806000526040600020600091509050806000015490806001015490806002015490806003015490806004018054610db7906121de565b80601f0160208091040260200160405190810160405280929190818152602001828054610de3906121de565b8015610e305780601f10610e0557610100808354040283529160200191610e30565b820191906000526020600020905b815481529060010190602001808311610e1357829003601f168201915b505050505090806005018054610e45906121de565b80601f0160208091040260200160405190810160405280929190818152602001828054610e71906121de565b8015610ebe5780601f10610e9357610100808354040283529160200191610ebe565b820191906000526020600020905b815481529060010190602001808311610ea157829003601f168201915b5050505050908060060160009054906101000a900460ff16905087565b60005481565b60036020528160005260406000208181548110610efd57600080fd5b90600052602060002001600091509150508060000160009054906101000a900473ffffffffffffffffffffffffffffffffffffffff16908060000160149054906101000a900460ff16905082565b60606005805480602002602001604051908101604052809291908181526020016000905b8282101561112857838290600052602060002090600702016040518060e001604052908160008201548152602001600182015481526020016002820154815260200160038201548152602001600482018054610fca906121de565b80601f0160208091040260200160405190810160405280929190818152602001828054610ff6906121de565b80156110435780601f1061101857610100808354040283529160200191611043565b820191906000526020600020905b81548152906001019060200180831161102657829003601f168201915b5050505050815260200160058201805461105c906121de565b80601f0160208091040260200160405190810160405280929190818152602001828054611088906121de565b80156110d55780601f106110aa576101008083540402835291602001916110d5565b820191906000526020600020905b8154815290600101906020018083116110b857829003601f168201915b505050505081526020016006820160009054906101000a900460ff16600281111561110357611102611d47565b5b600281111561111557611114611d47565b5b8152505081526020019060010190610f6f565b50505050905090565b60606000805467ffffffffffffffff8111156111505761114f611982565b5b60405190808252806020026020018201604052801561118957816020015b6111766118a0565b81526020019060019003908161116e5790505b5090506000600190505b600054811161137e57600460008281526020019081526020016000206040518060e0016040529081600082015481526020016001820154815260200160028201548152602001600382015481526020016004820180546111f2906121de565b80601f016020809104026020016040519081016040528092919081815260200182805461121e906121de565b801561126b5780601f106112405761010080835404028352916020019161126b565b820191906000526020600020905b81548152906001019060200180831161124e57829003601f168201915b50505050508152602001600582018054611284906121de565b80601f01602080910402602001604051908101604052809291908181526020018280546112b0906121de565b80156112fd5780601f106112d2576101008083540402835291602001916112fd565b820191906000526020600020905b8154815290600101906020018083116112e057829003601f168201915b505050505081526020016006820160009054906101000a900460ff16600281111561132b5761132a611d47565b5b600281111561133d5761133c611d47565b5b815250508260018361134f919061266e565b815181106113605761135f61253e565b5b6020026020010181905250808061137690612167565b915050611193565b508091505090565b6005818154811061139657600080fd5b90600052602060002090600702016000915090508060000154908060010154908060020154908060030154908060040180546113d1906121de565b80601f01602080910402602001604051908101604052809291908181526020018280546113fd906121de565b801561144a5780601f1061141f5761010080835404028352916020019161144a565b820191906000526020600020905b81548152906001019060200180831161142d57829003601f168201915b50505050509080600501805461145f906121de565b80601f016020809104026020016040519081016040528092919081815260200182805461148b906121de565b80156114d85780601f106114ad576101008083540402835291602001916114d8565b820191906000526020600020905b8154815290600101906020018083116114bb57829003601f168201915b5050505050908060060160009054906101000a900460ff16905087565b60008181600281111561150b5761150a611d47565b5b6004600083815260200190815260200160002060060160009054906101000a900460ff16600281111561154157611540611d47565b5b14611581576040517f08c379a00000000000000000000000000000000000000000000000000000000081526004016115789061251e565b60405180910390fd5b600160009054906101000a900473ffffffffffffffffffffffffffffffffffffffff1673ffffffffffffffffffffffffffffffffffffffff163373ffffffffffffffffffffffffffffffffffffffff1614611611576040517f08c379a000000000000000000000000000000000000000000000000000000000815260040161160890612118565b60405180910390fd5b60005b6003600085815260200190815260200160002080549050811015611705578473ffffffffffffffffffffffffffffffffffffffff1660036000868152602001908152602001600020828154811061166e5761166d61253e565b5b9060005260206000200160000160009054906101000a900473ffffffffffffffffffffffffffffffffffffffff1673ffffffffffffffffffffffffffffffffffffffff16036116f2576040517f08c379a00000000000000000000000000000000000000000000000000000000081526004016116e9906126ee565b60405180910390fd5b80806116fd90612167565b915050611614565b5061170e611921565b84816000019073ffffffffffffffffffffffffffffffffffffffff16908173ffffffffffffffffffffffffffffffffffffffff1681525050600081602001901515908115158152505060036000858152602001908152602001600020819080600181540180825580915050600190039060005260206000200160009091909190915060008201518160000160006101000a81548173ffffffffffffffffffffffffffffffffffffffff021916908373ffffffffffffffffffffffffffffffffffffffff16021790555060208201518160000160146101000a81548160ff021916908315150217905550505060046000858152602001908152602001600020600201600081548092919061182090612167565b91905055508473ffffffffffffffffffffffffffffffffffffffff167fd4cb7e3b57371ab8d25a872708406426b62afc7b1140ac34b020c267cb68a8148560405161186b9190611e3b565b60405180910390a25050505050565b600160009054906101000a900473ffffffffffffffffffffffffffffffffffffffff1681565b6040518060e00160405280600081526020016000815260200160008152602001600081526020016060815260200160608152602001600060028111156118e9576118e8611d47565b5b81525090565b6040518060400160405280600073ffffffffffffffffffffffffffffffffffffffff1681526020016000151581525090565b6040518060400160405280600073ffffffffffffffffffffffffffffffffffffffff1681526020016000151581525090565b6000604051905090565b600080fd5b600080fd5b600080fd5b600080fd5b6000601f19601f8301169050919050565b7f4e487b7100000000000000000000000000000000000000000000000000000000600052604160045260246000fd5b6119ba82611971565b810181811067ffffffffffffffff821117156119d9576119d8611982565b5b80604052505050565b60006119ec611953565b90506119f882826119b1565b919050565b600067ffffffffffffffff821115611a1857611a17611982565b5b611a2182611971565b9050602081019050919050565b82818337600083830152505050565b6000611a50611a4b846119fd565b6119e2565b905082815260208101848484011115611a6c57611a6b61196c565b5b611a77848285611a2e565b509392505050565b600082601f830112611a9457611a93611967565b5b8135611aa4848260208601611a3d565b91505092915050565b60008060408385031215611ac457611ac361195d565b5b600083013567ffffffffffffffff811115611ae257611ae1611962565b5b611aee85828601611a7f565b925050602083013567ffffffffffffffff811115611b0f57611b0e611962565b5b611b1b85828601611a7f565b9150509250929050565b6000819050919050565b611b3881611b25565b8114611b4357600080fd5b50565b600081359050611b5581611b2f565b92915050565b60008060408385031215611b7257611b7161195d565b5b6000611b8085828601611b46565b9250506020611b9185828601611b46565b9150509250929050565b600073ffffffffffffffffffffffffffffffffffffffff82169050919050565b6000611bc682611b9b565b9050919050565b611bd681611bbb565b82525050565b60008115159050919050565b611bf181611bdc565b82525050565b6000604082019050611c0c6000830185611bcd565b611c196020830184611be8565b9392505050565b600060208284031215611c3657611c3561195d565b5b6000611c4484828501611b46565b91505092915050565b611c5681611bdc565b8114611c6157600080fd5b50565b600081359050611c7381611c4d565b92915050565b60008060408385031215611c9057611c8f61195d565b5b6000611c9e85828601611c64565b9250506020611caf85828601611b46565b9150509250929050565b611cc281611b25565b82525050565b600081519050919050565b600082825260208201905092915050565b60005b83811015611d02578082015181840152602081019050611ce7565b60008484015250505050565b6000611d1982611cc8565b611d238185611cd3565b9350611d33818560208601611ce4565b611d3c81611971565b840191505092915050565b7f4e487b7100000000000000000000000000000000000000000000000000000000600052602160045260246000fd5b60038110611d8757611d86611d47565b5b50565b6000819050611d9882611d76565b919050565b6000611da882611d8a565b9050919050565b611db881611d9d565b82525050565b600060e082019050611dd3600083018a611cb9565b611de06020830189611cb9565b611ded6040830188611cb9565b611dfa6060830187611cb9565b8181036080830152611e0c8186611d0e565b905081810360a0830152611e208185611d0e565b9050611e2f60c0830184611daf565b98975050505050505050565b6000602082019050611e506000830184611cb9565b92915050565b600081519050919050565b600082825260208201905092915050565b6000819050602082019050919050565b611e8b81611b25565b82525050565b600082825260208201905092915050565b6000611ead82611cc8565b611eb78185611e91565b9350611ec7818560208601611ce4565b611ed081611971565b840191505092915050565b611ee481611d9d565b82525050565b600060e083016000830151611f026000860182611e82565b506020830151611f156020860182611e82565b506040830151611f286040860182611e82565b506060830151611f3b6060860182611e82565b5060808301518482036080860152611f538282611ea2565b91505060a083015184820360a0860152611f6d8282611ea2565b91505060c0830151611f8260c0860182611edb565b508091505092915050565b6000611f998383611eea565b905092915050565b6000602082019050919050565b6000611fb982611e56565b611fc38185611e61565b935083602082028501611fd585611e72565b8060005b858110156120115784840389528151611ff28582611f8d565b9450611ffd83611fa1565b925060208a01995050600181019050611fd9565b50829750879550505050505092915050565b6000602082019050818103600083015261203d8184611fae565b905092915050565b61204e81611bbb565b811461205957600080fd5b50565b60008135905061206b81612045565b92915050565b600080604083850312156120885761208761195d565b5b60006120968582860161205c565b92505060206120a785828601611b46565b9150509250929050565b60006020820190506120c66000830184611bcd565b92915050565b7f596f75206d75737420626520636f6e7472616374206f776e6572210000000000600082015250565b6000612102601b83611cd3565b915061210d826120cc565b602082019050919050565b60006020820190508181036000830152612131816120f5565b9050919050565b7f4e487b7100000000000000000000000000000000000000000000000000000000600052601160045260246000fd5b600061217282611b25565b91507fffffffffffffffffffffffffffffffffffffffffffffffffffffffffffffffff82036121a4576121a3612138565b5b600182019050919050565b7f4e487b7100000000000000000000000000000000000000000000000000000000600052602260045260246000fd5b600060028204905060018216806121f657607f821691505b602082108103612209576122086121af565b5b50919050565b60008190508160005260206000209050919050565b60006020601f8301049050919050565b600082821b905092915050565b6000600883026122717fffffffffffffffffffffffffffffffffffffffffffffffffffffffffffffffff82612234565b61227b8683612234565b95508019841693508086168417925050509392505050565b6000819050919050565b60006122b86122b36122ae84611b25565b612293565b611b25565b9050919050565b6000819050919050565b6122d28361229d565b6122e66122de826122bf565b848454612241565b825550505050565b600090565b6122fb6122ee565b6123068184846122c9565b505050565b5b8181101561232a5761231f6000826122f3565b60018101905061230c565b5050565b601f82111561236f576123408161220f565b61234984612224565b81016020851015612358578190505b61236c61236485612224565b83018261230b565b50505b505050565b600082821c905092915050565b600061239260001984600802612374565b1980831691505092915050565b60006123ab8383612381565b9150826002028217905092915050565b6123c482611cc8565b67ffffffffffffffff8111156123dd576123dc611982565b5b6123e782546121de565b6123f282828561232e565b600060209050601f8311600181146124255760008415612413578287015190505b61241d858261239f565b865550612485565b601f1984166124338661220f565b60005b8281101561245b57848901518255600182019150602085019450602081019050612436565b868310156124785784890151612474601f891682612381565b8355505b6001600288020188555050505b505050505050565b60006060820190506124a26000830186611cb9565b81810360208301526124b48185611d0e565b905081810360408301526124c88184611d0e565b9050949350505050565b7f57726f6e67207374617465210000000000000000000000000000000000000000600082015250565b6000612508600c83611cd3565b9150612513826124d2565b602082019050919050565b60006020820190508181036000830152612537816124fb565b9050919050565b7f4e487b7100000000000000000000000000000000000000000000000000000000600052603260045260246000fd5b7f566f7465722061646472657373206973206e6f74206164646564207965742100600082015250565b60006125a3601f83611cd3565b91506125ae8261256d565b602082019050919050565b600060208201905081810360008301526125d281612596565b9050919050565b7f616c726561647920766f74656421000000000000000000000000000000000000600082015250565b600061260f600e83611cd3565b915061261a826125d9565b602082019050919050565b6000602082019050818103600083015261263e81612602565b9050919050565b600060408201905061265a6000830185611cb9565b6126676020830184611cb9565b9392505050565b600061267982611b25565b915061268483611b25565b925082820390508181111561269c5761269b612138565b5b92915050565b7f416c726561647920616464656400000000000000000000000000000000000000600082015250565b60006126d8600d83611cd3565b91506126e3826126a2565b602082019050919050565b60006020820190508181036000830152612707816126cb565b905091905056fea26469706673582212209b7fddb674da88a2a6fc452c1d0386cd0838a5a3a27af23742ef1f9018545cf864736f6c63430008110033",
  "linkReferences": {},
  "deployedLinkReferences": {}
}