{
  "_format": "hh-sol-artifact-1",
  "contractName": "Dog",
  "sourceName": "contracts/dai/liquidation-auction-module/dog.sol",
  "abi": [
    {
      "inputs": [
        {
          "internalType": "address",
          "name": "vat_",
          "type": "address"
        }
      ],
      "stateMutability": "nonpayable",
      "type": "constructor"
    },
    {
      "anonymous": false,
      "inputs": [
        {
          "indexed": true,
          "internalType": "bytes32",
          "name": "ilk",
          "type": "bytes32"
        },
        {
          "indexed": true,
          "internalType": "address",
          "name": "urn",
          "type": "address"
        },
        {
          "indexed": false,
          "internalType": "uint256",
          "name": "ink",
          "type": "uint256"
        },
        {
          "indexed": false,
          "internalType": "uint256",
          "name": "art",
          "type": "uint256"
        },
        {
          "indexed": false,
          "internalType": "uint256",
          "name": "due",
          "type": "uint256"
        },
        {
          "indexed": false,
          "internalType": "address",
          "name": "clip",
          "type": "address"
        },
        {
          "indexed": true,
          "internalType": "uint256",
          "name": "id",
          "type": "uint256"
        }
      ],
      "name": "Bark",
      "type": "event"
    },
    {
      "anonymous": false,
      "inputs": [],
      "name": "Cage",
      "type": "event"
    },
    {
      "anonymous": false,
      "inputs": [
        {
          "indexed": true,
          "internalType": "address",
          "name": "usr",
          "type": "address"
        }
      ],
      "name": "Deny",
      "type": "event"
    },
    {
      "anonymous": false,
      "inputs": [
        {
          "indexed": true,
          "internalType": "bytes32",
          "name": "ilk",
          "type": "bytes32"
        },
        {
          "indexed": false,
          "internalType": "uint256",
          "name": "rad",
          "type": "uint256"
        }
      ],
      "name": "Digs",
      "type": "event"
    },
    {
      "anonymous": false,
      "inputs": [
        {
          "indexed": true,
          "internalType": "bytes32",
          "name": "what",
          "type": "bytes32"
        },
        {
          "indexed": false,
          "internalType": "uint256",
          "name": "data",
          "type": "uint256"
        }
      ],
      "name": "File",
      "type": "event"
    },
    {
      "anonymous": false,
      "inputs": [
        {
          "indexed": true,
          "internalType": "bytes32",
          "name": "what",
          "type": "bytes32"
        },
        {
          "indexed": false,
          "internalType": "address",
          "name": "data",
          "type": "address"
        }
      ],
      "name": "File",
      "type": "event"
    },
    {
      "anonymous": false,
      "inputs": [
        {
          "indexed": true,
          "internalType": "bytes32",
          "name": "ilk",
          "type": "bytes32"
        },
        {
          "indexed": true,
          "internalType": "bytes32",
          "name": "what",
          "type": "bytes32"
        },
        {
          "indexed": false,
          "internalType": "uint256",
          "name": "data",
          "type": "uint256"
        }
      ],
      "name": "File",
      "type": "event"
    },
    {
      "anonymous": false,
      "inputs": [
        {
          "indexed": true,
          "internalType": "bytes32",
          "name": "ilk",
          "type": "bytes32"
        },
        {
          "indexed": true,
          "internalType": "bytes32",
          "name": "what",
          "type": "bytes32"
        },
        {
          "indexed": false,
          "internalType": "address",
          "name": "clip",
          "type": "address"
        }
      ],
      "name": "File",
      "type": "event"
    },
    {
      "anonymous": false,
      "inputs": [
        {
          "indexed": true,
          "internalType": "address",
          "name": "usr",
          "type": "address"
        }
      ],
      "name": "Rely",
      "type": "event"
    },
    {
      "inputs": [],
      "name": "Dirt",
      "outputs": [
        {
          "internalType": "uint256",
          "name": "",
          "type": "uint256"
        }
      ],
      "stateMutability": "view",
      "type": "function"
    },
    {
      "inputs": [],
      "name": "Hole",
      "outputs": [
        {
          "internalType": "uint256",
          "name": "",
          "type": "uint256"
        }
      ],
      "stateMutability": "view",
      "type": "function"
    },
    {
      "inputs": [
        {
          "internalType": "bytes32",
          "name": "ilk",
          "type": "bytes32"
        },
        {
          "internalType": "address",
          "name": "urn",
          "type": "address"
        },
        {
          "internalType": "address",
          "name": "kpr",
          "type": "address"
        }
      ],
      "name": "bark",
      "outputs": [
        {
          "internalType": "uint256",
          "name": "id",
          "type": "uint256"
        }
      ],
      "stateMutability": "nonpayable",
      "type": "function"
    },
    {
      "inputs": [],
      "name": "cage",
      "outputs": [],
      "stateMutability": "nonpayable",
      "type": "function"
    },
    {
      "inputs": [
        {
          "internalType": "bytes32",
          "name": "ilk",
          "type": "bytes32"
        }
      ],
      "name": "chop",
      "outputs": [
        {
          "internalType": "uint256",
          "name": "",
          "type": "uint256"
        }
      ],
      "stateMutability": "view",
      "type": "function"
    },
    {
      "inputs": [
        {
          "internalType": "address",
          "name": "usr",
          "type": "address"
        }
      ],
      "name": "deny",
      "outputs": [],
      "stateMutability": "nonpayable",
      "type": "function"
    },
    {
      "inputs": [
        {
          "internalType": "bytes32",
          "name": "ilk",
          "type": "bytes32"
        },
        {
          "internalType": "uint256",
          "name": "rad",
          "type": "uint256"
        }
      ],
      "name": "digs",
      "outputs": [],
      "stateMutability": "nonpayable",
      "type": "function"
    },
    {
      "inputs": [
        {
          "internalType": "bytes32",
          "name": "ilk",
          "type": "bytes32"
        },
        {
          "internalType": "bytes32",
          "name": "what",
          "type": "bytes32"
        },
        {
          "internalType": "uint256",
          "name": "data",
          "type": "uint256"
        }
      ],
      "name": "file",
      "outputs": [],
      "stateMutability": "nonpayable",
      "type": "function"
    },
    {
      "inputs": [
        {
          "internalType": "bytes32",
          "name": "what",
          "type": "bytes32"
        },
        {
          "internalType": "uint256",
          "name": "data",
          "type": "uint256"
        }
      ],
      "name": "file",
      "outputs": [],
      "stateMutability": "nonpayable",
      "type": "function"
    },
    {
      "inputs": [
        {
          "internalType": "bytes32",
          "name": "what",
          "type": "bytes32"
        },
        {
          "internalType": "address",
          "name": "data",
          "type": "address"
        }
      ],
      "name": "file",
      "outputs": [],
      "stateMutability": "nonpayable",
      "type": "function"
    },
    {
      "inputs": [
        {
          "internalType": "bytes32",
          "name": "ilk",
          "type": "bytes32"
        },
        {
          "internalType": "bytes32",
          "name": "what",
          "type": "bytes32"
        },
        {
          "internalType": "address",
          "name": "clip",
          "type": "address"
        }
      ],
      "name": "file",
      "outputs": [],
      "stateMutability": "nonpayable",
      "type": "function"
    },
    {
      "inputs": [
        {
          "internalType": "bytes32",
          "name": "",
          "type": "bytes32"
        }
      ],
      "name": "ilks",
      "outputs": [
        {
          "internalType": "address",
          "name": "clip",
          "type": "address"
        },
        {
          "internalType": "uint256",
          "name": "chop",
          "type": "uint256"
        },
        {
          "internalType": "uint256",
          "name": "hole",
          "type": "uint256"
        },
        {
          "internalType": "uint256",
          "name": "dirt",
          "type": "uint256"
        }
      ],
      "stateMutability": "view",
      "type": "function"
    },
    {
      "inputs": [],
      "name": "live",
      "outputs": [
        {
          "internalType": "uint256",
          "name": "",
          "type": "uint256"
        }
      ],
      "stateMutability": "view",
      "type": "function"
    },
    {
      "inputs": [
        {
          "internalType": "address",
          "name": "usr",
          "type": "address"
        }
      ],
      "name": "rely",
      "outputs": [],
      "stateMutability": "nonpayable",
      "type": "function"
    },
    {
      "inputs": [],
      "name": "vat",
      "outputs": [
        {
          "internalType": "contract VatLike",
          "name": "",
          "type": "address"
        }
      ],
      "stateMutability": "view",
      "type": "function"
    },
    {
      "inputs": [],
      "name": "vow",
      "outputs": [
        {
          "internalType": "contract VowLike",
          "name": "",
          "type": "address"
        }
      ],
      "stateMutability": "view",
      "type": "function"
    },
    {
      "inputs": [
        {
          "internalType": "address",
          "name": "",
          "type": "address"
        }
      ],
      "name": "wards",
      "outputs": [
        {
          "internalType": "uint256",
          "name": "",
          "type": "uint256"
        }
      ],
      "stateMutability": "view",
      "type": "function"
    }
  ],
  "bytecode": "0x60a060405234801561001057600080fd5b506040516122d83803806122d88339818101604052602081101561003357600080fd5b81019080805190602001909291905050508073ffffffffffffffffffffffffffffffffffffffff1660808173ffffffffffffffffffffffffffffffffffffffff1660601b81525050600160038190555060016000803373ffffffffffffffffffffffffffffffffffffffff1673ffffffffffffffffffffffffffffffffffffffff168152602001908152602001600020819055503373ffffffffffffffffffffffffffffffffffffffff167fdd0e34038ac38b2a1ce960229778ac48a8719bc900b6c4f8d0475c6e8b385a6060405160405180910390a25060805160601c6121a1610137600039806109485280611414528061158d5280611ac252506121a16000f3fe608060405234801561001057600080fd5b506004361061010b5760003560e01c8063af7cfeb1116100a2578063d792653811610071578063d79265381461039e578063d9638d36146103e0578063ebecb39d1461044d578063ed998908146104a5578063eda6e121146105275761010b565b8063af7cfeb1146102a2578063bf353dbb146102c0578063c87193f414610318578063d4e8be83146103505761010b565b806365fae35e116100de57806365fae35e146101f25780636924500914610236578063957aa58c146102405780639c52a7f11461025e5761010b565b80631a0b287e1461011057806329ae81141461015257806336569e771461018a578063626cb3c5146101be575b600080fd5b6101506004803603606081101561012657600080fd5b81019080803590602001909291908035906020019092919080359060200190929190505050610545565b005b6101886004803603604081101561016857600080fd5b8101908080359060200190929190803590602001909291905050506107b4565b005b610192610946565b604051808273ffffffffffffffffffffffffffffffffffffffff16815260200191505060405180910390f35b6101c661096a565b604051808273ffffffffffffffffffffffffffffffffffffffff16815260200191505060405180910390f35b6102346004803603602081101561020857600080fd5b81019080803573ffffffffffffffffffffffffffffffffffffffff169060200190929190505050610990565b005b61023e610ace565b005b610248610bb8565b6040518082815260200191505060405180910390f35b6102a06004803603602081101561027457600080fd5b81019080803573ffffffffffffffffffffffffffffffffffffffff169060200190929190505050610bbe565b005b6102aa610cfc565b6040518082815260200191505060405180910390f35b610302600480360360208110156102d657600080fd5b81019080803573ffffffffffffffffffffffffffffffffffffffff169060200190929190505050610d02565b6040518082815260200191505060405180910390f35b61034e6004803603604081101561032e57600080fd5b810190808035906020019092919080359060200190929190505050610d1a565b005b61039c6004803603604081101561036657600080fd5b8101908080359060200190929190803573ffffffffffffffffffffffffffffffffffffffff169060200190929190505050610e56565b005b6103ca600480360360208110156103b457600080fd5b8101908080359060200190929190505050611038565b6040518082815260200191505060405180910390f35b61040c600480360360208110156103f657600080fd5b8101908080359060200190929190505050611058565b604051808573ffffffffffffffffffffffffffffffffffffffff16815260200184815260200183815260200182815260200194505050505060405180910390f35b6104a36004803603606081101561046357600080fd5b810190808035906020019092919080359060200190929190803573ffffffffffffffffffffffffffffffffffffffff1690602001909291905050506110a8565b005b610511600480360360608110156104bb57600080fd5b8101908080359060200190929190803573ffffffffffffffffffffffffffffffffffffffff169060200190929190803573ffffffffffffffffffffffffffffffffffffffff169060200190929190505050611395565b6040518082815260200191505060405180910390f35b61052f611e43565b6040518082815260200191505060405180910390f35b60016000803373ffffffffffffffffffffffffffffffffffffffff1673ffffffffffffffffffffffffffffffffffffffff16815260200190815260200160002054146105f9576040517f08c379a00000000000000000000000000000000000000000000000000000000081526004018080602001828103825260128152602001807f446f672f6e6f742d617574686f72697a6564000000000000000000000000000081525060200191505060405180910390fd5b7f63686f70000000000000000000000000000000000000000000000000000000008214156106bf57670de0b6b3a764000081101561069f576040517f08c379a00000000000000000000000000000000000000000000000000000000081526004018080602001828103825260148152602001807f446f672f66696c652d63686f702d6c742d57414400000000000000000000000081525060200191505060405180910390fd5b806001600085815260200190815260200160002060010181905550610776565b7f686f6c650000000000000000000000000000000000000000000000000000000082141561070757806001600085815260200190815260200160002060020181905550610775565b6040517f08c379a000000000000000000000000000000000000000000000000000000000815260040180806020018281038252601b8152602001807f446f672f66696c652d756e7265636f676e697a65642d706172616d000000000081525060200191505060405180910390fd5b5b81837f851aa1caf4888170ad8875449d18f0f512fd6deb2a6571ea1a41fb9f95acbcd1836040518082815260200191505060405180910390a3505050565b60016000803373ffffffffffffffffffffffffffffffffffffffff1673ffffffffffffffffffffffffffffffffffffffff1681526020019081526020016000205414610868576040517f08c379a00000000000000000000000000000000000000000000000000000000081526004018080602001828103825260128152602001807f446f672f6e6f742d617574686f72697a6564000000000000000000000000000081525060200191505060405180910390fd5b7f486f6c650000000000000000000000000000000000000000000000000000000082141561089c578060048190555061090a565b6040517f08c379a000000000000000000000000000000000000000000000000000000000815260040180806020018281038252601b8152602001807f446f672f66696c652d756e7265636f676e697a65642d706172616d000000000081525060200191505060405180910390fd5b817fe986e40cc8c151830d4f61050f4fb2e4add8567caad2d5f5496f9158e91fe4c7826040518082815260200191505060405180910390a25050565b7f000000000000000000000000000000000000000000000000000000000000000081565b600260009054906101000a900473ffffffffffffffffffffffffffffffffffffffff1681565b60016000803373ffffffffffffffffffffffffffffffffffffffff1673ffffffffffffffffffffffffffffffffffffffff1681526020019081526020016000205414610a44576040517f08c379a00000000000000000000000000000000000000000000000000000000081526004018080602001828103825260128152602001807f446f672f6e6f742d617574686f72697a6564000000000000000000000000000081525060200191505060405180910390fd5b60016000808373ffffffffffffffffffffffffffffffffffffffff1673ffffffffffffffffffffffffffffffffffffffff168152602001908152602001600020819055508073ffffffffffffffffffffffffffffffffffffffff167fdd0e34038ac38b2a1ce960229778ac48a8719bc900b6c4f8d0475c6e8b385a6060405160405180910390a250565b60016000803373ffffffffffffffffffffffffffffffffffffffff1673ffffffffffffffffffffffffffffffffffffffff1681526020019081526020016000205414610b82576040517f08c379a00000000000000000000000000000000000000000000000000000000081526004018080602001828103825260128152602001807f446f672f6e6f742d617574686f72697a6564000000000000000000000000000081525060200191505060405180910390fd5b60006003819055507f2308ed18a14e800c39b86eb6ea43270105955ca385b603b64eca89f98ae8fbda60405160405180910390a1565b60035481565b60016000803373ffffffffffffffffffffffffffffffffffffffff1673ffffffffffffffffffffffffffffffffffffffff1681526020019081526020016000205414610c72576040517f08c379a00000000000000000000000000000000000000000000000000000000081526004018080602001828103825260128152602001807f446f672f6e6f742d617574686f72697a6564000000000000000000000000000081525060200191505060405180910390fd5b60008060008373ffffffffffffffffffffffffffffffffffffffff1673ffffffffffffffffffffffffffffffffffffffff168152602001908152602001600020819055508073ffffffffffffffffffffffffffffffffffffffff167f184450df2e323acec0ed3b5c7531b81f9b4cdef7914dfd4c0a4317416bb5251b60405160405180910390a250565b60045481565b60006020528060005260406000206000915090505481565b60016000803373ffffffffffffffffffffffffffffffffffffffff1673ffffffffffffffffffffffffffffffffffffffff1681526020019081526020016000205414610dce576040517f08c379a00000000000000000000000000000000000000000000000000000000081526004018080602001828103825260128152602001807f446f672f6e6f742d617574686f72697a6564000000000000000000000000000081525060200191505060405180910390fd5b610dda60055482611e49565b600581905550610e00600160008481526020019081526020016000206003015482611e49565b6001600084815260200190815260200160002060030181905550817f54f095dc7308776bf01e8580e4dd40fd959ea4bf50b069975768320ef8d77d8a826040518082815260200191505060405180910390a25050565b60016000803373ffffffffffffffffffffffffffffffffffffffff1673ffffffffffffffffffffffffffffffffffffffff1681526020019081526020016000205414610f0a576040517f08c379a00000000000000000000000000000000000000000000000000000000081526004018080602001828103825260128152602001807f446f672f6e6f742d617574686f72697a6564000000000000000000000000000081525060200191505060405180910390fd5b7f766f770000000000000000000000000000000000000000000000000000000000821415610f785780600260006101000a81548173ffffffffffffffffffffffffffffffffffffffff021916908373ffffffffffffffffffffffffffffffffffffffff160217905550610fe6565b6040517f08c379a000000000000000000000000000000000000000000000000000000000815260040180806020018281038252601b8152602001807f446f672f66696c652d756e7265636f676e697a65642d706172616d000000000081525060200191505060405180910390fd5b817f8fef588b5fc1afbf5b2f06c1a435d513f208da2e6704c3d8f0e0ec91167066ba82604051808273ffffffffffffffffffffffffffffffffffffffff16815260200191505060405180910390a25050565b600060016000838152602001908152602001600020600101549050919050565b60016020528060005260406000206000915090508060000160009054906101000a900473ffffffffffffffffffffffffffffffffffffffff16908060010154908060020154908060030154905084565b60016000803373ffffffffffffffffffffffffffffffffffffffff1673ffffffffffffffffffffffffffffffffffffffff168152602001908152602001600020541461115c576040517f08c379a00000000000000000000000000000000000000000000000000000000081526004018080602001828103825260128152602001807f446f672f6e6f742d617574686f72697a6564000000000000000000000000000081525060200191505060405180910390fd5b7f636c6970000000000000000000000000000000000000000000000000000000008214156112d3578073ffffffffffffffffffffffffffffffffffffffff1663c5ce281e6040518163ffffffff1660e01b815260040160206040518083038186803b1580156111ca57600080fd5b505afa1580156111de573d6000803e3d6000fd5b505050506040513d60208110156111f457600080fd5b81019080805190602001909291905050508314611279576040517f08c379a00000000000000000000000000000000000000000000000000000000081526004018080602001828103825260198152602001807f446f672f66696c652d696c6b2d6e65712d636c69702e696c6b0000000000000081525060200191505060405180910390fd5b806001600085815260200190815260200160002060000160006101000a81548173ffffffffffffffffffffffffffffffffffffffff021916908373ffffffffffffffffffffffffffffffffffffffff160217905550611341565b6040517f08c379a000000000000000000000000000000000000000000000000000000000815260040180806020018281038252601b8152602001807f446f672f66696c652d756e7265636f676e697a65642d706172616d000000000081525060200191505060405180910390fd5b81837f4ff2caaa972a7c6629ea01fae9c93d73cc307d13ea4c369f9bbbb7f9b7e9461d83604051808273ffffffffffffffffffffffffffffffffffffffff16815260200191505060405180910390a3505050565b600060016003541461140f576040517f08c379a000000000000000000000000000000000000000000000000000000000815260040180806020018281038252600c8152602001807f446f672f6e6f742d6c697665000000000000000000000000000000000000000081525060200191505060405180910390fd5b6000807f000000000000000000000000000000000000000000000000000000000000000073ffffffffffffffffffffffffffffffffffffffff16632424be5c87876040518363ffffffff1660e01b8152600401808381526020018273ffffffffffffffffffffffffffffffffffffffff16815260200192505050604080518083038186803b1580156114a057600080fd5b505afa1580156114b4573d6000803e3d6000fd5b505050506040513d60408110156114ca57600080fd5b810190808051906020019092919080519060200190929190505050915091506114f1612103565b600160008881526020019081526020016000206040518060800160405290816000820160009054906101000a900473ffffffffffffffffffffffffffffffffffffffff1673ffffffffffffffffffffffffffffffffffffffff1673ffffffffffffffffffffffffffffffffffffffff168152602001600182015481526020016002820154815260200160038201548152505090506000806000807f000000000000000000000000000000000000000000000000000000000000000073ffffffffffffffffffffffffffffffffffffffff1663d9638d368c6040518263ffffffff1660e01b81526004018082815260200191505060a06040518083038186803b1580156115fc57600080fd5b505afa158015611610573d6000803e3d6000fd5b505050506040513d60a081101561162657600080fd5b810190808051906020019092919080519060200190929190805190602001909291908051906020019092919080519060200190929190505050909192935090508094508193508295505050506116b16040518060400160405280600581526020017f73706f742000000000000000000000000000000000000000000000000000000081525082611e63565b6116f06040518060400160405280600381526020017f696e6b000000000000000000000000000000000000000000000000000000000081525088611e63565b6117306040518060400160405280600881526020017f61727420726174650000000000000000000000000000000000000000000000008152508785611f6a565b6000811180156117515750611745868461207a565b61174f888361207a565b105b6117c3576040517f08c379a000000000000000000000000000000000000000000000000000000000815260040180806020018281038252600e8152602001807f446f672f6e6f742d756e7361666500000000000000000000000000000000000081525060200191505060405180910390fd5b61180b6040518060400160405280601381526020017f486f6c65204469727420686f6c6520646972740000000000000000000000000081525086604001518760600151611f6a565b600554600454118015611825575084606001518560400151115b611897576040517f08c379a00000000000000000000000000000000000000000000000000000000081526004018080602001828103825260198152602001807f446f672f6c69717569646174696f6e2d6c696d69742d6869740000000000000081525060200191505060405180910390fd5b60006118b36005546004540387606001518860400151036120a6565b90506118e6878760200151866118d185670de0b6b3a764000061207a565b816118d857fe5b04816118e057fe5b046120a6565b94508487111561196f57826118fd8689038661207a565b101561190b5786945061196e565b82611916868661207a565b101561196d576040517f08c379a000000000000000000000000000000000000000000000000000000000815260040180806020018281038252602a815260200180612142602a913960400191505060405180910390fd5b5b5b505060008561197e888661207a565b8161198557fe5b049050600081116119fe576040517f08c379a00000000000000000000000000000000000000000000000000000000081526004018080602001828103825260108152602001807f446f672f6e756c6c2d61756374696f6e0000000000000000000000000000000081525060200191505060405180910390fd5b7f80000000000000000000000000000000000000000000000000000000000000008411158015611a4e57507f80000000000000000000000000000000000000000000000000000000000000008111155b611ac0576040517f08c379a000000000000000000000000000000000000000000000000000000000815260040180806020018281038252600c8152602001807f446f672f6f766572666c6f77000000000000000000000000000000000000000081525060200191505060405180910390fd5b7f000000000000000000000000000000000000000000000000000000000000000073ffffffffffffffffffffffffffffffffffffffff16637bab3f408c8c8860000151600260009054906101000a900473ffffffffffffffffffffffffffffffffffffffff16866000038a6000036040518763ffffffff1660e01b8152600401808781526020018673ffffffffffffffffffffffffffffffffffffffff1681526020018573ffffffffffffffffffffffffffffffffffffffff1681526020018473ffffffffffffffffffffffffffffffffffffffff1681526020018381526020018281526020019650505050505050600060405180830381600087803b158015611bc957600080fd5b505af1158015611bdd573d6000803e3d6000fd5b505050506000611bed858561207a565b9050600260009054906101000a900473ffffffffffffffffffffffffffffffffffffffff1673ffffffffffffffffffffffffffffffffffffffff1663697efb78826040518263ffffffff1660e01b815260040180828152602001915050600060405180830381600087803b158015611c6457600080fd5b505af1158015611c78573d6000803e3d6000fd5b505050506000670de0b6b3a7640000611c9583896020015161207a565b81611c9c57fe5b049050611cab600554826120c0565b600581905550611cbf8760600151826120c0565b600160008f815260200190815260200160002060030181905550866000015173ffffffffffffffffffffffffffffffffffffffff1663898eb26782858f8f6040518563ffffffff1660e01b8152600401808581526020018481526020018373ffffffffffffffffffffffffffffffffffffffff1681526020018273ffffffffffffffffffffffffffffffffffffffff168152602001945050505050602060405180830381600087803b158015611d7457600080fd5b505af1158015611d88573d6000803e3d6000fd5b505050506040513d6020811015611d9e57600080fd5b8101908080519060200190929190505050995050888b73ffffffffffffffffffffffffffffffffffffffff168d7f85258d09e1e4ef299ff3fc11e74af99563f022d21f3f940db982229dc2a3358c8589868c60000151604051808581526020018481526020018381526020018273ffffffffffffffffffffffffffffffffffffffff16815260200194505050505060405180910390a450505050505050509392505050565b60055481565b6000828284039150811115611e5d57600080fd5b92915050565b611f6682826040516024018080602001838152602001828103825284818151815260200191508051906020019080838360005b83811015611eb1578082015181840152602081019050611e96565b50505050905090810190601f168015611ede5780820380516001836020036101000a031916815260200191505b5093505050506040516020818303038152906040527fb60e72cc000000000000000000000000000000000000000000000000000000007bffffffffffffffffffffffffffffffffffffffffffffffffffffffff19166020820180517bffffffffffffffffffffffffffffffffffffffffffffffffffffffff83818316178352505050506120da565b5050565b6120758383836040516024018080602001848152602001838152602001828103825285818151815260200191508051906020019080838360005b83811015611fbf578082015181840152602081019050611fa4565b50505050905090810190601f168015611fec5780820380516001836020036101000a031916815260200191505b509450505050506040516020818303038152906040527fca47c4eb000000000000000000000000000000000000000000000000000000007bffffffffffffffffffffffffffffffffffffffffffffffffffffffff19166020820180517bffffffffffffffffffffffffffffffffffffffffffffffffffffffff83818316178352505050506120da565b505050565b600080821480612097575082828385029250828161209457fe5b04145b6120a057600080fd5b92915050565b6000818311156120b657816120b8565b825b905092915050565b60008282840191508110156120d457600080fd5b92915050565b60008151905060006a636f6e736f6c652e6c6f679050602083016000808483855afa5050505050565b6040518060800160405280600073ffffffffffffffffffffffffffffffffffffffff168152602001600081526020016000815260200160008152509056fe446f672f64757374792d61756374696f6e2d66726f6d2d7061727469616c2d6c69717569646174696f6ea26469706673582212200788d584364c40fe8e03269a44587173d08592cf429d82e096cd7817124d0b2264736f6c634300060c0033",
  "linkReferences": {},
  "deployedLinkReferences": {}
}