{
  "_format": "hh-sol-artifact-1",
  "contractName": "DSChiefFab",
  "sourceName": "contracts/dai/proxy-module/chief.sol",
  "abi": [
    {
      "inputs": [
        {
          "internalType": "contract DSToken",
          "name": "gov",
          "type": "address"
        },
        {
          "internalType": "uint256",
          "name": "MAX_YAYS",
          "type": "uint256"
        }
      ],
      "name": "newChief",
      "outputs": [
        {
          "internalType": "contract DSChief",
          "name": "chief",
          "type": "address"
        }
      ],
      "stateMutability": "nonpayable",
      "type": "function"
    }
  ],
  "bytecode": "0x608060405234801561001057600080fd5b50615315806100206000396000f3fe608060405234801561001057600080fd5b506004361061002b5760003560e01c80633435e5f314610030575b600080fd5b61007c6004803603604081101561004657600080fd5b81019080803573ffffffffffffffffffffffffffffffffffffffff169060200190929190803590602001909291905050506100a8565b604051808273ffffffffffffffffffffffffffffffffffffffff16815260200191505060405180910390f35b6000806040516100b79061020c565b8080602001828103825260038152602001807f494f550000000000000000000000000000000000000000000000000000000000815250602001915050604051809103906000f08015801561010f573d6000803e3d6000fd5b50905083818460405161012190610219565b808473ffffffffffffffffffffffffffffffffffffffff1681526020018373ffffffffffffffffffffffffffffffffffffffff1681526020018281526020019350505050604051809103906000f080158015610181573d6000803e3d6000fd5b5091508073ffffffffffffffffffffffffffffffffffffffff166313af4035836040518263ffffffff1660e01b8152600401808273ffffffffffffffffffffffffffffffffffffffff168152602001915050600060405180830381600087803b1580156101ed57600080fd5b505af1158015610201573d6000803e3d6000fd5b505050505092915050565b6126698061022783390190565b612a50806128908339019056fe60806040526012600660006101000a81548160ff021916908360ff160217905550604051806020016040528060008152506007908051906020019062000047929190620001e0565b503480156200005557600080fd5b506040516200266938038062002669833981810160405260208110156200007b57600080fd5b81019080805160405193929190846401000000008211156200009c57600080fd5b83820191506020820185811115620000b357600080fd5b8251866001820283011164010000000082111715620000d157600080fd5b8083526020830192505050908051906020019080838360005b8381101562000107578082015181840152602081019050620000ea565b50505050905090810190601f168015620001355780820380516001836020036101000a031916815260200191505b5060405250505033600160006101000a81548173ffffffffffffffffffffffffffffffffffffffff021916908373ffffffffffffffffffffffffffffffffffffffff1602179055503373ffffffffffffffffffffffffffffffffffffffff167fce241d7ca1f669fee44b6fc00b8eba2df3bb514eed0f6f668f8f89096e81ed9460405160405180910390a28060059080519060200190620001d8929190620001e0565b505062000286565b828054600181600116156101000203166002900490600052602060002090601f016020900481019282601f106200022357805160ff191683800117855562000254565b8280016001018555821562000254579182015b828111156200025357825182559160200191906001019062000236565b5b50905062000263919062000267565b5090565b5b808211156200028257600081600090555060010162000268565b5090565b6123d380620002966000396000f3fe608060405234801561001057600080fd5b506004361061018e5760003560e01c80638da5cb5b116100de578063be9a655511610097578063d172dc0a11610071578063d172dc0a146107df578063dd62ed3e14610839578063ec85cfc0146108b1578063f2d5d56b146108ff5761018e565b8063be9a6555146106e6578063bf7e214f146106f0578063c47f0027146107245761018e565b80638da5cb5b146104e157806395d89b4114610515578063a0712d6814610598578063a9059cbb146105c6578063b753a98c1461062a578063bb35783b146106785761018e565b806323b872dd1161014b57806370a082311161012557806370a08231146103d757806375f12b211461042f5780637a9e5e4b1461044f57806389a40639146104935761018e565b806323b872dd14610304578063313ce5671461038857806342966c68146103a95761018e565b806306fdde031461019357806307da68f514610216578063095ea7b31461022057806312065fe01461028457806313af4035146102a257806318160ddd146102e6575b600080fd5b61019b61094d565b6040518080602001828103825283818151815260200191508051906020019080838360005b838110156101db5780820151818401526020810190506101c0565b50505050905090810190601f1680156102085780820380516001836020036101000a031916815260200191505b509250505060405180910390f35b61021e6109eb565b005b61026c6004803603604081101561023657600080fd5b81019080803573ffffffffffffffffffffffffffffffffffffffff16906020019092919080359060200190929190505050610ad3565b60405180821515815260200191505060405180910390f35b61028c610c48565b6040518082815260200191505060405180910390f35b6102e4600480360360208110156102b857600080fd5b81019080803573ffffffffffffffffffffffffffffffffffffffff169060200190929190505050610c8f565b005b6102ee610dd8565b6040518082815260200191505060405180910390f35b6103706004803603606081101561031a57600080fd5b81019080803573ffffffffffffffffffffffffffffffffffffffff169060200190929190803573ffffffffffffffffffffffffffffffffffffffff16906020019092919080359060200190929190505050610dde565b60405180821515815260200191505060405180910390f35b610390611376565b604051808260ff16815260200191505060405180910390f35b6103d5600480360360208110156103bf57600080fd5b8101908080359060200190929190505050611389565b005b610419600480360360208110156103ed57600080fd5b81019080803573ffffffffffffffffffffffffffffffffffffffff169060200190929190505050611396565b6040518082815260200191505060405180910390f35b6104376113ae565b60405180821515815260200191505060405180910390f35b6104916004803603602081101561046557600080fd5b81019080803573ffffffffffffffffffffffffffffffffffffffff1690602001909291905050506113c1565b005b6104df600480360360408110156104a957600080fd5b81019080803573ffffffffffffffffffffffffffffffffffffffff16906020019092919080359060200190929190505050611507565b005b6104e961171a565b604051808273ffffffffffffffffffffffffffffffffffffffff16815260200191505060405180910390f35b61051d611740565b6040518080602001828103825283818151815260200191508051906020019080838360005b8381101561055d578082015181840152602081019050610542565b50505050905090810190601f16801561058a5780820380516001836020036101000a031916815260200191505b509250505060405180910390f35b6105c4600480360360208110156105ae57600080fd5b81019080803590602001909291905050506117de565b005b610612600480360360408110156105dc57600080fd5b81019080803573ffffffffffffffffffffffffffffffffffffffff169060200190929190803590602001909291905050506117eb565b60405180821515815260200191505060405180910390f35b6106766004803603604081101561064057600080fd5b81019080803573ffffffffffffffffffffffffffffffffffffffff16906020019092919080359060200190929190505050611800565b005b6106e46004803603606081101561068e57600080fd5b81019080803573ffffffffffffffffffffffffffffffffffffffff169060200190929190803573ffffffffffffffffffffffffffffffffffffffff16906020019092919080359060200190929190505050611810565b005b6106ee611821565b005b6106f861190a565b604051808273ffffffffffffffffffffffffffffffffffffffff16815260200191505060405180910390f35b6107dd6004803603602081101561073a57600080fd5b810190808035906020019064010000000081111561075757600080fd5b82018360208201111561076957600080fd5b8035906020019184600183028401116401000000008311171561078b57600080fd5b91908080601f016020809104026020016040519081016040528093929190818152602001838380828437600081840152601f19601f82011690508083019250505050505050919291929050505061192e565b005b610821600480360360208110156107f557600080fd5b81019080803573ffffffffffffffffffffffffffffffffffffffff1690602001909291905050506119e8565b60405180821515815260200191505060405180910390f35b61089b6004803603604081101561084f57600080fd5b81019080803573ffffffffffffffffffffffffffffffffffffffff169060200190929190803573ffffffffffffffffffffffffffffffffffffffff169060200190929190505050611a1b565b6040518082815260200191505060405180910390f35b6108fd600480360360408110156108c757600080fd5b81019080803573ffffffffffffffffffffffffffffffffffffffff16906020019092919080359060200190929190505050611a40565b005b61094b6004803603604081101561091557600080fd5b81019080803573ffffffffffffffffffffffffffffffffffffffff16906020019092919080359060200190929190505050611fde565b005b60078054600181600116156101000203166002900480601f0160208091040260200160405190810160405280929190818152602001828054600181600116156101000203166002900480156109e35780601f106109b8576101008083540402835291602001916109e3565b820191906000526020600020905b8154815290600101906020018083116109c657829003601f168201915b505050505081565b610a19336000357fffffffff0000000000000000000000000000000000000000000000000000000016611fee565b610a8b576040517f08c379a00000000000000000000000000000000000000000000000000000000081526004018080602001828103825260148152602001807f64732d617574682d756e617574686f72697a656400000000000000000000000081525060200191505060405180910390fd5b60018060146101000a81548160ff0219169083151502179055507fbedf0f4abfe86d4ffad593d9607fe70e83ea706033d44d24b3b6283cf3fc4f6b60405160405180910390a1565b6000600160149054906101000a900460ff1615610b58576040517f08c379a00000000000000000000000000000000000000000000000000000000081526004018080602001828103825260128152602001807f64732d73746f702d69732d73746f70706564000000000000000000000000000081525060200191505060405180910390fd5b81600460003373ffffffffffffffffffffffffffffffffffffffff1673ffffffffffffffffffffffffffffffffffffffff16815260200190815260200160002060008573ffffffffffffffffffffffffffffffffffffffff1673ffffffffffffffffffffffffffffffffffffffff168152602001908152602001600020819055508273ffffffffffffffffffffffffffffffffffffffff163373ffffffffffffffffffffffffffffffffffffffff167f8c5be1e5ebec7d5bd14f71427d1e84f3dd0314c0f7b2291e5b200ac8c7c3b925846040518082815260200191505060405180910390a36001905092915050565b6000600360003373ffffffffffffffffffffffffffffffffffffffff1673ffffffffffffffffffffffffffffffffffffffff16815260200190815260200160002054905090565b610cbd336000357fffffffff0000000000000000000000000000000000000000000000000000000016611fee565b610d2f576040517f08c379a00000000000000000000000000000000000000000000000000000000081526004018080602001828103825260148152602001807f64732d617574682d756e617574686f72697a656400000000000000000000000081525060200191505060405180910390fd5b80600160006101000a81548173ffffffffffffffffffffffffffffffffffffffff021916908373ffffffffffffffffffffffffffffffffffffffff160217905550600160009054906101000a900473ffffffffffffffffffffffffffffffffffffffff1673ffffffffffffffffffffffffffffffffffffffff167fce241d7ca1f669fee44b6fc00b8eba2df3bb514eed0f6f668f8f89096e81ed9460405160405180910390a250565b60025481565b6000600160149054906101000a900460ff1615610e63576040517f08c379a00000000000000000000000000000000000000000000000000000000081526004018080602001828103825260128152602001807f64732d73746f702d69732d73746f70706564000000000000000000000000000081525060200191505060405180910390fd5b3373ffffffffffffffffffffffffffffffffffffffff168473ffffffffffffffffffffffffffffffffffffffff1614158015610f3b57507fffffffffffffffffffffffffffffffffffffffffffffffffffffffffffffffff600460008673ffffffffffffffffffffffffffffffffffffffff1673ffffffffffffffffffffffffffffffffffffffff16815260200190815260200160002060003373ffffffffffffffffffffffffffffffffffffffff1673ffffffffffffffffffffffffffffffffffffffff1681526020019081526020016000205414155b156111395781600460008673ffffffffffffffffffffffffffffffffffffffff1673ffffffffffffffffffffffffffffffffffffffff16815260200190815260200160002060003373ffffffffffffffffffffffffffffffffffffffff1673ffffffffffffffffffffffffffffffffffffffff168152602001908152602001600020541015611032576040517f08c379a000000000000000000000000000000000000000000000000000000000815260040180806020018281038252601e8152602001807f64732d746f6b656e2d696e73756666696369656e742d617070726f76616c000081525060200191505060405180910390fd5b6110b8600460008673ffffffffffffffffffffffffffffffffffffffff1673ffffffffffffffffffffffffffffffffffffffff16815260200190815260200160002060003373ffffffffffffffffffffffffffffffffffffffff1673ffffffffffffffffffffffffffffffffffffffff16815260200190815260200160002054836121fa565b600460008673ffffffffffffffffffffffffffffffffffffffff1673ffffffffffffffffffffffffffffffffffffffff16815260200190815260200160002060003373ffffffffffffffffffffffffffffffffffffffff1673ffffffffffffffffffffffffffffffffffffffff168152602001908152602001600020819055505b81600360008673ffffffffffffffffffffffffffffffffffffffff1673ffffffffffffffffffffffffffffffffffffffff1681526020019081526020016000205410156111ee576040517f08c379a000000000000000000000000000000000000000000000000000000000815260040180806020018281038252601d8152602001807f64732d746f6b656e2d696e73756666696369656e742d62616c616e636500000081525060200191505060405180910390fd5b611237600360008673ffffffffffffffffffffffffffffffffffffffff1673ffffffffffffffffffffffffffffffffffffffff16815260200190815260200160002054836121fa565b600360008673ffffffffffffffffffffffffffffffffffffffff1673ffffffffffffffffffffffffffffffffffffffff168152602001908152602001600020819055506112c3600360008573ffffffffffffffffffffffffffffffffffffffff1673ffffffffffffffffffffffffffffffffffffffff168152602001908152602001600020548361227d565b600360008573ffffffffffffffffffffffffffffffffffffffff1673ffffffffffffffffffffffffffffffffffffffff168152602001908152602001600020819055508273ffffffffffffffffffffffffffffffffffffffff168473ffffffffffffffffffffffffffffffffffffffff167fddf252ad1be2c89b69c2b068fc378daa952ba7f163c4a11628f55a4df523b3ef846040518082815260200191505060405180910390a3600190509392505050565b600660009054906101000a900460ff1681565b6113933382611a40565b50565b60036020528060005260406000206000915090505481565b600160149054906101000a900460ff1681565b6113ef336000357fffffffff0000000000000000000000000000000000000000000000000000000016611fee565b611461576040517f08c379a00000000000000000000000000000000000000000000000000000000081526004018080602001828103825260148152602001807f64732d617574682d756e617574686f72697a656400000000000000000000000081525060200191505060405180910390fd5b806000806101000a81548173ffffffffffffffffffffffffffffffffffffffff021916908373ffffffffffffffffffffffffffffffffffffffff16021790555060008054906101000a900473ffffffffffffffffffffffffffffffffffffffff1673ffffffffffffffffffffffffffffffffffffffff167f1abebea81bfa2637f28358c371278fb15ede7ea8dd28d2e03b112ff6d936ada460405160405180910390a250565b611535336000357fffffffff0000000000000000000000000000000000000000000000000000000016611fee565b6115a7576040517f08c379a00000000000000000000000000000000000000000000000000000000081526004018080602001828103825260148152602001807f64732d617574682d756e617574686f72697a656400000000000000000000000081525060200191505060405180910390fd5b600160149054906101000a900460ff161561162a576040517f08c379a00000000000000000000000000000000000000000000000000000000081526004018080602001828103825260128152602001807f64732d73746f702d69732d73746f70706564000000000000000000000000000081525060200191505060405180910390fd5b611673600360008473ffffffffffffffffffffffffffffffffffffffff1673ffffffffffffffffffffffffffffffffffffffff168152602001908152602001600020548261227d565b600360008473ffffffffffffffffffffffffffffffffffffffff1673ffffffffffffffffffffffffffffffffffffffff168152602001908152602001600020819055506116c26002548261227d565b6002819055508173ffffffffffffffffffffffffffffffffffffffff167f0f6798a560793a54c3bcfe86a93cde1e73087d944c0ea20544137d4121396885826040518082815260200191505060405180910390a25050565b600160009054906101000a900473ffffffffffffffffffffffffffffffffffffffff1681565b60058054600181600116156101000203166002900480601f0160208091040260200160405190810160405280929190818152602001828054600181600116156101000203166002900480156117d65780601f106117ab576101008083540402835291602001916117d6565b820191906000526020600020905b8154815290600101906020018083116117b957829003601f168201915b505050505081565b6117e83382611507565b50565b60006117f8338484610dde565b905092915050565b61180b338383610dde565b505050565b61181b838383610dde565b50505050565b61184f336000357fffffffff0000000000000000000000000000000000000000000000000000000016611fee565b6118c1576040517f08c379a00000000000000000000000000000000000000000000000000000000081526004018080602001828103825260148152602001807f64732d617574682d756e617574686f72697a656400000000000000000000000081525060200191505060405180910390fd5b6000600160146101000a81548160ff0219169083151502179055507f1b55ba3aa851a46be3b365aee5b5c140edd620d578922f3e8466d2cbd96f954b60405160405180910390a1565b60008054906101000a900473ffffffffffffffffffffffffffffffffffffffff1681565b61195c336000357fffffffff0000000000000000000000000000000000000000000000000000000016611fee565b6119ce576040517f08c379a00000000000000000000000000000000000000000000000000000000081526004018080602001828103825260148152602001807f64732d617574682d756e617574686f72697a656400000000000000000000000081525060200191505060405180910390fd5b80600790805190602001906119e4929190612300565b5050565b6000611a14827fffffffffffffffffffffffffffffffffffffffffffffffffffffffffffffffff610ad3565b9050919050565b6004602052816000526040600020602052806000526040600020600091509150505481565b611a6e336000357fffffffff0000000000000000000000000000000000000000000000000000000016611fee565b611ae0576040517f08c379a00000000000000000000000000000000000000000000000000000000081526004018080602001828103825260148152602001807f64732d617574682d756e617574686f72697a656400000000000000000000000081525060200191505060405180910390fd5b600160149054906101000a900460ff1615611b63576040517f08c379a00000000000000000000000000000000000000000000000000000000081526004018080602001828103825260128152602001807f64732d73746f702d69732d73746f70706564000000000000000000000000000081525060200191505060405180910390fd5b3373ffffffffffffffffffffffffffffffffffffffff168273ffffffffffffffffffffffffffffffffffffffff1614158015611c3b57507fffffffffffffffffffffffffffffffffffffffffffffffffffffffffffffffff600460008473ffffffffffffffffffffffffffffffffffffffff1673ffffffffffffffffffffffffffffffffffffffff16815260200190815260200160002060003373ffffffffffffffffffffffffffffffffffffffff1673ffffffffffffffffffffffffffffffffffffffff1681526020019081526020016000205414155b15611e395780600460008473ffffffffffffffffffffffffffffffffffffffff1673ffffffffffffffffffffffffffffffffffffffff16815260200190815260200160002060003373ffffffffffffffffffffffffffffffffffffffff1673ffffffffffffffffffffffffffffffffffffffff168152602001908152602001600020541015611d32576040517f08c379a000000000000000000000000000000000000000000000000000000000815260040180806020018281038252601e8152602001807f64732d746f6b656e2d696e73756666696369656e742d617070726f76616c000081525060200191505060405180910390fd5b611db8600460008473ffffffffffffffffffffffffffffffffffffffff1673ffffffffffffffffffffffffffffffffffffffff16815260200190815260200160002060003373ffffffffffffffffffffffffffffffffffffffff1673ffffffffffffffffffffffffffffffffffffffff16815260200190815260200160002054826121fa565b600460008473ffffffffffffffffffffffffffffffffffffffff1673ffffffffffffffffffffffffffffffffffffffff16815260200190815260200160002060003373ffffffffffffffffffffffffffffffffffffffff1673ffffffffffffffffffffffffffffffffffffffff168152602001908152602001600020819055505b80600360008473ffffffffffffffffffffffffffffffffffffffff1673ffffffffffffffffffffffffffffffffffffffff168152602001908152602001600020541015611eee576040517f08c379a000000000000000000000000000000000000000000000000000000000815260040180806020018281038252601d8152602001807f64732d746f6b656e2d696e73756666696369656e742d62616c616e636500000081525060200191505060405180910390fd5b611f37600360008473ffffffffffffffffffffffffffffffffffffffff1673ffffffffffffffffffffffffffffffffffffffff16815260200190815260200160002054826121fa565b600360008473ffffffffffffffffffffffffffffffffffffffff1673ffffffffffffffffffffffffffffffffffffffff16815260200190815260200160002081905550611f86600254826121fa565b6002819055508173ffffffffffffffffffffffffffffffffffffffff167fcc16f5dbb4873280815c1ee09dbd06736cffcc184412cf7a71a0fdb75d397ca5826040518082815260200191505060405180910390a25050565b611fe9823383610dde565b505050565b60003073ffffffffffffffffffffffffffffffffffffffff168373ffffffffffffffffffffffffffffffffffffffff16141561202d57600190506121f4565b600160009054906101000a900473ffffffffffffffffffffffffffffffffffffffff1673ffffffffffffffffffffffffffffffffffffffff168373ffffffffffffffffffffffffffffffffffffffff16141561208c57600190506121f4565b600073ffffffffffffffffffffffffffffffffffffffff1660008054906101000a900473ffffffffffffffffffffffffffffffffffffffff1673ffffffffffffffffffffffffffffffffffffffff1614156120ea57600090506121f4565b60008054906101000a900473ffffffffffffffffffffffffffffffffffffffff1673ffffffffffffffffffffffffffffffffffffffff1663b70096138430856040518463ffffffff1660e01b8152600401808473ffffffffffffffffffffffffffffffffffffffff1681526020018373ffffffffffffffffffffffffffffffffffffffff168152602001827bffffffffffffffffffffffffffffffffffffffffffffffffffffffff19168152602001935050505060206040518083038186803b1580156121b657600080fd5b505afa1580156121ca573d6000803e3d6000fd5b505050506040513d60208110156121e057600080fd5b810190808051906020019092919050505090505b92915050565b6000828284039150811115612277576040517f08c379a00000000000000000000000000000000000000000000000000000000081526004018080602001828103825260158152602001807f64732d6d6174682d7375622d756e646572666c6f77000000000000000000000081525060200191505060405180910390fd5b92915050565b60008282840191508110156122fa576040517f08c379a00000000000000000000000000000000000000000000000000000000081526004018080602001828103825260148152602001807f64732d6d6174682d6164642d6f766572666c6f7700000000000000000000000081525060200191505060405180910390fd5b92915050565b828054600181600116156101000203166002900490600052602060002090601f016020900481019282601f1061234157805160ff191683800117855561236f565b8280016001018555821561236f579182015b8281111561236e578251825591602001919060010190612353565b5b50905061237c9190612380565b5090565b5b80821115612399576000816000905550600101612381565b509056fea2646970667358221220b43e630e7427af10a45481346f928346db4f473f047eadb9241aff3fe5e08a7e64736f6c634300060c0033608060405234801561001057600080fd5b50604051612a50380380612a508339818101604052606081101561003357600080fd5b8101908080519060200190929190805190602001909291908051906020019092919050505082828233600160006101000a81548173ffffffffffffffffffffffffffffffffffffffff021916908373ffffffffffffffffffffffffffffffffffffffff1602179055503373ffffffffffffffffffffffffffffffffffffffff167fce241d7ca1f669fee44b6fc00b8eba2df3bb514eed0f6f668f8f89096e81ed9460405160405180910390a282600a60006101000a81548173ffffffffffffffffffffffffffffffffffffffff021916908373ffffffffffffffffffffffffffffffffffffffff16021790555081600b60006101000a81548173ffffffffffffffffffffffffffffffffffffffff021916908373ffffffffffffffffffffffffffffffffffffffff16021790555080600d81905550505050306000806101000a81548173ffffffffffffffffffffffffffffffffffffffff021916908373ffffffffffffffffffffffffffffffffffffffff1602179055506000600160006101000a81548173ffffffffffffffffffffffffffffffffffffffff021916908373ffffffffffffffffffffffffffffffffffffffff160217905550505050612851806101ff6000396000f3fe608060405234801561001057600080fd5b50600436106101cf5760003560e01c80638da5cb5b11610104578063d8bff5a5116100a2578063ed08132911610071578063ed08132914610a3c578063fbf8077314610b08578063fc7e286d14610b62578063fe95a5ce14610bba576101cf565b8063d8bff5a51461095a578063d8ccd0f3146109b2578063dd467064146109e0578063ea6177e714610a0e576101cf565b8063bf7e214f116100de578063bf7e214f146107fb578063c2ffc7bb1461082f578063c6b0263e14610891578063d381ba7c1461090a576101cf565b80638da5cb5b146106bd578063a078f737146106f1578063b700961314610758576101cf565b80633c278bd51161017157806367aff4841161014b57806367aff484146105625780637a9e5e4b146105bf5780637d40583d146106035780638a4b793c14610689576101cf565b80633c278bd5146103fa5780635123e1fa1461043e5780635d0341ba1461050a576101cf565b8063180cb47f116101ad578063180cb47f146102a457806327538e90146102d85780632f47571f14610359578063362344b8146103dc576101cf565b8063046c472f146101d457806306a36aee1461020857806313af403514610260575b600080fd5b6101dc610bee565b604051808273ffffffffffffffffffffffffffffffffffffffff16815260200191505060405180910390f35b61024a6004803603602081101561021e57600080fd5b81019080803573ffffffffffffffffffffffffffffffffffffffff169060200190929190505050610c14565b6040518082815260200191505060405180910390f35b6102a26004803603602081101561027657600080fd5b81019080803573ffffffffffffffffffffffffffffffffffffffff169060200190929190505050610c5d565b005b6102ac610c62565b604051808273ffffffffffffffffffffffffffffffffffffffff16815260200191505060405180910390f35b610343600480360360408110156102ee57600080fd5b81019080803573ffffffffffffffffffffffffffffffffffffffff16906020019092919080357bffffffffffffffffffffffffffffffffffffffffffffffffffffffff19169060200190929190505050610c88565b6040518082815260200191505060405180910390f35b6103c46004803603604081101561036f57600080fd5b81019080803573ffffffffffffffffffffffffffffffffffffffff16906020019092919080357bffffffffffffffffffffffffffffffffffffffffffffffffffffffff19169060200190929190505050610d21565b60405180821515815260200191505060405180910390f35b6103e4610dc7565b6040518082815260200191505060405180910390f35b61043c6004803603602081101561041057600080fd5b81019080803573ffffffffffffffffffffffffffffffffffffffff169060200190929190505050610dcd565b005b6104f46004803603602081101561045457600080fd5b810190808035906020019064010000000081111561047157600080fd5b82018360208201111561048357600080fd5b803590602001918460208302840111640100000000831117156104a557600080fd5b919080806020026020016040519081016040528093929190818152602001838360200280828437600081840152601f19601f820116905080830192505050505050509192919290505050610f7a565b6040518082815260200191505060405180910390f35b61054c6004803603602081101561052057600080fd5b81019080803573ffffffffffffffffffffffffffffffffffffffff169060200190929190505050611107565b6040518082815260200191505060405180910390f35b6105bd6004803603606081101561057857600080fd5b81019080803573ffffffffffffffffffffffffffffffffffffffff169060200190929190803560ff16906020019092919080351515906020019092919050505061111f565b005b610601600480360360208110156105d557600080fd5b81019080803573ffffffffffffffffffffffffffffffffffffffff1690602001909291905050506112b8565b005b6106876004803603608081101561061957600080fd5b81019080803560ff169060200190929190803573ffffffffffffffffffffffffffffffffffffffff16906020019092919080357bffffffffffffffffffffffffffffffffffffffffffffffffffffffff191690602001909291908035151590602001909291905050506112bd565b005b610691611544565b604051808273ffffffffffffffffffffffffffffffffffffffff16815260200191505060405180910390f35b6106c561156e565b604051808273ffffffffffffffffffffffffffffffffffffffff16815260200191505060405180910390f35b6107406004803603604081101561070757600080fd5b81019080803573ffffffffffffffffffffffffffffffffffffffff169060200190929190803560ff169060200190929190505050611594565b60405180821515815260200191505060405180910390f35b6107e36004803603606081101561076e57600080fd5b81019080803573ffffffffffffffffffffffffffffffffffffffff169060200190929190803573ffffffffffffffffffffffffffffffffffffffff16906020019092919080357bffffffffffffffffffffffffffffffffffffffffffffffffffffffff191690602001909291905050506115c3565b60405180821515815260200191505060405180910390f35b61080361161d565b604051808273ffffffffffffffffffffffffffffffffffffffff16815260200191505060405180910390f35b6108656004803603604081101561084557600080fd5b810190808035906020019092919080359060200190929190505050611641565b604051808273ffffffffffffffffffffffffffffffffffffffff16815260200191505060405180910390f35b610908600480360360608110156108a757600080fd5b81019080803573ffffffffffffffffffffffffffffffffffffffff16906020019092919080357bffffffffffffffffffffffffffffffffffffffffffffffffffffffff1916906020019092919080351515906020019092919050505061168c565b005b6109586004803603604081101561092057600080fd5b81019080803573ffffffffffffffffffffffffffffffffffffffff1690602001909291908035151590602001909291905050506117d7565b005b61099c6004803603602081101561097057600080fd5b81019080803573ffffffffffffffffffffffffffffffffffffffff1690602001909291905050506117dc565b6040518082815260200191505060405180910390f35b6109de600480360360208110156109c857600080fd5b81019080803590602001909291905050506117f4565b005b610a0c600480360360208110156109f657600080fd5b8101908080359060200190929190505050611adf565b005b610a3a60048036036020811015610a2457600080fd5b8101908080359060200190929190505050611dca565b005b610af260048036036020811015610a5257600080fd5b8101908080359060200190640100000000811115610a6f57600080fd5b820183602082011115610a8157600080fd5b80359060200191846020830284011164010000000083111715610aa357600080fd5b919080806020026020016040519081016040528093929190818152602001838360200280828437600081840152601f19601f82011690508083019250505050505050919291929050505061205e565b6040518082815260200191505060405180910390f35b610b4a60048036036020811015610b1e57600080fd5b81019080803573ffffffffffffffffffffffffffffffffffffffff16906020019092919050505061207e565b60405180821515815260200191505060405180910390f35b610ba460048036036020811015610b7857600080fd5b81019080803573ffffffffffffffffffffffffffffffffffffffff1690602001909291905050506120d8565b6040518082815260200191505060405180910390f35b610bc26120f0565b604051808273ffffffffffffffffffffffffffffffffffffffff16815260200191505060405180910390f35b600b60009054906101000a900473ffffffffffffffffffffffffffffffffffffffff1681565b6000600360008373ffffffffffffffffffffffffffffffffffffffff1673ffffffffffffffffffffffffffffffffffffffff168152602001908152602001600020549050919050565b600080fd5b600a60009054906101000a900473ffffffffffffffffffffffffffffffffffffffff1681565b6000600460008473ffffffffffffffffffffffffffffffffffffffff1673ffffffffffffffffffffffffffffffffffffffff1681526020019081526020016000206000837bffffffffffffffffffffffffffffffffffffffffffffffffffffffff19167bffffffffffffffffffffffffffffffffffffffffffffffffffffffff1916815260200190815260200160002054905092915050565b6000600560008473ffffffffffffffffffffffffffffffffffffffff1673ffffffffffffffffffffffffffffffffffffffff1681526020019081526020016000206000837bffffffffffffffffffffffffffffffffffffffffffffffffffffffff19167bffffffffffffffffffffffffffffffffffffffffffffffffffffffff1916815260200190815260200160002060009054906101000a900460ff16905092915050565b600d5481565b60008060006004359250602435915034905060086000600c60009054906101000a900473ffffffffffffffffffffffffffffffffffffffff1673ffffffffffffffffffffffffffffffffffffffff1673ffffffffffffffffffffffffffffffffffffffff16815260200190815260200160002054600860008673ffffffffffffffffffffffffffffffffffffffff1673ffffffffffffffffffffffffffffffffffffffff1681526020019081526020016000205411610e8b57600080fd5b83600c60006101000a81548173ffffffffffffffffffffffffffffffffffffffff021916908373ffffffffffffffffffffffffffffffffffffffff16021790555081833373ffffffffffffffffffffffffffffffffffffffff166000357fffffffff00000000000000000000000000000000000000000000000000000000167bffffffffffffffffffffffffffffffffffffffffffffffffffffffff19168460003660405180848152602001806020018281038252848482818152602001925080828437600081840152601f19601f82011690508083019250505094505050505060405180910390a450505050565b60008060008060043592506024359150349050600d5485511115610f9d57600080fd5b610fa685612116565b60008560405160200180828051906020019060200280838360005b83811015610fdc578082015181840152602081019050610fc1565b5050505090500191505060405160208183030381529060405280519060200120905085600660008381526020019081526020016000209080519060200190611025929190612756565b50807f4f0892983790f53eea39a7a496f6cb40e8811b313871337b6a761efc6c67bb1f60405160405180910390a28094505081833373ffffffffffffffffffffffffffffffffffffffff166000357fffffffff00000000000000000000000000000000000000000000000000000000167bffffffffffffffffffffffffffffffffffffffffffffffffffffffff19168460003660405180848152602001806020018281038252848482818152602001925080828437600081840152601f19601f82011690508083019250505094505050505060405180910390a4505050919050565b60086020528060005260406000206000915090505481565b61114d336000357fffffffff00000000000000000000000000000000000000000000000000000000166121b3565b6111bf576040517f08c379a00000000000000000000000000000000000000000000000000000000081526004018080602001828103825260148152602001807f64732d617574682d756e617574686f72697a656400000000000000000000000081525060200191505060405180910390fd5b6000600360008573ffffffffffffffffffffffffffffffffffffffff1673ffffffffffffffffffffffffffffffffffffffff16815260200190815260200160002054905060008360ff1660020a60001b9050821561126257808217600360008773ffffffffffffffffffffffffffffffffffffffff1673ffffffffffffffffffffffffffffffffffffffff168152602001908152602001600020819055506112b1565b61126b816123bf565b8216600360008773ffffffffffffffffffffffffffffffffffffffff1673ffffffffffffffffffffffffffffffffffffffff168152602001908152602001600020819055505b5050505050565b600080fd5b6112eb336000357fffffffff00000000000000000000000000000000000000000000000000000000166121b3565b61135d576040517f08c379a00000000000000000000000000000000000000000000000000000000081526004018080602001828103825260148152602001807f64732d617574682d756e617574686f72697a656400000000000000000000000081525060200191505060405180910390fd5b6000600460008573ffffffffffffffffffffffffffffffffffffffff1673ffffffffffffffffffffffffffffffffffffffff1681526020019081526020016000206000847bffffffffffffffffffffffffffffffffffffffffffffffffffffffff19167bffffffffffffffffffffffffffffffffffffffffffffffffffffffff1916815260200190815260200160002054905060008560ff1660020a60001b9050821561149e57808217600460008773ffffffffffffffffffffffffffffffffffffffff1673ffffffffffffffffffffffffffffffffffffffff1681526020019081526020016000206000867bffffffffffffffffffffffffffffffffffffffffffffffffffffffff19167bffffffffffffffffffffffffffffffffffffffffffffffffffffffff191681526020019081526020016000208190555061153c565b6114a7816123bf565b8216600460008773ffffffffffffffffffffffffffffffffffffffff1673ffffffffffffffffffffffffffffffffffffffff1681526020019081526020016000206000867bffffffffffffffffffffffffffffffffffffffffffffffffffffffff19167bffffffffffffffffffffffffffffffffffffffffffffffffffffffff19168152602001908152602001600020819055505b505050505050565b6000600c60009054906101000a900473ffffffffffffffffffffffffffffffffffffffff16905090565b600160009054906101000a900473ffffffffffffffffffffffffffffffffffffffff1681565b6000806115a084610c14565b905060008360ff1660020a60001b90508082166000801b14159250505092915050565b60006115ce8461207e565b806115df57506115de8383610d21565b5b156115ed5760019050611616565b60006115f885610c14565b905060006116068585610c88565b90508082166000801b1415925050505b9392505050565b60008054906101000a900473ffffffffffffffffffffffffffffffffffffffff1681565b6006602052816000526040600020818154811061165a57fe5b906000526020600020016000915091509054906101000a900473ffffffffffffffffffffffffffffffffffffffff1681565b6116ba336000357fffffffff00000000000000000000000000000000000000000000000000000000166121b3565b61172c576040517f08c379a00000000000000000000000000000000000000000000000000000000081526004018080602001828103825260148152602001807f64732d617574682d756e617574686f72697a656400000000000000000000000081525060200191505060405180910390fd5b80600560008573ffffffffffffffffffffffffffffffffffffffff1673ffffffffffffffffffffffffffffffffffffffff1681526020019081526020016000206000847bffffffffffffffffffffffffffffffffffffffffffffffffffffffff19167bffffffffffffffffffffffffffffffffffffffffffffffffffffffff1916815260200190815260200160002060006101000a81548160ff021916908315150217905550505050565b600080fd5b60076020528060005260406000206000915090505481565b60008060006004359250602435915034905061184f600960003373ffffffffffffffffffffffffffffffffffffffff1673ffffffffffffffffffffffffffffffffffffffff16815260200190815260200160002054856123ee565b600960003373ffffffffffffffffffffffffffffffffffffffff1673ffffffffffffffffffffffffffffffffffffffff168152602001908152602001600020819055506118db84600760003373ffffffffffffffffffffffffffffffffffffffff1673ffffffffffffffffffffffffffffffffffffffff16815260200190815260200160002054612471565b600b60009054906101000a900473ffffffffffffffffffffffffffffffffffffffff1673ffffffffffffffffffffffffffffffffffffffff1663ec85cfc033866040518363ffffffff1660e01b8152600401808373ffffffffffffffffffffffffffffffffffffffff16815260200182815260200192505050600060405180830381600087803b15801561196e57600080fd5b505af1158015611982573d6000803e3d6000fd5b50505050600a60009054906101000a900473ffffffffffffffffffffffffffffffffffffffff1673ffffffffffffffffffffffffffffffffffffffff1663b753a98c33866040518363ffffffff1660e01b8152600401808373ffffffffffffffffffffffffffffffffffffffff16815260200182815260200192505050600060405180830381600087803b158015611a1957600080fd5b505af1158015611a2d573d6000803e3d6000fd5b5050505081833373ffffffffffffffffffffffffffffffffffffffff166000357fffffffff00000000000000000000000000000000000000000000000000000000167bffffffffffffffffffffffffffffffffffffffffffffffffffffffff19168460003660405180848152602001806020018281038252848482818152602001925080828437600081840152601f19601f82011690508083019250505094505050505060405180910390a450505050565b600080600060043592506024359150349050600a60009054906101000a900473ffffffffffffffffffffffffffffffffffffffff1673ffffffffffffffffffffffffffffffffffffffff1663f2d5d56b33866040518363ffffffff1660e01b8152600401808373ffffffffffffffffffffffffffffffffffffffff16815260200182815260200192505050600060405180830381600087803b158015611b8457600080fd5b505af1158015611b98573d6000803e3d6000fd5b50505050600b60009054906101000a900473ffffffffffffffffffffffffffffffffffffffff1673ffffffffffffffffffffffffffffffffffffffff166389a4063933866040518363ffffffff1660e01b8152600401808373ffffffffffffffffffffffffffffffffffffffff16815260200182815260200192505050600060405180830381600087803b158015611c2f57600080fd5b505af1158015611c43573d6000803e3d6000fd5b50505050611c90600960003373ffffffffffffffffffffffffffffffffffffffff1673ffffffffffffffffffffffffffffffffffffffff16815260200190815260200160002054856125a2565b600960003373ffffffffffffffffffffffffffffffffffffffff1673ffffffffffffffffffffffffffffffffffffffff16815260200190815260200160002081905550611d1c84600760003373ffffffffffffffffffffffffffffffffffffffff1673ffffffffffffffffffffffffffffffffffffffff16815260200190815260200160002054612625565b81833373ffffffffffffffffffffffffffffffffffffffff166000357fffffffff00000000000000000000000000000000000000000000000000000000167bffffffffffffffffffffffffffffffffffffffffffffffffffffffff19168460003660405180848152602001806020018281038252848482818152602001925080828437600081840152601f19601f82011690508083019250505094505050505060405180910390a450505050565b600080600060043592506024359150349050600060066000868152602001908152602001600020805490501180611e2357507fc5d2460186f7233c927e7db2dcc703c0e500b653ca82273b7bfad8045d85a47060001b84145b611e95576040517f08c379a00000000000000000000000000000000000000000000000000000000081526004018080602001828103825260168152602001807f64732d63686965662d696e76616c69642d736c6174650000000000000000000081525060200191505060405180910390fd5b6000600960003373ffffffffffffffffffffffffffffffffffffffff1673ffffffffffffffffffffffffffffffffffffffff168152602001908152602001600020549050611f2281600760003373ffffffffffffffffffffffffffffffffffffffff1673ffffffffffffffffffffffffffffffffffffffff16815260200190815260200160002054612471565b84600760003373ffffffffffffffffffffffffffffffffffffffff1673ffffffffffffffffffffffffffffffffffffffff16815260200190815260200160002081905550611faf81600760003373ffffffffffffffffffffffffffffffffffffffff1673ffffffffffffffffffffffffffffffffffffffff16815260200190815260200160002054612625565b5081833373ffffffffffffffffffffffffffffffffffffffff166000357fffffffff00000000000000000000000000000000000000000000000000000000167bffffffffffffffffffffffffffffffffffffffffffffffffffffffff19168460003660405180848152602001806020018281038252848482818152602001925080828437600081840152601f19601f82011690508083019250505094505050505060405180910390a450505050565b60008061206a83610f7a565b905061207581611dca565b80915050919050565b6000600c60009054906101000a900473ffffffffffffffffffffffffffffffffffffffff1673ffffffffffffffffffffffffffffffffffffffff168273ffffffffffffffffffffffffffffffffffffffff16149050919050565b60096020528060005260406000206000915090505481565b600c60009054906101000a900473ffffffffffffffffffffffffffffffffffffffff1681565b600081511480612127575060018151145b15612131576121b0565b60005b60018251038110156121ae5781600182018151811061214f57fe5b602002602001015173ffffffffffffffffffffffffffffffffffffffff1682828151811061217957fe5b602002602001015173ffffffffffffffffffffffffffffffffffffffff16106121a157600080fd5b8080600101915050612134565b505b50565b60003073ffffffffffffffffffffffffffffffffffffffff168373ffffffffffffffffffffffffffffffffffffffff1614156121f257600190506123b9565b600160009054906101000a900473ffffffffffffffffffffffffffffffffffffffff1673ffffffffffffffffffffffffffffffffffffffff168373ffffffffffffffffffffffffffffffffffffffff16141561225157600190506123b9565b600073ffffffffffffffffffffffffffffffffffffffff1660008054906101000a900473ffffffffffffffffffffffffffffffffffffffff1673ffffffffffffffffffffffffffffffffffffffff1614156122af57600090506123b9565b60008054906101000a900473ffffffffffffffffffffffffffffffffffffffff1673ffffffffffffffffffffffffffffffffffffffff1663b70096138430856040518463ffffffff1660e01b8152600401808473ffffffffffffffffffffffffffffffffffffffff1681526020018373ffffffffffffffffffffffffffffffffffffffff168152602001827bffffffffffffffffffffffffffffffffffffffffffffffffffffffff19168152602001935050505060206040518083038186803b15801561237b57600080fd5b505afa15801561238f573d6000803e3d6000fd5b505050506040513d60208110156123a557600080fd5b810190808051906020019092919050505090505b92915050565b60007fffffffffffffffffffffffffffffffffffffffffffffffffffffffffffffffff60001b82189050919050565b600082828403915081111561246b576040517f08c379a00000000000000000000000000000000000000000000000000000000081526004018080602001828103825260158152602001807f64732d6d6174682d7375622d756e646572666c6f77000000000000000000000081525060200191505060405180910390fd5b92915050565b600060066000838152602001908152602001600020905060005b818054905081101561259c57612516600860008484815481106124aa57fe5b9060005260206000200160009054906101000a900473ffffffffffffffffffffffffffffffffffffffff1673ffffffffffffffffffffffffffffffffffffffff1673ffffffffffffffffffffffffffffffffffffffff16815260200190815260200160002054856123ee565b6008600084848154811061252657fe5b9060005260206000200160009054906101000a900473ffffffffffffffffffffffffffffffffffffffff1673ffffffffffffffffffffffffffffffffffffffff1673ffffffffffffffffffffffffffffffffffffffff16815260200190815260200160002081905550808060010191505061248b565b50505050565b600082828401915081101561261f576040517f08c379a00000000000000000000000000000000000000000000000000000000081526004018080602001828103825260148152602001807f64732d6d6174682d6164642d6f766572666c6f7700000000000000000000000081525060200191505060405180910390fd5b92915050565b600060066000838152602001908152602001600020905060005b8180549050811015612750576126ca6008600084848154811061265e57fe5b9060005260206000200160009054906101000a900473ffffffffffffffffffffffffffffffffffffffff1673ffffffffffffffffffffffffffffffffffffffff1673ffffffffffffffffffffffffffffffffffffffff16815260200190815260200160002054856125a2565b600860008484815481106126da57fe5b9060005260206000200160009054906101000a900473ffffffffffffffffffffffffffffffffffffffff1673ffffffffffffffffffffffffffffffffffffffff1673ffffffffffffffffffffffffffffffffffffffff16815260200190815260200160002081905550808060010191505061263f565b50505050565b8280548282559060005260206000209081019282156127cf579160200282015b828111156127ce5782518260006101000a81548173ffffffffffffffffffffffffffffffffffffffff021916908373ffffffffffffffffffffffffffffffffffffffff16021790555091602001919060010190612776565b5b5090506127dc91906127e0565b5090565b5b8082111561281757600081816101000a81549073ffffffffffffffffffffffffffffffffffffffff0219169055506001016127e1565b509056fea2646970667358221220529be7ad52ccc89eda7bf12b47657eed38894db5c56f9515ec431a2ba300a5c864736f6c634300060c0033a2646970667358221220ec102e1576e298a262e3963c60349b7230cd214f241b8d28c2bae99791ab0a1664736f6c634300060c0033",
  "linkReferences": {},
  "deployedLinkReferences": {}
}