{
  "_format": "hh-sol-artifact-1",
  "contractName": "DSAuth",
  "sourceName": "contracts/dai/oracle-module/auth.sol",
  "abi": [
    {
      "inputs": [],
      "stateMutability": "nonpayable",
      "type": "constructor"
    },
    {
      "anonymous": false,
      "inputs": [
        {
          "indexed": true,
          "internalType": "address",
          "name": "authority",
          "type": "address"
        }
      ],
      "name": "LogSetAuthority",
      "type": "event"
    },
    {
      "anonymous": false,
      "inputs": [
        {
          "indexed": true,
          "internalType": "address",
          "name": "owner",
          "type": "address"
        }
      ],
      "name": "LogSetOwner",
      "type": "event"
    },
    {
      "inputs": [],
      "name": "authority",
      "outputs": [
        {
          "internalType": "contract DSAuthority",
          "name": "",
          "type": "address"
        }
      ],
      "stateMutability": "view",
      "type": "function"
    },
    {
      "inputs": [],
      "name": "owner",
      "outputs": [
        {
          "internalType": "address",
          "name": "",
          "type": "address"
        }
      ],
      "stateMutability": "view",
      "type": "function"
    },
    {
      "inputs": [
        {
          "internalType": "contract DSAuthority",
          "name": "authority_",
          "type": "address"
        }
      ],
      "name": "setAuthority",
      "outputs": [],
      "stateMutability": "nonpayable",
      "type": "function"
    },
    {
      "inputs": [
        {
          "internalType": "address",
          "name": "owner_",
          "type": "address"
        }
      ],
      "name": "setOwner",
      "outputs": [],
      "stateMutability": "nonpayable",
      "type": "function"
    }
  ],
  "bytecode": "0x608060405234801561001057600080fd5b5033600160006101000a81548173ffffffffffffffffffffffffffffffffffffffff021916908373ffffffffffffffffffffffffffffffffffffffff1602179055503373ffffffffffffffffffffffffffffffffffffffff167fce241d7ca1f669fee44b6fc00b8eba2df3bb514eed0f6f668f8f89096e81ed9460405160405180910390a2610801806100a46000396000f3fe608060405234801561001057600080fd5b506004361061004c5760003560e01c806313af4035146100515780637a9e5e4b1461006d5780638da5cb5b14610089578063bf7e214f146100a7575b600080fd5b61006b6004803603810190610066919061053b565b6100c5565b005b610087600480360381019061008291906105a6565b6101db565b005b6100916102ee565b60405161009e91906105e2565b60405180910390f35b6100af610314565b6040516100bc919061065c565b60405180910390f35b6100f3336000357fffffffff0000000000000000000000000000000000000000000000000000000016610338565b610132576040517f08c379a0000000000000000000000000000000000000000000000000000000008152600401610129906106d4565b60405180910390fd5b80600160006101000a81548173ffffffffffffffffffffffffffffffffffffffff021916908373ffffffffffffffffffffffffffffffffffffffff160217905550600160009054906101000a900473ffffffffffffffffffffffffffffffffffffffff1673ffffffffffffffffffffffffffffffffffffffff167fce241d7ca1f669fee44b6fc00b8eba2df3bb514eed0f6f668f8f89096e81ed9460405160405180910390a250565b610209336000357fffffffff0000000000000000000000000000000000000000000000000000000016610338565b610248576040517f08c379a000000000000000000000000000000000000000000000000000000000815260040161023f906106d4565b60405180910390fd5b806000806101000a81548173ffffffffffffffffffffffffffffffffffffffff021916908373ffffffffffffffffffffffffffffffffffffffff16021790555060008054906101000a900473ffffffffffffffffffffffffffffffffffffffff1673ffffffffffffffffffffffffffffffffffffffff167f1abebea81bfa2637f28358c371278fb15ede7ea8dd28d2e03b112ff6d936ada460405160405180910390a250565b600160009054906101000a900473ffffffffffffffffffffffffffffffffffffffff1681565b60008054906101000a900473ffffffffffffffffffffffffffffffffffffffff1681565b60003073ffffffffffffffffffffffffffffffffffffffff168373ffffffffffffffffffffffffffffffffffffffff160361037657600190506104d2565b600160009054906101000a900473ffffffffffffffffffffffffffffffffffffffff1673ffffffffffffffffffffffffffffffffffffffff168373ffffffffffffffffffffffffffffffffffffffff16036103d457600190506104d2565b600073ffffffffffffffffffffffffffffffffffffffff1660008054906101000a900473ffffffffffffffffffffffffffffffffffffffff1673ffffffffffffffffffffffffffffffffffffffff160361043157600090506104d2565b60008054906101000a900473ffffffffffffffffffffffffffffffffffffffff1673ffffffffffffffffffffffffffffffffffffffff1663b70096138430856040518463ffffffff1660e01b815260040161048e9392919061072f565b602060405180830381865afa1580156104ab573d6000803e3d6000fd5b505050506040513d601f19601f820116820180604052508101906104cf919061079e565b90505b92915050565b600080fd5b600073ffffffffffffffffffffffffffffffffffffffff82169050919050565b6000610508826104dd565b9050919050565b610518816104fd565b811461052357600080fd5b50565b6000813590506105358161050f565b92915050565b600060208284031215610551576105506104d8565b5b600061055f84828501610526565b91505092915050565b6000610573826104fd565b9050919050565b61058381610568565b811461058e57600080fd5b50565b6000813590506105a08161057a565b92915050565b6000602082840312156105bc576105bb6104d8565b5b60006105ca84828501610591565b91505092915050565b6105dc816104fd565b82525050565b60006020820190506105f760008301846105d3565b92915050565b6000819050919050565b600061062261061d610618846104dd565b6105fd565b6104dd565b9050919050565b600061063482610607565b9050919050565b600061064682610629565b9050919050565b6106568161063b565b82525050565b6000602082019050610671600083018461064d565b92915050565b600082825260208201905092915050565b7f64732d617574682d756e617574686f72697a6564000000000000000000000000600082015250565b60006106be601483610677565b91506106c982610688565b602082019050919050565b600060208201905081810360008301526106ed816106b1565b9050919050565b60007fffffffff0000000000000000000000000000000000000000000000000000000082169050919050565b610729816106f4565b82525050565b600060608201905061074460008301866105d3565b61075160208301856105d3565b61075e6040830184610720565b949350505050565b60008115159050919050565b61077b81610766565b811461078657600080fd5b50565b60008151905061079881610772565b92915050565b6000602082840312156107b4576107b36104d8565b5b60006107c284828501610789565b9150509291505056fea26469706673582212209cdb098db0be4a5f8ee863cd3766f60bea0d0389c4898e6adb174da4a45c770e64736f6c63430008110033",
  "linkReferences": {},
  "deployedLinkReferences": {}
}