{
  "_format": "hh-sol-artifact-1",
  "contractName": "VoteProxy",
  "sourceName": "contracts/dai/proxy-module/VoteProxy.sol",
  "abi": [
    {
      "inputs": [
        {
          "internalType": "address",
          "name": "_chief",
          "type": "address"
        },
        {
          "internalType": "address",
          "name": "_cold",
          "type": "address"
        },
        {
          "internalType": "address",
          "name": "_hot",
          "type": "address"
        }
      ],
      "stateMutability": "nonpayable",
      "type": "constructor"
    },
    {
      "inputs": [],
      "name": "chief",
      "outputs": [
        {
          "internalType": "contract ChiefLike",
          "name": "",
          "type": "address"
        }
      ],
      "stateMutability": "view",
      "type": "function"
    },
    {
      "inputs": [],
      "name": "cold",
      "outputs": [
        {
          "internalType": "address",
          "name": "",
          "type": "address"
        }
      ],
      "stateMutability": "view",
      "type": "function"
    },
    {
      "inputs": [
        {
          "internalType": "uint256",
          "name": "wad",
          "type": "uint256"
        }
      ],
      "name": "free",
      "outputs": [],
      "stateMutability": "nonpayable",
      "type": "function"
    },
    {
      "inputs": [],
      "name": "freeAll",
      "outputs": [],
      "stateMutability": "nonpayable",
      "type": "function"
    },
    {
      "inputs": [],
      "name": "gov",
      "outputs": [
        {
          "internalType": "contract TokenLike",
          "name": "",
          "type": "address"
        }
      ],
      "stateMutability": "view",
      "type": "function"
    },
    {
      "inputs": [],
      "name": "hot",
      "outputs": [
        {
          "internalType": "address",
          "name": "",
          "type": "address"
        }
      ],
      "stateMutability": "view",
      "type": "function"
    },
    {
      "inputs": [],
      "name": "iou",
      "outputs": [
        {
          "internalType": "contract TokenLike",
          "name": "",
          "type": "address"
        }
      ],
      "stateMutability": "view",
      "type": "function"
    },
    {
      "inputs": [
        {
          "internalType": "uint256",
          "name": "wad",
          "type": "uint256"
        }
      ],
      "name": "lock",
      "outputs": [],
      "stateMutability": "nonpayable",
      "type": "function"
    },
    {
      "inputs": [
        {
          "internalType": "address[]",
          "name": "yays",
          "type": "address[]"
        }
      ],
      "name": "vote",
      "outputs": [
        {
          "internalType": "bytes32",
          "name": "",
          "type": "bytes32"
        }
      ],
      "stateMutability": "nonpayable",
      "type": "function"
    },
    {
      "inputs": [
        {
          "internalType": "bytes32",
          "name": "slate",
          "type": "bytes32"
        }
      ],
      "name": "votez",
      "outputs": [],
      "stateMutability": "nonpayable",
      "type": "function"
    }
  ],
  "bytecode": "0x60806040523480156200001157600080fd5b5060405162001998380380620019988339818101604052810190620000379190620004be565b82600460006101000a81548173ffffffffffffffffffffffffffffffffffffffff021916908373ffffffffffffffffffffffffffffffffffffffff160217905550816000806101000a81548173ffffffffffffffffffffffffffffffffffffffff021916908373ffffffffffffffffffffffffffffffffffffffff16021790555080600160006101000a81548173ffffffffffffffffffffffffffffffffffffffff021916908373ffffffffffffffffffffffffffffffffffffffff160217905550600460009054906101000a900473ffffffffffffffffffffffffffffffffffffffff1673ffffffffffffffffffffffffffffffffffffffff1663180cb47f6040518163ffffffff1660e01b8152600401602060405180830381865afa15801562000167573d6000803e3d6000fd5b505050506040513d601f19601f820116820180604052508101906200018d91906200055f565b600260006101000a81548173ffffffffffffffffffffffffffffffffffffffff021916908373ffffffffffffffffffffffffffffffffffffffff160217905550600460009054906101000a900473ffffffffffffffffffffffffffffffffffffffff1673ffffffffffffffffffffffffffffffffffffffff1663046c472f6040518163ffffffff1660e01b8152600401602060405180830381865afa1580156200023b573d6000803e3d6000fd5b505050506040513d601f19601f820116820180604052508101906200026191906200055f565b600360006101000a81548173ffffffffffffffffffffffffffffffffffffffff021916908373ffffffffffffffffffffffffffffffffffffffff160217905550600260009054906101000a900473ffffffffffffffffffffffffffffffffffffffff1673ffffffffffffffffffffffffffffffffffffffff1663095ea7b3600460009054906101000a900473ffffffffffffffffffffffffffffffffffffffff167fffffffffffffffffffffffffffffffffffffffffffffffffffffffffffffffff6040518363ffffffff1660e01b815260040162000342929190620005bd565b600060405180830381600087803b1580156200035d57600080fd5b505af115801562000372573d6000803e3d6000fd5b50505050600360009054906101000a900473ffffffffffffffffffffffffffffffffffffffff1673ffffffffffffffffffffffffffffffffffffffff1663095ea7b3600460009054906101000a900473ffffffffffffffffffffffffffffffffffffffff167fffffffffffffffffffffffffffffffffffffffffffffffffffffffffffffffff6040518363ffffffff1660e01b815260040162000417929190620005bd565b600060405180830381600087803b1580156200043257600080fd5b505af115801562000447573d6000803e3d6000fd5b50505050505050620005ea565b600080fd5b600073ffffffffffffffffffffffffffffffffffffffff82169050919050565b6000620004868262000459565b9050919050565b620004988162000479565b8114620004a457600080fd5b50565b600081519050620004b8816200048d565b92915050565b600080600060608486031215620004da57620004d962000454565b5b6000620004ea86828701620004a7565b9350506020620004fd86828701620004a7565b92505060406200051086828701620004a7565b9150509250925092565b6000620005278262000479565b9050919050565b62000539816200051a565b81146200054557600080fd5b50565b60008151905062000559816200052e565b92915050565b60006020828403121562000578576200057762000454565b5b6000620005888482850162000548565b91505092915050565b6200059c8162000479565b82525050565b6000819050919050565b620005b781620005a2565b82525050565b6000604082019050620005d4600083018562000591565b620005e36020830184620005ac565b9392505050565b61139e80620005fa6000396000f3fe608060405234801561001057600080fd5b506004361061009e5760003560e01c8063dd46706411610066578063dd46706414610123578063dde9c2971461013f578063ea6177e71461015d578063ed08132914610179578063ffd864d3146101a95761009e565b806312d43a51146100a3578063578e9dc5146100c15780635c38f3d1146100df578063a2fca6b3146100e9578063d8ccd0f314610107575b600080fd5b6100ab6101c7565b6040516100b89190610da9565b60405180910390f35b6100c96101ed565b6040516100d69190610de5565b60405180910390f35b6100e7610211565b005b6100f161056b565b6040516100fe9190610da9565b60405180910390f35b610121600480360381019061011c9190610e4a565b610591565b005b61013d60048036038101906101389190610e4a565b6107b6565b005b6101476109db565b6040516101549190610de5565b60405180910390f35b61017760048036038101906101729190610ead565b610a01565b005b610193600480360381019061018e919061105f565b610b77565b6040516101a091906110b7565b60405180910390f35b6101b1610d04565b6040516101be91906110f3565b60405180910390f35b600260009054906101000a900473ffffffffffffffffffffffffffffffffffffffff1681565b60008054906101000a900473ffffffffffffffffffffffffffffffffffffffff1681565b600160009054906101000a900473ffffffffffffffffffffffffffffffffffffffff1673ffffffffffffffffffffffffffffffffffffffff163373ffffffffffffffffffffffffffffffffffffffff1614806102b8575060008054906101000a900473ffffffffffffffffffffffffffffffffffffffff1673ffffffffffffffffffffffffffffffffffffffff163373ffffffffffffffffffffffffffffffffffffffff16145b6102f7576040517f08c379a00000000000000000000000000000000000000000000000000000000081526004016102ee90611191565b60405180910390fd5b600460009054906101000a900473ffffffffffffffffffffffffffffffffffffffff1673ffffffffffffffffffffffffffffffffffffffff1663d8ccd0f3600460009054906101000a900473ffffffffffffffffffffffffffffffffffffffff1673ffffffffffffffffffffffffffffffffffffffff1663fc7e286d306040518263ffffffff1660e01b81526004016103909190610de5565b602060405180830381865afa1580156103ad573d6000803e3d6000fd5b505050506040513d601f19601f820116820180604052508101906103d191906111c6565b6040518263ffffffff1660e01b81526004016103ed9190611202565b600060405180830381600087803b15801561040757600080fd5b505af115801561041b573d6000803e3d6000fd5b50505050600260009054906101000a900473ffffffffffffffffffffffffffffffffffffffff1673ffffffffffffffffffffffffffffffffffffffff1663b753a98c60008054906101000a900473ffffffffffffffffffffffffffffffffffffffff16600260009054906101000a900473ffffffffffffffffffffffffffffffffffffffff1673ffffffffffffffffffffffffffffffffffffffff166370a08231306040518263ffffffff1660e01b81526004016104d99190610de5565b602060405180830381865afa1580156104f6573d6000803e3d6000fd5b505050506040513d601f19601f8201168201806040525081019061051a91906111c6565b6040518363ffffffff1660e01b815260040161053792919061121d565b600060405180830381600087803b15801561055157600080fd5b505af1158015610565573d6000803e3d6000fd5b50505050565b600360009054906101000a900473ffffffffffffffffffffffffffffffffffffffff1681565b600160009054906101000a900473ffffffffffffffffffffffffffffffffffffffff1673ffffffffffffffffffffffffffffffffffffffff163373ffffffffffffffffffffffffffffffffffffffff161480610638575060008054906101000a900473ffffffffffffffffffffffffffffffffffffffff1673ffffffffffffffffffffffffffffffffffffffff163373ffffffffffffffffffffffffffffffffffffffff16145b610677576040517f08c379a000000000000000000000000000000000000000000000000000000000815260040161066e90611191565b60405180910390fd5b600460009054906101000a900473ffffffffffffffffffffffffffffffffffffffff1673ffffffffffffffffffffffffffffffffffffffff1663d8ccd0f3826040518263ffffffff1660e01b81526004016106d29190611202565b600060405180830381600087803b1580156106ec57600080fd5b505af1158015610700573d6000803e3d6000fd5b50505050600260009054906101000a900473ffffffffffffffffffffffffffffffffffffffff1673ffffffffffffffffffffffffffffffffffffffff1663b753a98c60008054906101000a900473ffffffffffffffffffffffffffffffffffffffff16836040518363ffffffff1660e01b815260040161078192919061121d565b600060405180830381600087803b15801561079b57600080fd5b505af11580156107af573d6000803e3d6000fd5b5050505050565b600160009054906101000a900473ffffffffffffffffffffffffffffffffffffffff1673ffffffffffffffffffffffffffffffffffffffff163373ffffffffffffffffffffffffffffffffffffffff16148061085d575060008054906101000a900473ffffffffffffffffffffffffffffffffffffffff1673ffffffffffffffffffffffffffffffffffffffff163373ffffffffffffffffffffffffffffffffffffffff16145b61089c576040517f08c379a000000000000000000000000000000000000000000000000000000000815260040161089390611191565b60405180910390fd5b600260009054906101000a900473ffffffffffffffffffffffffffffffffffffffff1673ffffffffffffffffffffffffffffffffffffffff1663f2d5d56b60008054906101000a900473ffffffffffffffffffffffffffffffffffffffff16836040518363ffffffff1660e01b815260040161091992919061121d565b600060405180830381600087803b15801561093357600080fd5b505af1158015610947573d6000803e3d6000fd5b50505050600460009054906101000a900473ffffffffffffffffffffffffffffffffffffffff1673ffffffffffffffffffffffffffffffffffffffff1663dd467064826040518263ffffffff1660e01b81526004016109a69190611202565b600060405180830381600087803b1580156109c057600080fd5b505af11580156109d4573d6000803e3d6000fd5b5050505050565b600160009054906101000a900473ffffffffffffffffffffffffffffffffffffffff1681565b600160009054906101000a900473ffffffffffffffffffffffffffffffffffffffff1673ffffffffffffffffffffffffffffffffffffffff163373ffffffffffffffffffffffffffffffffffffffff161480610aa8575060008054906101000a900473ffffffffffffffffffffffffffffffffffffffff1673ffffffffffffffffffffffffffffffffffffffff163373ffffffffffffffffffffffffffffffffffffffff16145b610ae7576040517f08c379a0000000000000000000000000000000000000000000000000000000008152600401610ade90611191565b60405180910390fd5b600460009054906101000a900473ffffffffffffffffffffffffffffffffffffffff1673ffffffffffffffffffffffffffffffffffffffff1663ea6177e7826040518263ffffffff1660e01b8152600401610b4291906110b7565b600060405180830381600087803b158015610b5c57600080fd5b505af1158015610b70573d6000803e3d6000fd5b5050505050565b6000600160009054906101000a900473ffffffffffffffffffffffffffffffffffffffff1673ffffffffffffffffffffffffffffffffffffffff163373ffffffffffffffffffffffffffffffffffffffff161480610c20575060008054906101000a900473ffffffffffffffffffffffffffffffffffffffff1673ffffffffffffffffffffffffffffffffffffffff163373ffffffffffffffffffffffffffffffffffffffff16145b610c5f576040517f08c379a0000000000000000000000000000000000000000000000000000000008152600401610c5690611191565b60405180910390fd5b600460009054906101000a900473ffffffffffffffffffffffffffffffffffffffff1673ffffffffffffffffffffffffffffffffffffffff1663ed081329836040518263ffffffff1660e01b8152600401610cba9190611304565b6020604051808303816000875af1158015610cd9573d6000803e3d6000fd5b505050506040513d601f19601f82011682018060405250810190610cfd919061133b565b9050919050565b600460009054906101000a900473ffffffffffffffffffffffffffffffffffffffff1681565b600073ffffffffffffffffffffffffffffffffffffffff82169050919050565b6000819050919050565b6000610d6f610d6a610d6584610d2a565b610d4a565b610d2a565b9050919050565b6000610d8182610d54565b9050919050565b6000610d9382610d76565b9050919050565b610da381610d88565b82525050565b6000602082019050610dbe6000830184610d9a565b92915050565b6000610dcf82610d2a565b9050919050565b610ddf81610dc4565b82525050565b6000602082019050610dfa6000830184610dd6565b92915050565b6000604051905090565b600080fd5b600080fd5b6000819050919050565b610e2781610e14565b8114610e3257600080fd5b50565b600081359050610e4481610e1e565b92915050565b600060208284031215610e6057610e5f610e0a565b5b6000610e6e84828501610e35565b91505092915050565b6000819050919050565b610e8a81610e77565b8114610e9557600080fd5b50565b600081359050610ea781610e81565b92915050565b600060208284031215610ec357610ec2610e0a565b5b6000610ed184828501610e98565b91505092915050565b600080fd5b6000601f19601f8301169050919050565b7f4e487b7100000000000000000000000000000000000000000000000000000000600052604160045260246000fd5b610f2882610edf565b810181811067ffffffffffffffff82111715610f4757610f46610ef0565b5b80604052505050565b6000610f5a610e00565b9050610f668282610f1f565b919050565b600067ffffffffffffffff821115610f8657610f85610ef0565b5b602082029050602081019050919050565b600080fd5b610fa581610dc4565b8114610fb057600080fd5b50565b600081359050610fc281610f9c565b92915050565b6000610fdb610fd684610f6b565b610f50565b90508083825260208201905060208402830185811115610ffe57610ffd610f97565b5b835b8181101561102757806110138882610fb3565b845260208401935050602081019050611000565b5050509392505050565b600082601f83011261104657611045610eda565b5b8135611056848260208601610fc8565b91505092915050565b60006020828403121561107557611074610e0a565b5b600082013567ffffffffffffffff81111561109357611092610e0f565b5b61109f84828501611031565b91505092915050565b6110b181610e77565b82525050565b60006020820190506110cc60008301846110a8565b92915050565b60006110dd82610d76565b9050919050565b6110ed816110d2565b82525050565b600060208201905061110860008301846110e4565b92915050565b600082825260208201905092915050565b7f53656e646572206d757374206265206120436f6c64206f7220486f742057616c60008201527f6c65740000000000000000000000000000000000000000000000000000000000602082015250565b600061117b60238361110e565b91506111868261111f565b604082019050919050565b600060208201905081810360008301526111aa8161116e565b9050919050565b6000815190506111c081610e1e565b92915050565b6000602082840312156111dc576111db610e0a565b5b60006111ea848285016111b1565b91505092915050565b6111fc81610e14565b82525050565b600060208201905061121760008301846111f3565b92915050565b60006040820190506112326000830185610dd6565b61123f60208301846111f3565b9392505050565b600081519050919050565b600082825260208201905092915050565b6000819050602082019050919050565b61127b81610dc4565b82525050565b600061128d8383611272565b60208301905092915050565b6000602082019050919050565b60006112b182611246565b6112bb8185611251565b93506112c683611262565b8060005b838110156112f75781516112de8882611281565b97506112e983611299565b9250506001810190506112ca565b5085935050505092915050565b6000602082019050818103600083015261131e81846112a6565b905092915050565b60008151905061133581610e81565b92915050565b60006020828403121561135157611350610e0a565b5b600061135f84828501611326565b9150509291505056fea264697066735822122027f3115ca2841d1db659e0c313f3a3eaa628873408a15f1e14817cffa13e622c64736f6c63430008110033",
  "linkReferences": {},
  "deployedLinkReferences": {}
}