{
  "_format": "hh-sol-artifact-1",
  "contractName": "DSAuthorityImpl",
  "sourceName": "contracts/dai/oracle-module/by-pass-auth.sol",
  "abi": [
    {
      "inputs": [
        {
          "internalType": "bool",
          "name": "_yes",
          "type": "bool"
        }
      ],
      "stateMutability": "nonpayable",
      "type": "constructor"
    },
    {
      "inputs": [
        {
          "internalType": "address",
          "name": "src",
          "type": "address"
        },
        {
          "internalType": "address",
          "name": "dst",
          "type": "address"
        },
        {
          "internalType": "bytes4",
          "name": "sig",
          "type": "bytes4"
        }
      ],
      "name": "canCall",
      "outputs": [
        {
          "internalType": "bool",
          "name": "",
          "type": "bool"
        }
      ],
      "stateMutability": "view",
      "type": "function"
    }
  ],
  "bytecode": "0x608060405234801561001057600080fd5b506040516102bc3803806102bc8339818101604052810190610032919061008e565b806000806101000a81548160ff021916908315150217905550506100bb565b600080fd5b60008115159050919050565b61006b81610056565b811461007657600080fd5b50565b60008151905061008881610062565b92915050565b6000602082840312156100a4576100a3610051565b5b60006100b284828501610079565b91505092915050565b6101f2806100ca6000396000f3fe608060405234801561001057600080fd5b506004361061002b5760003560e01c8063b700961314610030575b600080fd5b61004a60048036038101906100459190610133565b610060565b60405161005791906101a1565b60405180910390f35b6000808054906101000a900460ff1690509392505050565b600080fd5b600073ffffffffffffffffffffffffffffffffffffffff82169050919050565b60006100a88261007d565b9050919050565b6100b88161009d565b81146100c357600080fd5b50565b6000813590506100d5816100af565b92915050565b60007fffffffff0000000000000000000000000000000000000000000000000000000082169050919050565b610110816100db565b811461011b57600080fd5b50565b60008135905061012d81610107565b92915050565b60008060006060848603121561014c5761014b610078565b5b600061015a868287016100c6565b935050602061016b868287016100c6565b925050604061017c8682870161011e565b9150509250925092565b60008115159050919050565b61019b81610186565b82525050565b60006020820190506101b66000830184610192565b9291505056fea2646970667358221220cf72b9c199cc36ea9db07f824849c73ff30b62e5f0cb2742cae69e07dd74819a64736f6c63430008110033",
  "linkReferences": {},
  "deployedLinkReferences": {}
}