{
  "_format": "hh-sol-artifact-1",
  "contractName": "Median",
  "sourceName": "contracts/dai/oracle-module/median.sol",
  "abi": [
    {
      "inputs": [],
      "stateMutability": "nonpayable",
      "type": "constructor"
    },
    {
      "anonymous": false,
      "inputs": [
        {
          "indexed": false,
          "internalType": "uint256",
          "name": "val",
          "type": "uint256"
        },
        {
          "indexed": false,
          "internalType": "uint256",
          "name": "age",
          "type": "uint256"
        }
      ],
      "name": "LogMedianPrice",
      "type": "event"
    },
    {
      "anonymous": true,
      "inputs": [
        {
          "indexed": true,
          "internalType": "bytes4",
          "name": "sig",
          "type": "bytes4"
        },
        {
          "indexed": true,
          "internalType": "address",
          "name": "usr",
          "type": "address"
        },
        {
          "indexed": true,
          "internalType": "bytes32",
          "name": "arg1",
          "type": "bytes32"
        },
        {
          "indexed": true,
          "internalType": "bytes32",
          "name": "arg2",
          "type": "bytes32"
        },
        {
          "indexed": false,
          "internalType": "bytes",
          "name": "data",
          "type": "bytes"
        }
      ],
      "name": "LogNote",
      "type": "event"
    },
    {
      "inputs": [],
      "name": "age",
      "outputs": [
        {
          "internalType": "uint32",
          "name": "",
          "type": "uint32"
        }
      ],
      "stateMutability": "view",
      "type": "function"
    },
    {
      "inputs": [],
      "name": "bar",
      "outputs": [
        {
          "internalType": "uint256",
          "name": "",
          "type": "uint256"
        }
      ],
      "stateMutability": "view",
      "type": "function"
    },
    {
      "inputs": [
        {
          "internalType": "address",
          "name": "",
          "type": "address"
        }
      ],
      "name": "bud",
      "outputs": [
        {
          "internalType": "uint256",
          "name": "",
          "type": "uint256"
        }
      ],
      "stateMutability": "view",
      "type": "function"
    },
    {
      "inputs": [
        {
          "internalType": "address",
          "name": "usr",
          "type": "address"
        }
      ],
      "name": "deny",
      "outputs": [],
      "stateMutability": "nonpayable",
      "type": "function"
    },
    {
      "inputs": [
        {
          "internalType": "address[]",
          "name": "a",
          "type": "address[]"
        }
      ],
      "name": "diss",
      "outputs": [],
      "stateMutability": "nonpayable",
      "type": "function"
    },
    {
      "inputs": [
        {
          "internalType": "address",
          "name": "a",
          "type": "address"
        }
      ],
      "name": "diss",
      "outputs": [],
      "stateMutability": "nonpayable",
      "type": "function"
    },
    {
      "inputs": [
        {
          "internalType": "address[]",
          "name": "a",
          "type": "address[]"
        }
      ],
      "name": "drop",
      "outputs": [],
      "stateMutability": "nonpayable",
      "type": "function"
    },
    {
      "inputs": [],
      "name": "getBlockTimeStamp",
      "outputs": [
        {
          "internalType": "uint32",
          "name": "",
          "type": "uint32"
        }
      ],
      "stateMutability": "view",
      "type": "function"
    },
    {
      "inputs": [
        {
          "internalType": "address",
          "name": "a",
          "type": "address"
        }
      ],
      "name": "getOrcl",
      "outputs": [
        {
          "internalType": "uint256",
          "name": "",
          "type": "uint256"
        }
      ],
      "stateMutability": "view",
      "type": "function"
    },
    {
      "inputs": [],
      "name": "getWat",
      "outputs": [
        {
          "internalType": "bytes32",
          "name": "",
          "type": "bytes32"
        }
      ],
      "stateMutability": "view",
      "type": "function"
    },
    {
      "inputs": [
        {
          "internalType": "address",
          "name": "a",
          "type": "address"
        }
      ],
      "name": "kiss",
      "outputs": [],
      "stateMutability": "nonpayable",
      "type": "function"
    },
    {
      "inputs": [
        {
          "internalType": "address[]",
          "name": "a",
          "type": "address[]"
        }
      ],
      "name": "kisses",
      "outputs": [],
      "stateMutability": "nonpayable",
      "type": "function"
    },
    {
      "inputs": [
        {
          "internalType": "address[]",
          "name": "a",
          "type": "address[]"
        }
      ],
      "name": "lift",
      "outputs": [],
      "stateMutability": "nonpayable",
      "type": "function"
    },
    {
      "inputs": [
        {
          "internalType": "address",
          "name": "",
          "type": "address"
        }
      ],
      "name": "orcl",
      "outputs": [
        {
          "internalType": "uint256",
          "name": "",
          "type": "uint256"
        }
      ],
      "stateMutability": "view",
      "type": "function"
    },
    {
      "inputs": [],
      "name": "peek",
      "outputs": [
        {
          "internalType": "uint256",
          "name": "",
          "type": "uint256"
        },
        {
          "internalType": "bool",
          "name": "",
          "type": "bool"
        }
      ],
      "stateMutability": "view",
      "type": "function"
    },
    {
      "inputs": [
        {
          "internalType": "uint256[]",
          "name": "val_",
          "type": "uint256[]"
        },
        {
          "internalType": "uint256[]",
          "name": "age_",
          "type": "uint256[]"
        },
        {
          "internalType": "uint8[]",
          "name": "v",
          "type": "uint8[]"
        },
        {
          "internalType": "bytes32[]",
          "name": "r",
          "type": "bytes32[]"
        },
        {
          "internalType": "bytes32[]",
          "name": "s",
          "type": "bytes32[]"
        }
      ],
      "name": "poke",
      "outputs": [],
      "stateMutability": "nonpayable",
      "type": "function"
    },
    {
      "inputs": [],
      "name": "read",
      "outputs": [
        {
          "internalType": "uint256",
          "name": "",
          "type": "uint256"
        }
      ],
      "stateMutability": "view",
      "type": "function"
    },
    {
      "inputs": [
        {
          "internalType": "address",
          "name": "usr",
          "type": "address"
        }
      ],
      "name": "rely",
      "outputs": [],
      "stateMutability": "nonpayable",
      "type": "function"
    },
    {
      "inputs": [
        {
          "internalType": "uint256",
          "name": "bar_",
          "type": "uint256"
        }
      ],
      "name": "setBar",
      "outputs": [],
      "stateMutability": "nonpayable",
      "type": "function"
    },
    {
      "inputs": [
        {
          "internalType": "uint8",
          "name": "",
          "type": "uint8"
        }
      ],
      "name": "slot",
      "outputs": [
        {
          "internalType": "address",
          "name": "",
          "type": "address"
        }
      ],
      "stateMutability": "view",
      "type": "function"
    },
    {
      "inputs": [
        {
          "internalType": "uint256",
          "name": "val_",
          "type": "uint256"
        },
        {
          "internalType": "uint256",
          "name": "age_",
          "type": "uint256"
        }
      ],
      "name": "testHash",
      "outputs": [
        {
          "internalType": "bytes32",
          "name": "",
          "type": "bytes32"
        }
      ],
      "stateMutability": "view",
      "type": "function"
    },
    {
      "inputs": [
        {
          "internalType": "address",
          "name": "",
          "type": "address"
        }
      ],
      "name": "wards",
      "outputs": [
        {
          "internalType": "uint256",
          "name": "",
          "type": "uint256"
        }
      ],
      "stateMutability": "view",
      "type": "function"
    },
    {
      "inputs": [],
      "name": "wat",
      "outputs": [
        {
          "internalType": "bytes32",
          "name": "",
          "type": "bytes32"
        }
      ],
      "stateMutability": "view",
      "type": "function"
    }
  ],
  "bytecode": "0x6080604052600160025534801561001557600080fd5b5060016000803373ffffffffffffffffffffffffffffffffffffffff1673ffffffffffffffffffffffffffffffffffffffff16815260200190815260200160002081905550612d80806100696000396000f3fe608060405234801561001057600080fd5b506004361061014d5760003560e01c806365fae35e116100c3578063bf353dbb1161007c578063bf353dbb14610375578063ca49a543146103a5578063d820f544146103c3578063f29c29c4146103f3578063f2fad4e81461040f578063febb0f7e1461043f5761014d565b806365fae35e146102b957806389bbb8b2146102d55780638d0e5a9a146102f15780638ef5eaf014610321578063943181061461033d5780639c52a7f1146103595761014d565b806346d4577d1161011557806346d4577d146101f65780634ca29923146102125780634fce7a2a1461023057806357de26a41461026057806359e02dd71461027e57806365c4ce7a1461029d5761014d565b8063020b2e32146101525780631af30dca14610182578063262a9dff1461019e5780632abf8f00146101bc578063352d3fba146101da575b600080fd5b61016c60048036038101906101679190611d18565b61045d565b6040516101799190611d5e565b60405180910390f35b61019c60048036038101906101979190611dde565b610475565b005b6101a6610651565b6040516101b39190611e4a565b60405180910390f35b6101c4610667565b6040516101d19190611e7e565b60405180910390f35b6101f460048036038101906101ef9190611ec5565b61068f565b005b610210600480360381019061020b9190611dde565b6107df565b005b61021a610925565b6040516102279190611e7e565b60405180910390f35b61024a60048036038101906102459190611d18565b610949565b6040516102579190611d5e565b60405180910390f35b610268610961565b6040516102759190611d5e565b60405180910390f35b610286610a8e565b604051610294929190611f0d565b60405180910390f35b6102b760048036038101906102b29190611d18565b610b83565b005b6102d360048036038101906102ce9190611d18565b610c7f565b005b6102ef60048036038101906102ea9190612038565b610d7a565b005b61030b6004803603810190610306919061218e565b6111e6565b60405161031891906121ca565b60405180910390f35b61033b60048036038101906103369190611dde565b611219565b005b61035760048036038101906103529190611dde565b6113eb565b005b610373600480360381019061036e9190611d18565b611727565b005b61038f600480360381019061038a9190611d18565b611822565b60405161039c9190611d5e565b60405180910390f35b6103ad61183a565b6040516103ba9190611e4a565b60405180910390f35b6103dd60048036038101906103d89190611d18565b611854565b6040516103ea9190611d5e565b60405180910390f35b61040d60048036038101906104089190611d18565b61189d565b005b610429600480360381019061042491906121e5565b611a08565b6040516104369190611e7e565b60405180910390f35b610447611a5d565b6040516104549190611d5e565b60405180910390f35b60036020528060005260406000206000915090505481565b60016000803373ffffffffffffffffffffffffffffffffffffffff1673ffffffffffffffffffffffffffffffffffffffff16815260200190815260200160002054146104f6576040517f08c379a00000000000000000000000000000000000000000000000000000000081526004016104ed90612282565b60405180910390fd5b60005b8282905081101561061957600073ffffffffffffffffffffffffffffffffffffffff1683838381811061052f5761052e6122a2565b5b90506020020160208101906105449190611d18565b73ffffffffffffffffffffffffffffffffffffffff160361059a576040517f08c379a00000000000000000000000000000000000000000000000000000000081526004016105919061231d565b60405180910390fd5b6001600460008585858181106105b3576105b26122a2565b5b90506020020160208101906105c89190611d18565b73ffffffffffffffffffffffffffffffffffffffff1673ffffffffffffffffffffffffffffffffffffffff1681526020019081526020016000208190555080806106119061236c565b9150506104f9565b505961012081016040526020815260e0602082015260e0600060408301376024356004353360003560e01c60e01b61012085a4505050565b600160109054906101000a900463ffffffff1681565b60007f6574687573640000000000000000000000000000000000000000000000000000905090565b60016000803373ffffffffffffffffffffffffffffffffffffffff1673ffffffffffffffffffffffffffffffffffffffff1681526020019081526020016000205414610710576040517f08c379a000000000000000000000000000000000000000000000000000000000815260040161070790612282565b60405180910390fd5b60008111610753576040517f08c379a000000000000000000000000000000000000000000000000000000000815260040161074a90612400565b60405180910390fd5b6000600282610762919061244f565b036107a2576040517f08c379a0000000000000000000000000000000000000000000000000000000008152600401610799906124cc565b60405180910390fd5b806002819055505961012081016040526020815260e0602082015260e0600060408301376024356004353360003560e01c60e01b61012085a45050565b60016000803373ffffffffffffffffffffffffffffffffffffffff1673ffffffffffffffffffffffffffffffffffffffff1681526020019081526020016000205414610860576040517f08c379a000000000000000000000000000000000000000000000000000000000815260040161085790612282565b60405180910390fd5b60005b828290508110156108ed57600060046000858585818110610887576108866122a2565b5b905060200201602081019061089c9190611d18565b73ffffffffffffffffffffffffffffffffffffffff1673ffffffffffffffffffffffffffffffffffffffff1681526020019081526020016000208190555080806108e59061236c565b915050610863565b505961012081016040526020815260e0602082015260e0600060408301376024356004353360003560e01c60e01b61012085a4505050565b7f657468757364000000000000000000000000000000000000000000000000000081565b60046020528060005260406000206000915090505481565b60006001600460003373ffffffffffffffffffffffffffffffffffffffff1673ffffffffffffffffffffffffffffffffffffffff16815260200190815260200160002054146109e5576040517f08c379a00000000000000000000000000000000000000000000000000000000081526004016109dc90612538565b60405180910390fd5b6000600160009054906101000a90046fffffffffffffffffffffffffffffffff166fffffffffffffffffffffffffffffffff1611610a58576040517f08c379a0000000000000000000000000000000000000000000000000000000008152600401610a4f906125a4565b60405180910390fd5b600160009054906101000a90046fffffffffffffffffffffffffffffffff166fffffffffffffffffffffffffffffffff16905090565b6000806001600460003373ffffffffffffffffffffffffffffffffffffffff1673ffffffffffffffffffffffffffffffffffffffff1681526020019081526020016000205414610b13576040517f08c379a0000000000000000000000000000000000000000000000000000000008152600401610b0a90612538565b60405180910390fd5b600160009054906101000a90046fffffffffffffffffffffffffffffffff166000600160009054906101000a90046fffffffffffffffffffffffffffffffff166fffffffffffffffffffffffffffffffff1611816fffffffffffffffffffffffffffffffff169150915091509091565b60016000803373ffffffffffffffffffffffffffffffffffffffff1673ffffffffffffffffffffffffffffffffffffffff1681526020019081526020016000205414610c04576040517f08c379a0000000000000000000000000000000000000000000000000000000008152600401610bfb90612282565b60405180910390fd5b6000600460008373ffffffffffffffffffffffffffffffffffffffff1673ffffffffffffffffffffffffffffffffffffffff168152602001908152602001600020819055505961012081016040526020815260e0602082015260e0600060408301376024356004353360003560e01c60e01b61012085a45050565b60016000803373ffffffffffffffffffffffffffffffffffffffff1673ffffffffffffffffffffffffffffffffffffffff1681526020019081526020016000205414610d00576040517f08c379a0000000000000000000000000000000000000000000000000000000008152600401610cf790612282565b60405180910390fd5b60016000808373ffffffffffffffffffffffffffffffffffffffff1673ffffffffffffffffffffffffffffffffffffffff168152602001908152602001600020819055505961012081016040526020815260e0602082015260e0600060408301376024356004353360003560e01c60e01b61012085a45050565b6002548a8a905014610dc1576040517f08c379a0000000000000000000000000000000000000000000000000000000008152600401610db890612610565b60405180910390fd5b6000806000600160109054906101000a900463ffffffff1663ffffffff16905060005b8d8d90508110156110f3576000610e898f8f84818110610e0757610e066122a2565b5b905060200201358e8e85818110610e2157610e206122a2565b5b905060200201358d8d86818110610e3b57610e3a6122a2565b5b9050602002016020810190610e50919061218e565b8c8c87818110610e6357610e626122a2565b5b905060200201358b8b88818110610e7d57610e7c6122a2565b5b90506020020135611a63565b9050610eca6040518060400160405280600781526020017f7369676e65723a0000000000000000000000000000000000000000000000000081525082611b2f565b6001600360008373ffffffffffffffffffffffffffffffffffffffff1673ffffffffffffffffffffffffffffffffffffffff1681526020019081526020016000205414610f4c576040517f08c379a0000000000000000000000000000000000000000000000000000000008152600401610f439061267c565b60405180910390fd5b610f8b6040518060400160405280600481526020017f74696d650000000000000000000000000000000000000000000000000000000081525042611bcb565b828d8d84818110610f9f57610f9e6122a2565b5b9050602002013511610fe6576040517f08c379a0000000000000000000000000000000000000000000000000000000008152600401610fdd906126e8565b60405180910390fd5b838f8f84818110610ffa57610ff96122a2565b5b905060200201351015611042576040517f08c379a000000000000000000000000000000000000000000000000000000000815260040161103990612754565b60405180910390fd5b8e8e83818110611055576110546122a2565b5b9050602002013593506000609861106b83611c67565b901c9050600060028260ff1688901c611084919061244f565b146110c4576040517f08c379a00000000000000000000000000000000000000000000000000000000081526004016110bb906127c0565b60405180910390fd5b8060026110d19190612913565b866110dc919061295e565b9550505080806110eb9061236c565b915050610de4565b508c8c60018f8f9050901c81811061110e5761110d6122a2565b5b90506020020135600160006101000a8154816fffffffffffffffffffffffffffffffff02191690836fffffffffffffffffffffffffffffffff16021790555042600160106101000a81548163ffffffff021916908363ffffffff1602179055507fb78ebc573f1f889ca9e1e0fb62c843c836f3d3a2e1f43ef62940e9b894f4ea4c600160009054906101000a90046fffffffffffffffffffffffffffffffff16600160109054906101000a900463ffffffff166040516111cf929190612a1a565b60405180910390a150505050505050505050505050565b60056020528060005260406000206000915054906101000a900473ffffffffffffffffffffffffffffffffffffffff1681565b60016000803373ffffffffffffffffffffffffffffffffffffffff1673ffffffffffffffffffffffffffffffffffffffff168152602001908152602001600020541461129a576040517f08c379a000000000000000000000000000000000000000000000000000000000815260040161129190612282565b60405180910390fd5b60005b828290508110156113b3576000600360008585858181106112c1576112c06122a2565b5b90506020020160208101906112d69190611d18565b73ffffffffffffffffffffffffffffffffffffffff1673ffffffffffffffffffffffffffffffffffffffff16815260200190815260200160002081905550600060056000609861134c878787818110611332576113316122a2565b5b90506020020160208101906113479190611d18565b611c67565b901c60ff1660ff16815260200190815260200160002060006101000a81548173ffffffffffffffffffffffffffffffffffffffff021916908373ffffffffffffffffffffffffffffffffffffffff16021790555080806113ab9061236c565b91505061129d565b505961012081016040526020815260e0602082015260e0600060408301376024356004353360003560e01c60e01b61012085a4505050565b60016000803373ffffffffffffffffffffffffffffffffffffffff1673ffffffffffffffffffffffffffffffffffffffff168152602001908152602001600020541461146c576040517f08c379a000000000000000000000000000000000000000000000000000000000815260040161146390612282565b60405180910390fd5b60005b828290508110156116ef57600073ffffffffffffffffffffffffffffffffffffffff168383838181106114a5576114a46122a2565b5b90506020020160208101906114ba9190611d18565b73ffffffffffffffffffffffffffffffffffffffff1603611510576040517f08c379a000000000000000000000000000000000000000000000000000000000815260040161150790612a8f565b60405180910390fd5b6000609861154485858581811061152a576115296122a2565b5b905060200201602081019061153f9190611d18565b611c67565b901c9050600073ffffffffffffffffffffffffffffffffffffffff16600560008360ff1660ff16815260200190815260200160002060009054906101000a900473ffffffffffffffffffffffffffffffffffffffff1673ffffffffffffffffffffffffffffffffffffffff16146115f0576040517f08c379a00000000000000000000000000000000000000000000000000000000081526004016115e790612afb565b60405180910390fd5b600160036000868686818110611609576116086122a2565b5b905060200201602081019061161e9190611d18565b73ffffffffffffffffffffffffffffffffffffffff1673ffffffffffffffffffffffffffffffffffffffff1681526020019081526020016000208190555083838381811061166f5761166e6122a2565b5b90506020020160208101906116849190611d18565b600560008360ff1660ff16815260200190815260200160002060006101000a81548173ffffffffffffffffffffffffffffffffffffffff021916908373ffffffffffffffffffffffffffffffffffffffff1602179055505080806116e79061236c565b91505061146f565b505961012081016040526020815260e0602082015260e0600060408301376024356004353360003560e01c60e01b61012085a4505050565b60016000803373ffffffffffffffffffffffffffffffffffffffff1673ffffffffffffffffffffffffffffffffffffffff16815260200190815260200160002054146117a8576040517f08c379a000000000000000000000000000000000000000000000000000000000815260040161179f90612282565b60405180910390fd5b60008060008373ffffffffffffffffffffffffffffffffffffffff1673ffffffffffffffffffffffffffffffffffffffff168152602001908152602001600020819055505961012081016040526020815260e0602082015260e0600060408301376024356004353360003560e01c60e01b61012085a45050565b60006020528060005260406000206000915090505481565b6000600160109054906101000a900463ffffffff16905090565b6000600360008373ffffffffffffffffffffffffffffffffffffffff1673ffffffffffffffffffffffffffffffffffffffff168152602001908152602001600020549050919050565b60016000803373ffffffffffffffffffffffffffffffffffffffff1673ffffffffffffffffffffffffffffffffffffffff168152602001908152602001600020541461191e576040517f08c379a000000000000000000000000000000000000000000000000000000000815260040161191590612282565b60405180910390fd5b600073ffffffffffffffffffffffffffffffffffffffff168173ffffffffffffffffffffffffffffffffffffffff160361198d576040517f08c379a00000000000000000000000000000000000000000000000000000000081526004016119849061231d565b60405180910390fd5b6001600460008373ffffffffffffffffffffffffffffffffffffffff1673ffffffffffffffffffffffffffffffffffffffff168152602001908152602001600020819055505961012081016040526020815260e0602082015260e0600060408301376024356004353360003560e01c60e01b61012085a45050565b600082827f6574687573640000000000000000000000000000000000000000000000000000604051602001611a3f93929190612b5d565b60405160208183030381529060405280519060200120905092915050565b60025481565b6000600186867f6574687573640000000000000000000000000000000000000000000000000000604051602001611a9c93929190612b5d565b60405160208183030381529060405280519060200120604051602001611ac29190612bf1565b6040516020818303038152906040528051906020012085858560405160008152602001604052604051611af89493929190612c26565b6020604051602081039080840390855afa158015611b1a573d6000803e3d6000fd5b50505060206040510351905095945050505050565b611bc78282604051602401611b45929190612cea565b6040516020818303038152906040527f319af333000000000000000000000000000000000000000000000000000000007bffffffffffffffffffffffffffffffffffffffffffffffffffffffff19166020820180517bffffffffffffffffffffffffffffffffffffffffffffffffffffffff8381831617835250505050611c87565b5050565b611c638282604051602401611be1929190612d1a565b6040516020818303038152906040527fb60e72cc000000000000000000000000000000000000000000000000000000007bffffffffffffffffffffffffffffffffffffffffffffffffffffffff19166020820180517bffffffffffffffffffffffffffffffffffffffffffffffffffffffff8381831617835250505050611c87565b5050565b60008173ffffffffffffffffffffffffffffffffffffffff169050919050565b60008151905060006a636f6e736f6c652e6c6f679050602083016000808483855afa5050505050565b600080fd5b600080fd5b600073ffffffffffffffffffffffffffffffffffffffff82169050919050565b6000611ce582611cba565b9050919050565b611cf581611cda565b8114611d0057600080fd5b50565b600081359050611d1281611cec565b92915050565b600060208284031215611d2e57611d2d611cb0565b5b6000611d3c84828501611d03565b91505092915050565b6000819050919050565b611d5881611d45565b82525050565b6000602082019050611d736000830184611d4f565b92915050565b600080fd5b600080fd5b600080fd5b60008083601f840112611d9e57611d9d611d79565b5b8235905067ffffffffffffffff811115611dbb57611dba611d7e565b5b602083019150836020820283011115611dd757611dd6611d83565b5b9250929050565b60008060208385031215611df557611df4611cb0565b5b600083013567ffffffffffffffff811115611e1357611e12611cb5565b5b611e1f85828601611d88565b92509250509250929050565b600063ffffffff82169050919050565b611e4481611e2b565b82525050565b6000602082019050611e5f6000830184611e3b565b92915050565b6000819050919050565b611e7881611e65565b82525050565b6000602082019050611e936000830184611e6f565b92915050565b611ea281611d45565b8114611ead57600080fd5b50565b600081359050611ebf81611e99565b92915050565b600060208284031215611edb57611eda611cb0565b5b6000611ee984828501611eb0565b91505092915050565b60008115159050919050565b611f0781611ef2565b82525050565b6000604082019050611f226000830185611d4f565b611f2f6020830184611efe565b9392505050565b60008083601f840112611f4c57611f4b611d79565b5b8235905067ffffffffffffffff811115611f6957611f68611d7e565b5b602083019150836020820283011115611f8557611f84611d83565b5b9250929050565b60008083601f840112611fa257611fa1611d79565b5b8235905067ffffffffffffffff811115611fbf57611fbe611d7e565b5b602083019150836020820283011115611fdb57611fda611d83565b5b9250929050565b60008083601f840112611ff857611ff7611d79565b5b8235905067ffffffffffffffff81111561201557612014611d7e565b5b60208301915083602082028301111561203157612030611d83565b5b9250929050565b60008060008060008060008060008060a08b8d03121561205b5761205a611cb0565b5b60008b013567ffffffffffffffff81111561207957612078611cb5565b5b6120858d828e01611f36565b9a509a505060208b013567ffffffffffffffff8111156120a8576120a7611cb5565b5b6120b48d828e01611f36565b985098505060408b013567ffffffffffffffff8111156120d7576120d6611cb5565b5b6120e38d828e01611f8c565b965096505060608b013567ffffffffffffffff81111561210657612105611cb5565b5b6121128d828e01611fe2565b945094505060808b013567ffffffffffffffff81111561213557612134611cb5565b5b6121418d828e01611fe2565b92509250509295989b9194979a5092959850565b600060ff82169050919050565b61216b81612155565b811461217657600080fd5b50565b60008135905061218881612162565b92915050565b6000602082840312156121a4576121a3611cb0565b5b60006121b284828501612179565b91505092915050565b6121c481611cda565b82525050565b60006020820190506121df60008301846121bb565b92915050565b600080604083850312156121fc576121fb611cb0565b5b600061220a85828601611eb0565b925050602061221b85828601611eb0565b9150509250929050565b600082825260208201905092915050565b7f4d656469616e2f6e6f742d617574686f72697a65640000000000000000000000600082015250565b600061226c601583612225565b915061227782612236565b602082019050919050565b6000602082019050818103600083015261229b8161225f565b9050919050565b7f4e487b7100000000000000000000000000000000000000000000000000000000600052603260045260246000fd5b7f4d656469616e2f6e6f2d636f6e74726163742d30000000000000000000000000600082015250565b6000612307601483612225565b9150612312826122d1565b602082019050919050565b60006020820190508181036000830152612336816122fa565b9050919050565b7f4e487b7100000000000000000000000000000000000000000000000000000000600052601160045260246000fd5b600061237782611d45565b91507fffffffffffffffffffffffffffffffffffffffffffffffffffffffffffffffff82036123a9576123a861233d565b5b600182019050919050565b7f4d656469616e2f71756f72756d2d69732d7a65726f0000000000000000000000600082015250565b60006123ea601583612225565b91506123f5826123b4565b602082019050919050565b60006020820190508181036000830152612419816123dd565b9050919050565b7f4e487b7100000000000000000000000000000000000000000000000000000000600052601260045260246000fd5b600061245a82611d45565b915061246583611d45565b92508261247557612474612420565b5b828206905092915050565b7f4d656469616e2f71756f72756d2d6e6f742d6f64642d6e756d62657200000000600082015250565b60006124b6601c83612225565b91506124c182612480565b602082019050919050565b600060208201905081810360008301526124e5816124a9565b9050919050565b7f4d656469616e2f636f6e74726163742d6e6f742d77686974656c697374656400600082015250565b6000612522601f83612225565b915061252d826124ec565b602082019050919050565b6000602082019050818103600083015261255181612515565b9050919050565b7f4d656469616e2f696e76616c69642d70726963652d6665656400000000000000600082015250565b600061258e601983612225565b915061259982612558565b602082019050919050565b600060208201905081810360008301526125bd81612581565b9050919050565b7f4d656469616e2f6261722d746f6f2d6c6f770000000000000000000000000000600082015250565b60006125fa601283612225565b9150612605826125c4565b602082019050919050565b60006020820190508181036000830152612629816125ed565b9050919050565b7f4d656469616e2f696e76616c69642d6f7261636c650000000000000000000000600082015250565b6000612666601583612225565b915061267182612630565b602082019050919050565b6000602082019050818103600083015261269581612659565b9050919050565b7f4d656469616e2f7374616c652d6d657373616765000000000000000000000000600082015250565b60006126d2601483612225565b91506126dd8261269c565b602082019050919050565b60006020820190508181036000830152612701816126c5565b9050919050565b7f4d656469616e2f6d657373616765732d6e6f742d696e2d6f7264657200000000600082015250565b600061273e601c83612225565b915061274982612708565b602082019050919050565b6000602082019050818103600083015261276d81612731565b9050919050565b7f4d656469616e2f6f7261636c652d616c72656164792d7369676e656400000000600082015250565b60006127aa601c83612225565b91506127b582612774565b602082019050919050565b600060208201905081810360008301526127d98161279d565b9050919050565b60008160011c9050919050565b6000808291508390505b6001851115612837578086048111156128135761281261233d565b5b60018516156128225780820291505b8081029050612830856127e0565b94506127f7565b94509492505050565b600082612850576001905061290c565b8161285e576000905061290c565b8160018114612874576002811461287e576128ad565b600191505061290c565b60ff8411156128905761288f61233d565b5b8360020a9150848211156128a7576128a661233d565b5b5061290c565b5060208310610133831016604e8410600b84101617156128e25782820a9050838111156128dd576128dc61233d565b5b61290c565b6128ef84848460016127ed565b925090508184048111156129065761290561233d565b5b81810290505b9392505050565b600061291e82611d45565b915061292983612155565b92506129567fffffffffffffffffffffffffffffffffffffffffffffffffffffffffffffffff8484612840565b905092915050565b600061296982611d45565b915061297483611d45565b925082820190508082111561298c5761298b61233d565b5b92915050565b60006fffffffffffffffffffffffffffffffff82169050919050565b6000819050919050565b60006129d36129ce6129c984612992565b6129ae565b611d45565b9050919050565b6129e3816129b8565b82525050565b6000612a046129ff6129fa84611e2b565b6129ae565b611d45565b9050919050565b612a14816129e9565b82525050565b6000604082019050612a2f60008301856129da565b612a3c6020830184612a0b565b9392505050565b7f4d656469616e2f6e6f2d6f7261636c652d300000000000000000000000000000600082015250565b6000612a79601283612225565b9150612a8482612a43565b602082019050919050565b60006020820190508181036000830152612aa881612a6c565b9050919050565b7f4d656469616e2f7369676e65722d616c72656164792d65786973747300000000600082015250565b6000612ae5601c83612225565b9150612af082612aaf565b602082019050919050565b60006020820190508181036000830152612b1481612ad8565b9050919050565b6000819050919050565b612b36612b3182611d45565b612b1b565b82525050565b6000819050919050565b612b57612b5282611e65565b612b3c565b82525050565b6000612b698286612b25565b602082019150612b798285612b25565b602082019150612b898284612b46565b602082019150819050949350505050565b600081905092915050565b7f19457468657265756d205369676e6564204d6573736167653a0a333200000000600082015250565b6000612bdb601c83612b9a565b9150612be682612ba5565b601c82019050919050565b6000612bfc82612bce565b9150612c088284612b46565b60208201915081905092915050565b612c2081612155565b82525050565b6000608082019050612c3b6000830187611e6f565b612c486020830186612c17565b612c556040830185611e6f565b612c626060830184611e6f565b95945050505050565b600081519050919050565b60005b83811015612c94578082015181840152602081019050612c79565b60008484015250505050565b6000601f19601f8301169050919050565b6000612cbc82612c6b565b612cc68185612225565b9350612cd6818560208601612c76565b612cdf81612ca0565b840191505092915050565b60006040820190508181036000830152612d048185612cb1565b9050612d1360208301846121bb565b9392505050565b60006040820190508181036000830152612d348185612cb1565b9050612d436020830184611d4f565b939250505056fea2646970667358221220234c9e8a2ba62c615c157d04601abdb67a5f35c15e70fb1bae2b0961f838807364736f6c63430008110033",
  "linkReferences": {},
  "deployedLinkReferences": {}
}