{
  "_format": "hh-sol-artifact-1",
  "contractName": "DSValue",
  "sourceName": "contracts/dai/oracle-module/value.sol",
  "abi": [
    {
      "anonymous": true,
      "inputs": [
        {
          "indexed": true,
          "internalType": "bytes4",
          "name": "sig",
          "type": "bytes4"
        },
        {
          "indexed": true,
          "internalType": "address",
          "name": "guy",
          "type": "address"
        },
        {
          "indexed": true,
          "internalType": "bytes32",
          "name": "foo",
          "type": "bytes32"
        },
        {
          "indexed": true,
          "internalType": "bytes32",
          "name": "bar",
          "type": "bytes32"
        },
        {
          "indexed": false,
          "internalType": "uint256",
          "name": "wad",
          "type": "uint256"
        },
        {
          "indexed": false,
          "internalType": "bytes",
          "name": "fax",
          "type": "bytes"
        }
      ],
      "name": "LogNote",
      "type": "event"
    },
    {
      "anonymous": false,
      "inputs": [
        {
          "indexed": true,
          "internalType": "address",
          "name": "authority",
          "type": "address"
        }
      ],
      "name": "LogSetAuthority",
      "type": "event"
    },
    {
      "anonymous": false,
      "inputs": [
        {
          "indexed": true,
          "internalType": "address",
          "name": "owner",
          "type": "address"
        }
      ],
      "name": "LogSetOwner",
      "type": "event"
    },
    {
      "inputs": [],
      "name": "authority",
      "outputs": [
        {
          "internalType": "contract DSAuthority",
          "name": "",
          "type": "address"
        }
      ],
      "stateMutability": "view",
      "type": "function"
    },
    {
      "inputs": [],
      "name": "owner",
      "outputs": [
        {
          "internalType": "address",
          "name": "",
          "type": "address"
        }
      ],
      "stateMutability": "view",
      "type": "function"
    },
    {
      "inputs": [],
      "name": "peek",
      "outputs": [
        {
          "internalType": "bytes32",
          "name": "",
          "type": "bytes32"
        },
        {
          "internalType": "bool",
          "name": "",
          "type": "bool"
        }
      ],
      "stateMutability": "view",
      "type": "function"
    },
    {
      "inputs": [
        {
          "internalType": "bytes32",
          "name": "wut",
          "type": "bytes32"
        }
      ],
      "name": "poke",
      "outputs": [],
      "stateMutability": "nonpayable",
      "type": "function"
    },
    {
      "inputs": [],
      "name": "read",
      "outputs": [
        {
          "internalType": "bytes32",
          "name": "",
          "type": "bytes32"
        }
      ],
      "stateMutability": "view",
      "type": "function"
    },
    {
      "inputs": [
        {
          "internalType": "contract DSAuthority",
          "name": "authority_",
          "type": "address"
        }
      ],
      "name": "setAuthority",
      "outputs": [],
      "stateMutability": "nonpayable",
      "type": "function"
    },
    {
      "inputs": [
        {
          "internalType": "address",
          "name": "owner_",
          "type": "address"
        }
      ],
      "name": "setOwner",
      "outputs": [],
      "stateMutability": "nonpayable",
      "type": "function"
    },
    {
      "inputs": [],
      "name": "void",
      "outputs": [],
      "stateMutability": "nonpayable",
      "type": "function"
    }
  ],
  "bytecode": "0x608060405234801561001057600080fd5b5033600160006101000a81548173ffffffffffffffffffffffffffffffffffffffff021916908373ffffffffffffffffffffffffffffffffffffffff1602179055503373ffffffffffffffffffffffffffffffffffffffff167fce241d7ca1f669fee44b6fc00b8eba2df3bb514eed0f6f668f8f89096e81ed9460405160405180910390a2610d2a806100a46000396000f3fe608060405234801561001057600080fd5b50600436106100885760003560e01c80637a9e5e4b1161005b5780637a9e5e4b146101025780638da5cb5b1461011e578063ac4c25b21461013c578063bf7e214f1461014657610088565b806313af40351461008d5780631504460f146100a957806357de26a4146100c557806359e02dd7146100e3575b600080fd5b6100a760048036038101906100a2919061088a565b610164565b005b6100c360048036038101906100be91906108ed565b61027a565b005b6100cd610398565b6040516100da9190610929565b60405180910390f35b6100eb6103f5565b6040516100f992919061095f565b60405180910390f35b61011c600480360381019061011791906109c6565b610413565b005b610126610526565b6040516101339190610a02565b60405180910390f35b61014461054c565b005b61014e610663565b60405161015b9190610a7c565b60405180910390f35b610192336000357fffffffff0000000000000000000000000000000000000000000000000000000016610687565b6101d1576040517f08c379a00000000000000000000000000000000000000000000000000000000081526004016101c890610af4565b60405180910390fd5b80600160006101000a81548173ffffffffffffffffffffffffffffffffffffffff021916908373ffffffffffffffffffffffffffffffffffffffff160217905550600160009054906101000a900473ffffffffffffffffffffffffffffffffffffffff1673ffffffffffffffffffffffffffffffffffffffff167fce241d7ca1f669fee44b6fc00b8eba2df3bb514eed0f6f668f8f89096e81ed9460405160405180910390a250565b6000806000600435925060243591503490506102ba336000357fffffffff0000000000000000000000000000000000000000000000000000000016610687565b6102f9576040517f08c379a00000000000000000000000000000000000000000000000000000000081526004016102f090610af4565b60405180910390fd5b8360028190555060018060146101000a81548160ff02191690831515021790555081833373ffffffffffffffffffffffffffffffffffffffff166000357fffffffff00000000000000000000000000000000000000000000000000000000167bffffffffffffffffffffffffffffffffffffffffffffffffffffffff19168460003660405161038a93929190610b8b565b60405180910390a450505050565b60008060006103a56103f5565b8092508193505050806103ed576040517f08c379a00000000000000000000000000000000000000000000000000000000081526004016103e490610c09565b60405180910390fd5b819250505090565b600080600254600160149054906101000a900460ff16915091509091565b610441336000357fffffffff0000000000000000000000000000000000000000000000000000000016610687565b610480576040517f08c379a000000000000000000000000000000000000000000000000000000000815260040161047790610af4565b60405180910390fd5b806000806101000a81548173ffffffffffffffffffffffffffffffffffffffff021916908373ffffffffffffffffffffffffffffffffffffffff16021790555060008054906101000a900473ffffffffffffffffffffffffffffffffffffffff1673ffffffffffffffffffffffffffffffffffffffff167f1abebea81bfa2637f28358c371278fb15ede7ea8dd28d2e03b112ff6d936ada460405160405180910390a250565b600160009054906101000a900473ffffffffffffffffffffffffffffffffffffffff1681565b60008060006004359250602435915034905061058c336000357fffffffff0000000000000000000000000000000000000000000000000000000016610687565b6105cb576040517f08c379a00000000000000000000000000000000000000000000000000000000081526004016105c290610af4565b60405180910390fd5b6000600160146101000a81548160ff02191690831515021790555081833373ffffffffffffffffffffffffffffffffffffffff166000357fffffffff00000000000000000000000000000000000000000000000000000000167bffffffffffffffffffffffffffffffffffffffffffffffffffffffff19168460003660405161065693929190610b8b565b60405180910390a4505050565b60008054906101000a900473ffffffffffffffffffffffffffffffffffffffff1681565b60003073ffffffffffffffffffffffffffffffffffffffff168373ffffffffffffffffffffffffffffffffffffffff16036106c55760019050610821565b600160009054906101000a900473ffffffffffffffffffffffffffffffffffffffff1673ffffffffffffffffffffffffffffffffffffffff168373ffffffffffffffffffffffffffffffffffffffff16036107235760019050610821565b600073ffffffffffffffffffffffffffffffffffffffff1660008054906101000a900473ffffffffffffffffffffffffffffffffffffffff1673ffffffffffffffffffffffffffffffffffffffff16036107805760009050610821565b60008054906101000a900473ffffffffffffffffffffffffffffffffffffffff1673ffffffffffffffffffffffffffffffffffffffff1663b70096138430856040518463ffffffff1660e01b81526004016107dd93929190610c64565b602060405180830381865afa1580156107fa573d6000803e3d6000fd5b505050506040513d601f19601f8201168201806040525081019061081e9190610cc7565b90505b92915050565b600080fd5b600073ffffffffffffffffffffffffffffffffffffffff82169050919050565b60006108578261082c565b9050919050565b6108678161084c565b811461087257600080fd5b50565b6000813590506108848161085e565b92915050565b6000602082840312156108a05761089f610827565b5b60006108ae84828501610875565b91505092915050565b6000819050919050565b6108ca816108b7565b81146108d557600080fd5b50565b6000813590506108e7816108c1565b92915050565b60006020828403121561090357610902610827565b5b6000610911848285016108d8565b91505092915050565b610923816108b7565b82525050565b600060208201905061093e600083018461091a565b92915050565b60008115159050919050565b61095981610944565b82525050565b6000604082019050610974600083018561091a565b6109816020830184610950565b9392505050565b60006109938261084c565b9050919050565b6109a381610988565b81146109ae57600080fd5b50565b6000813590506109c08161099a565b92915050565b6000602082840312156109dc576109db610827565b5b60006109ea848285016109b1565b91505092915050565b6109fc8161084c565b82525050565b6000602082019050610a1760008301846109f3565b92915050565b6000819050919050565b6000610a42610a3d610a388461082c565b610a1d565b61082c565b9050919050565b6000610a5482610a27565b9050919050565b6000610a6682610a49565b9050919050565b610a7681610a5b565b82525050565b6000602082019050610a916000830184610a6d565b92915050565b600082825260208201905092915050565b7f64732d617574682d756e617574686f72697a6564000000000000000000000000600082015250565b6000610ade601483610a97565b9150610ae982610aa8565b602082019050919050565b60006020820190508181036000830152610b0d81610ad1565b9050919050565b6000819050919050565b610b2781610b14565b82525050565b600082825260208201905092915050565b82818337600083830152505050565b6000601f19601f8301169050919050565b6000610b6a8385610b2d565b9350610b77838584610b3e565b610b8083610b4d565b840190509392505050565b6000604082019050610ba06000830186610b1e565b8181036020830152610bb3818486610b5e565b9050949350505050565b7f68617a2d6e6f7400000000000000000000000000000000000000000000000000600082015250565b6000610bf3600783610a97565b9150610bfe82610bbd565b602082019050919050565b60006020820190508181036000830152610c2281610be6565b9050919050565b60007fffffffff0000000000000000000000000000000000000000000000000000000082169050919050565b610c5e81610c29565b82525050565b6000606082019050610c7960008301866109f3565b610c8660208301856109f3565b610c936040830184610c55565b949350505050565b610ca481610944565b8114610caf57600080fd5b50565b600081519050610cc181610c9b565b92915050565b600060208284031215610cdd57610cdc610827565b5b6000610ceb84828501610cb2565b9150509291505056fea264697066735822122097e9dcdb7fba63edcd8c2fc2dd181aabd14575491eef573a0b2ed684bc9db6be64736f6c63430008110033",
  "linkReferences": {},
  "deployedLinkReferences": {}
}